S00E00004D41535445522E737265634A
S21440000080310020DD014000D9014000D901400088
S214400010D9014000D9014000D9014000000000004D
S214400020000000000000000000000000D901400071
S214400030D901400000000000D9014000D90140002D
S214400040D9014000D9014000D9014000D901400003
S214400050D9014000D9014000D9014000000000000D
S21440006099064000D901400000000000D901400038
S214400070D901400000000000D9014000D9014000ED
S2144000800000000000000000D9014000D9014000F7
S214400090D9014000D9014000D9014000D9014000B3
S2144000A0D9014000D90140000000000000000000D7
S2144000B000000000D9014000D9014000D9014000AD
S2144000C0D9014000D9014000D901400010B5054C87
S2144000D0237833B9044B13B10448AFF300800123AF
S2144000E0237010BD3C040020000000009831400002
S2144000F00C4B43B10C480D4910B5AFF300800C488B
S214400100036823B910BD0A48036833B97047094BE2
S214400110002BF7D0BDE810401847064B002BF5D013
S214400120184700BF000000009831400040040020FF
S214400130983140000000000010B51D4B1A6842F090
S21440014030021A601A6842F0C0021A60194A1368F0
S21440015043F480731360184B1868184B984712A3E3
S214400160D3E90023164CA0470022164B164CA04756
S214400170164B9847C0B2164A136843EA00201060F0
S2144001802032136843F0F003136002F5282202F58C
S2144001907B72136843F0005313600E4A136843F0B3
S2144001A00803136010BD00BF0000000080843E417D
S2144001B0108003409480034000000020F921400056
S2144001C0392540000000F03F7D1F40004528400094
S2144001D00480034000800340FEE7000008B5104B53
S2144001E0104A9A4209D00E4B0E4A03E01168196035
S2144001F0043304320C498B42F8D30C4B02E0002205
S2144002001A6004330A4A9342F9D30A4A0A4B23F047
S2144002107F039360094B9847094B9847FEE700BF1A
S21440022000000020983140003C0400203C040020A0
S214400230802D002000ED00E000004000452F4000EB
S2144002401905400070B44FF400455E4C65605E4D45
S214400250A4F525642560012858D0A0B1022875D0A1
S21440026012B1002B40F08E800122584B1A60584B3A
S21440027003FB01F1574B1960574B1B6813F0080FEF
S214400280FAD070BC7047554C206840F45C1040F083
S21440029008002060524C534804624F48006810F4EF
S2144002A0003FFAD004290DD0082923D04B4C2068B3
S2144002B020F45C1020F0700040F45C1040F0200009
S2144002C0206008E0454C206820F45C1020F0700068
S2144002D040F45C1020604048006810F4003FFAD0BC
S2144002E03E4C206820F09B7020F4803040F45C1038
S2144002F02060B5E7394C206820F45C1020F0700090
S21440030040F45C1040F010002060E4E7334C256871
S2144003103548284320603048006810F0010FFAD076
S2144003202E4C206840F09B7040F4803020602A4875
S214400330006810F4803FFAD0284C206820F45C1007
S21440034020F0080040F45C10206089E7234C2068C9
S21440035040F45C1040F002002060206840F09B7043
S21440036040F4803020601C48006810F4803FFAD08B
S2144003701A4C206820F45C1020F0080040F45C1012
S21440038020606DE7194E3068541E194D05EA044446
S2144003901C43204340F0005040F47C5030600E48F0
S2144003A0006810F0020FFAD002240848046002FBEE
S2144003B001F191FBF3F3064A02FB03F3054A13608F
S2144003C05AE700BF50140E400007000430040E40A9
S2144003D040420F000000002068040E4020040E40FB
S2144003E00800370000040E4001FF370028040E4086
S2144003F00000FF07154A136843F400431360A2F554
S214400400CA62136843F4C0631360A2F6F41213681A
S21440041043F48073136000010D4B1B68B3FBF0F090
S2144004200C4B18604FF400621C3B1A600A4A136873
S21440043043F0500313600832136843F0010313601F
S2144004404FF48072054B1A60704700BF54140E403C
S2144004500000002020060E4000060E4000E100E0AE
S214400460044B1B6813F0020FFAD0034B1A68104374
S2144004701860704714060E401C060E40044A136867
S21440048018431060034B1B6813F0040FFAD07047F4
S2144004903480014020800140104A136843F4002312
S2144004A0136002F6F412136843F0180313604FF417
S2144004B07A7303FB00F30A4A1068B0FBF3F0043883
S2144004C0C008030203F47F43C0B2184340F44030F0
S2144004D0044B18602422103B1A60704710040E40EC
S2144004E00000002010800140000400F4FE00044B91
S2144004F01860044A136843F001031360704700BF56
S2144005000480014000800140024A136843F0020321
S2144005101360704700800140F8B502230F22102177
S21440052018464F4CA0474FF4C8704E4B98474E4B1A
S21440053098474FF496404D4B98474D4B1A6942F4B6
S21440054010021A611A6B42F480121A63494B98479C
S214400550002742E0484B9847002744E00136F6B271
S2144005603546464B9B789E420FDA06EBC604E4B20D
S2144005706B1C03EBC3039C42F0DA404B23441879D0
S2144005803F4B98470134E4B2F2E73E4B98473B4A2C
S214400590937803EBC303D1180C79591C114408799E
S2144005A040EA042038490880981C10440479D81C36
S2144005B01044007940EA04204880181D1044007911
S2144005C0053313441B7943EA00238B8000222B4BD0
S2144005D01A704FF480722D4B1A602D4B1B7813B156
S2144005E0132FB7DC0137254B1B78002B35D04FF443
S2144005F08072264BC3F88020BFF34F8FBFF36F8FB8
S2144006001E4B5B78042B11D0072B1DD0022BDDD15F
S2144006100120204B9847194B9878C00040F00200C4
S21440062000F0FA00164B9847002699E70120194B30
S2144006309847124D95F86400114CA04795F8650010
S214400640A047104B9847C1E70120124B9847072018
S2144006500B4B98470B4B9847B8E700BFBDE700BF2A
S214400660450240009904400039014000F50340002F
S214400670000E0E40F1084000510A40005804002089
S2144006807D044000090540000400002000E100E031
S214400690282D0020E9044000654B1B6813F0010F2D
S2144006A024D0644B1868C0B2634B83F8660093F856
S2144006B067303BB3604B5B78022B08D05E4B83F8C9
S2144006C06500002283F8672001221A7070475A4A54
S2144006D092F86830D11808710133DBB282F868307E
S2144006E0927802EBC2020632934200D07047524ADA
S2144006F0002382F8683082F86730012111704F4A33
S214400700137070472DE9F04100F007034A4A5370D2
S214400710072B00F28680DFE803F0040D162069718F
S214400720767B474B9847444B93F86600454B984733
S214400730BDE8F081444B98473F4B93F86600414BE9
S2144007409847BDE8F081C2083B4B9A70012283F877
S21440075067203C4B9847BDE8F081DFF810813B4F5F
S214400760D8F80000B8473A4E2FA3D3E90023B04745
S214400770384DA847C0F30720324CA047D8F80000B1
S214400780B84729A3D3E90023B047A847C0B2A0473B
S214400790314E324D3068A847C0F30720A047306836
S2144007A0A847C0B2A0472E4E3068A847C0F30720DF
S2144007B0A0473068A847C0B2A0472A4E3068A8472E
S2144007C0C0F30720A0473068A847C0B2A047264ECF
S2144007D03068A847C0F30720A0473068A847C0B293
S2144007E0A047164B1878A047BDE8F081124B01226F
S2144007F083F8672083F86400BDE8F0810E4B83F8E9
S2144008006900BDE8F08103200E4B9847BDE8F081B3
S2144008100D4B9847084B01221A7093F86600094B17
S2144008209847BDE8F08100BFCDCCCCCCCC7A7440A4
S21440083014060E4018060E405804002023050020DB
S2144008407108400061044000F10840003D2240002D
S214400850E522400045284000302D0020F92E40007B
S214400860342D0020482D00204C2D00202C2D00201B
S214400870F8B51A4B5A6B42F400025A631A6B42F4AC
S21440088080121A63164D00242C706C70AC70EC709D
S2144008902C716C71AC714FF400673A46214605F1F5
S2144008A00800104EB0473A46214605F60800B047C5
S2144008B00D4D3A462146A5F1F000B0473A4621464E
S2144008C005F5E260B0473A46214605F57160B04707
S2144008D00122064B83F81826F8BD00BF000E0E40D6
S2144008E020050020952F40001816002010270020D5
S2144008F0044A136B43F4000313630022024B83F84D
S21440090018267047000E0E401027002008B5354BBD
S2144009101B78002B54D1344B1888344B9847344BB3
S214400920D3F81C16334B984748B1334A9379013372
S214400930DBB29371042B02DD01222F4B1A702F4B32
S21440094018882A4B98472A4BD3F82016294B9847A5
S21440095048B1294A13790133DBB21371042B02DD07
S2144009600122254B5A70264B1888204B9847204B1F
S214400970D3F824161F4B984748B11F4A5379013382
S214400980DBB25371042B02DD01221B4B9A701A4BCB
S214400990197821B95B7813B9174B9B780BB3164A75
S2144009A053785B0043EA81035BB291780B43D37084
S2144009B0144A536B43F480135363134B984708BD54
S2144009C0D8090D490870C3F380124A70C3F3401328
S2144009D08B70520042EA80021343CB700022014BD8
S2144009E01A7008BDC104002004000020992A400067
S2144009F0102700207D2E4000200500200600002005
S214400A0008000020000E0E40F1084000136840F831
S214400A102310136801331360B3F5007F01DB002316
S214400A201360704738B5054600240020B4F5007FB3
S214400A3005DA55F82410044B98470134F6E74FF092
S214400A406C51024B984738BD31294000412B40003D
S214400A502DE9F04F83B0884A136843F002031360D1
S214400A60864B1B6813F0100FFAD0844B1B6813F0AC
S214400A70200FFAD0814B1B6813F0400FFAD07F4B03
S214400A801B6813F0800FFAD07B4B186E5E6E9D6E1F
S214400A90DC6E83B240F6E44000FB03F00028C0F270
S214400AA0D3800013764B98470746B6B240F6E440EC
S214400AB000FB06F00028C0F2CA800013704B98472F
S214400AC00646ADB240F6E44000FB05F00028C0F212
S214400AD0C18000136A4B98470546A4B240F6E440EE
S214400AE000FB04F00028C0F2B8800013644B98471F
S214400AF0009007F10040DFF8D891C847614C5AA3F0
S214400B00D3E90023A047604F59A3D3E90023B84751
S214400B10DFF8C081C047824606F10040C84752A36E
S214400B20D3E90023A04752A3D3E90023B847C047E0
S214400B30019029462846554B98478346544D55497B
S214400B400098A847544C554E04F5C562014606F534
S214400B50E260534FB847A6F1F00304F22C625946C0
S214400B6000931846B8474B495046A847C8470246E0
S214400B700B4600204B49DFF860B1D847DFF85CA150
S214400B800022494BD047C047484E04F5C66201464E
S214400B9006F10800B8473F490198A847C8470246AB
S214400BA00B4600203F49D84700223F4BD047C0471E
S214400BB006F6080604F2346201463046B8473C481A
S214400BC03C4FB847C4F820060098B847C4F82406F7
S214400BD0A6F50060B8478046C4F838063046B847A1
S214400BE0C4F83C064146A847334EB0474FF07E51C6
S214400BF0264B98470746D4F83816D4F83C06A847FC
S214400C00B04701464FF07E502C4B98470146384639
S214400C10A8470546C4F8400629492A4B9847F8B1E4
S214400C201D4CC4F84456284E04F5C9622946304641
S214400C301B4B984730461F4B9847C4F81C06234B1F
S214400C40984703B0BDE8F08F00F6FF7029E700F63E
S214400C50FF7032E700F6FF703BE700F6FF7044E7B0
S214400C60174DDDE7AFF30080B6847CD0B359A53F7F
S214400C703333333333D35440008003403080034013
S214400C80992A4000E5224000811F4000312940005B
S214400C90A92C4000000020411027002018160020F4
S214400CA00D0A40000000244000408F4020050020F0
S214400CB0281D0020250A4000DD0F40002D29400059
S214400CC000004843912E4000282500200D09400092
S214400CD03D22400085284000E10C40003925400078
S214400CE02DE9F04FDFF8F0928DB006460F461446D9
S214400CF01D4600F0C5F999F90080B8F1FF3FCDE9EF
S214400D00000136D022462B462046294601F084FD77
S214400D10834670BB32463B463046394601F07CFD42
S214400D20002282460023002840F0A0803046394604
S214400D3001F040FD10B3002200232046294601F072
S214400D4039FD834600286AD001229C4B029200213E
S214400D500022CDF828A0CDE90467CDE90645CDE9C7
S214400D6008120393B8F1000F45D0954C0023CDE907
S214400D700034DDE900010DB0BDE8F08FDDE900018B
S214400D8000F0D8FF8046002800F08B804FF0000A25
S214400D904FF0000B52465B46DDE9000101F00AFDCC
S214400DA00028E6D03046394600F0C4FF0028E0D0A0
S214400DB02046294600F0BEFF0028DAD099F90030D8
S214400DC07E4A039204210022022BCDE90467CDE936
S214400DD00645CDE908AB02910A9203D002A800F07E
S214400DE0AFFF68B902F0A8F82223036008E00023AA
S214400DF00024CDE9083402A800F0A2FF002830D035
S214400E000A9B1BB102F098F80A9B0360DDE90834A0
S214400E10CDE90034DDE900010DB0BDE8F08F204695
S214400E20294600F087FF0028A3D000220023204652
S214400E30294601F0C9FC00289BD099F900305F4A4A
S214400E40CDF828B00121CDE90467CDE906450291E9
S214400E500392002BCBD05B490020022BCDE9080142
S214400E60C9D102F069F821230360C9E72046294624
S214400E7001F0A0FC00283FF47CAF514B4F49CDF821
S214400E8028B001200022B8F1020FCDE90467CDE971
S214400E90064502900391CDE90823ACD1CDE9002365
S214400EA067E73046394600F045FF00283FF46EAF0E
S214400EB02046294600F03EFF00283FF467AFDDE9B4
S214400EC000231046194601F0A7FC002858D10323FA
S214400ED099F900800293394B0A900393CDE9046751
S214400EE0CDE906450022002330463946B8F1000FCA
S214400EF026D1354F4FF06046CDE9086701F064FCD7
S214400F0000283FF46BAF0022304B2046294601F0C4
S214400F10E9F904460D4600F01BFF02460B46204604
S214400F20294601F047FC40BB294B99F900804FF019
S214400F306042CDE90823B8F1020F7FF44FAF51E786
S214400F40244F0026CDE9086701F03EFC0028F2D089
S214400F5000221E4B2046294601F0C4F904460D46A1
S214400F6000F0F6FE02460B462046294601F022FCDB
S214400F7018B9144B0022CDE9082399F90080DAE726
S214400F8099F900900D4BCDF828800122CDE90467F1
S214400F90CDE9064502920393B9F1000F3FF427AF1F
S214400FA0002200231046194601F0C6FAB9F1020F96
S214400FB0CDE908013FF455AF1DE700BF5031400072
S214400FC00000F03F0000F0FFFFFFEF470000E03F6B
S214400FD0FFFFEFC70000F07F0A000020F0B58BB09F
S214400FE0044600F04FFE234B93F900506B1C064618
S214400FF00AD02146204601F069FF074620B9002165
S214401000204601F03BFF10B930460BB0F0BD1A4BFE
S2144010100897012220468DE80C0001F00FF90022C7
S214401020CDE90401CDE902010023ADB110461946D1
S21440103001F082FA022DCDE906010FD101F07CFFC6
S21440104021230360089B7BB9DDE9060101F01AFC09
S214401050064630460BB0F0BDCDE90623684600F0A4
S2144010606FFE0028EED1E9E701F066FF089B0360BB
S214401070EAE700BF0A0000205431400000000000AC
S2144010802DE9F04F23F0004757EA020493B037D0DB
S214401090674C21F00046A64283460D4629DC9A4618
S2144010A0964625D0A74224DC614CA74279D0002D35
S2144010B089468046CDE9002377DB0024BEF1000F49
S2144010C02CD15B4B9F4200F08B805A4B9F4261D0A5
S2144010D0BAF1804F00F0BA83574B9A451ED1002D87
S2144010E01CDB4046494613B0BDE8F04F00F00EBD4D
S2144010F058B106F1404606F5801656EA0B0306D16F
S2144011004C49002013B0BDE8F08FB742CCDD4B48C9
S21440111013B0BDE8F04F00F015BE002440464946E7
S21440112000F004FEBBF1000F19D126B1414B25F06B
S21440113040429A4213D1BAF1000FC0F2BC83002D50
S214401140E0DA06F1404606F5801656EA040300F05B
S2144011508F84012CD6D101F100431946D2E7ED0F1A
S214401160013D54EA05034ED0354B9F426EDD03F1F8
S21440117004739F4240F3E883324B9E424EDDBAF101
S214401180000F4EDD28A3D3E900231046194601F090
S214401190A9F8B7E7BAF1000FC0F23C84404649468A
S2144011A0B0E7BEF1000F82D0A3E7274B9F4228DC72
S2144011B0A3F154739F4280DD3B15A3F2FF33142BFB
S2144011C040F33E84C3F134032EFA03F202FA03F3EB
S2144011D09E457FF472AF02F00102C2F102046DE751
S2144011E006F1404303F5801353EA0B0388D0154BB2
S2144011F09E4240F33283BAF1000F12DBDDE9000174
S21440120080E702245AE742464B464046494600F0AD
S214401210B5FE02460B4601F08FF973E7BAF1000FB0
S214401220B0DB002000216DE79C7500883CE4377EEB
S2144012300000F07F0000F03F0000E03F5C314000DF
S2144012400000E041FFFFEF3FFFFF3F43B6F5801F42
S2144012504FF0000205DAD44B01F044F86FF0340248
S2144012600E463315D14FC6F31306A3F2FF3313448D
S21440127046F07F5ABE421A460D934AF4401A40F34F
S2144012802183CB4B9E4240F3FD83134601330D939F
S214401290C84B0022CDE9062300270026CDE9086783
S2144012A0CDE90E67AAF5801A0027024653465146F6
S2144012B0CDE90A23DDE9062300F060FEDDE90623DA
S2144012C080468946DDE90A0100F05AFE02460B4692
S2144012D00020B84901F030F90A460146CDE910121F
S2144012E0134649460246404600F0FCFF4FEA6A0372
S2144012F043F000538C46834603F50023CDE904BCF7
S214401300DA468B46D9190023CDE902AB0293DDE9D4
S21440131002AB002006460F4602460B46504659464C
S21440132000F0E0FF02460B464046494600F026FEE7
S214401330DDE90623804689463046394600F01EFEE3
S21440134002460B46DDE90A0100F018FE52465B46AF
S21440135000F0C8FF02460B464046494600F00EFEE7
S214401360DDE9102300F0BEFFDDE90467CDE90601A4
S21440137032463B463046394600F0B4FF78A3D3E9C0
S214401380002306460F4600F0ADFF77A3D3E90023BF
S21440139000F0F6FD32463B4600F0A4FF74A3D3E9C6
S2144013A0002300F0EDFD32463B4600F09BFF72A363
S2144013B0D3E9002300F0E4FD32463B4600F092FFBE
S2144013C06FA3D3E9002300F0DBFD32463B4600F036
S2144013D089FF6DA3D3E9002300F0D2FD3246804654
S2144013E089463B463046394600F07CFF02460B466F
S2144013F04046494600F076FF524606460F465B4654
S214401400DDE9040100F0BCFDDDE9062300F06AFFDB
S21440141032463B4600F0B4FD5246804689465B461F
S2144014205046594600F05EFF0022634BCDE90A0164
S21440143000F0A6FD42464B4600F0A2FD02980F463D
S214401440064632463B465046594600F04BFF002281
S21440145082468B46584B3046394600F08FFDDDE9D4
S2144014600A2300F08BFD02460B464046494600F0F4
S21440147085FDDDE9042300F035FF32468046894687
S2144014803B46DDE9060100F02DFF02460B4640468E
S214401490494600F075FD8046894602460B46504652
S2144014A05946CDE904AB00F06BFDDDE902AB38A34D
S2144014B0D3E9002350460F4600F014FFDDE904232D
S2144014C0CDE902013946504600F058FD02460B462B
S2144014D04046494600F052FD2FA3D3E9002300F0D2
S2144014E001FF2FA3D3E9002380468946504639465C
S2144014F000F0F8FE02460B464046494600F040FDE6
S214401500DDE90E2300F03CFD80460D98894600F04C
S21440151083FE424606460F464B46DDE9020100F092
S2144015202FFDDDE9082300F02BFD32463B4600F058
S21440153027FD32463B4650468B4600F01FFDDDE910
S214401540082300F01BFDDDE9022300F017FD0246EC
S2144015500B464046494600F011FD80462EE000BF4F
S214401560EF4E454A287ECA3F65DBC9934A86CD3F43
S21440157001411DA96074D13F4D268F515555D53F29
S214401580FFAB6FDBB66DDB3F033333333333E33FC1
S214401590000000E009C7EE3FFD033ADC09C7EE3F16
S2144015A0F5015B14E02F3EBE000040438E980300DA
S2144015B079B60B000000F03F000008408946013C29
S2144015C054EA0503DDE9000114BFD94CD94C002389
S2144015D0CDE9043403460C46CDE902340023029399
S2144015E0DDE9024522462B4600F0C8FC52465B46E3
S2144015F000F078FEDDE9002306460F4640464946A1
S21440160000F070FE02460B463046394600F0B8FC05
S2144016102246804689462B4650465946CDE90089A3
S21440162000F060FE0B46024606460F4640464946D8
S21440163000F0A6FCC04B994204460D468A4640F34D
S214401640168101F13F4303F5E003034340F0EA818E
S214401650A3A3D3E90023DDE9000100F091FC324664
S214401660804689463B462046294600F087FC02468F
S2144016700B464046494601F0C5F8002840F0D28166
S214401680A8464FEA28534FF48012A3F2FE3342FA9C
S21440169003F35344C3F30A52A84DA2F2FF32154156
S2144016A0C3F3130423EA05010020C2F1140B44F4EB
S2144016B08014BAF1000F02460B4644FA0BFB304644
S2144016C03946B8BFCBF1000B00F058FC02460B463B
S2144016D006460F46DDE9000100F052FC4FEA0B5A81
S2144016E00D46002480A3D3E900232046294600F077
S2144016F0F9FD3246804689463B462046294600F05C
S2144017003DFC02460B46DDE9000100F037FC78A3BD
S214401710D3E9002300F0E6FD77A3D3E9002306468D
S2144017200F462046294600F0DDFD02460B46304671
S214401730394600F025FC06460F4602460B46404614
S214401740494600F01DFC42464B4604460D4600F016
S21440175015FC02460B463046394600F00FFC224642
S214401760804689462B462046294600F0BBFD64A3AA
S214401770D3E9002306460F4600F0B4FD62A3D3E942
S214401780002300F0FBFB32463B4600F0ABFD60A377
S214401790D3E9002300F0F4FB32463B4600F0A2FDBE
S2144017A05DA3D3E9002300F0E9FB32463B4600F058
S2144017B099FD5BA3D3E9002300F0E2FB32463B46AB
S2144017C000F090FD02460B462046294600F0D6FB28
S2144017D006460F4602460B462046294600F082FD46
S2144017E00022CDE900014FF080433046394600F0F4
S2144017F0C5FB02460B46DDE9000100F09DFE424671
S21440180006460F464B462046294600F06BFD4246AC
S2144018104B4600F0B5FB02460B463046394600F0D4
S214401820ADFB22462B4600F0A9FB02460B460020A5
S2144018303F4900F0A3FB8A44BAF5801FC0F23381CB
S2144018405146DDE9042300F04DFD5BE44246404648
S2144018504B46494600F046FD54E4BAF1000FBFF649
S214401860E0ACDDE90034184604F100414AE4344B6C
S21440187021F00048984540F3F280324B0B44034336
S2144018800CD132463B4600F079FB02460B46DDE97A
S214401890000100F0A3FF00283FF4F3AEDDE90401A9
S2144018A021A3D3E9002300F01DFD1FA3D3E90023A5
S2144018B000F018FD26E402460B4600201C4900F0C6
S2144018C03BFE3CE400220023CDE90823CDE90E236D
S2144018D0174B00220027CDE90623E6E4AFF300804D
S2144018E0FE822B654715973C00000000432EE63FDE
S2144018F0EF39FAFE422EE63F396CA80C615C20BEFA
S214401900D0A4BE726937663EF16BD2C541BDBB3EC0
S2144019102CDE25AF6A56113F93BDBE166CC1663F9E
S2144019203E5555555555C53F59F3F8C21F6EA5014E
S2144019300000F03F0000F0BFFFFF8F40FFFF0F00AA
S214401940FFCB904000346F3F6B4B9E427FF766ACB8
S2144019506A4B9E423FF713AC0022684B00F00EFBEA
S21440196057A3D3E9002306460F4600F0BBFC56A318
S214401970D3E90023804689463046394600F0B2FC1B
S214401980002282468B465E4B3046394600F0AAFC23
S21440199002460B464EA1D1E9000100F0EFFA32466E
S2144019A03B4600F09FFC02460B460020554900F09F
S2144019B0E5FA3246CDE902013B463046394600F06C
S2144019C091FC02460B46DDE9020100F08BFC42A387
S2144019D0D3E9002300F086FC02460B4650465946A3
S2144019E000F0CCFA02460B4606460F4640464946AD
S2144019F000F0C6FA42464B46002082468B4600F030
S214401A00BDFA02460B463046394600F0B7FA8046E5
S214401A108946D4E542464B460020384900F08CFDC6
S214401A20FFF770BBDDE904012DA3D3E9002300F0E6
S214401A3059FC2BA3D3E9002300F054FCFFF762BB0C
S214401A40BEF1000F7FF469ABC3F1140347FA03F20B
S214401A5002FA03F39F422AD07446FFF736BB294B5F
S214401A6098453FF70EAEDDE902239246934638E6A8
S214401A7002460B4600F082FA02460B4600F05CFD3A
S214401A80FFF740BB18A3D3E90023CDE9082318A3EA
S214401A90D3E90023CDE90E231B4B00224FF48027C9
S214401AA0CDE9062301E45A4600F0DEF9C9E602F025
S214401AB00102C2F10204FFF708BB00BFAFF300808B
S214401AC0000000604715F73F44DF5DF80BAE543E1C
S214401AD0555555555555D53FFE822B654715F73F0D
S214401AE09C7500883CE4377E0000004003B8E23F27
S214401AF006D0CF43EBFD4C3EFEFFEF3F0000F03FED
S214401B000000D03F0000E03F0000F83F2DE9F843DA
S214401B105B4F8F4305460C4600F0928000290B46EB
S214401B2002466FDD0F157BD0A7F2FF37C3F31303D2
S214401B30F80743F480135CD403EBD27100260B44C1
S214401B407F105200B64616204FF400110EEB0104EB
S214401B509C424FEAD2754FEA420203DC1B1B04EB61
S214401B60010E0E44013805EB43034FEA5101EDD117
S214401B70844620244FF0004109E020D003EBD27584
S214401B80013C4FEA51012B444FEA420220D07345B4
S214401B9001EB0C05F1DD002D05EB010C09DBF046F1
S214401BA09542A3EB0E0300D9013B521B0844C646A0
S214401BB0E4E7BCF1000FF2DB0EF10108F0E79542D6
S214401BC0DCD8002D05EB010C44DB98460023ECE7FF
S214401BD0134313D14008731003F17F5303F50013EA
S214401BE0F20703EB075948BF40F000404946BDE8BE
S214401BF0F8835B0003EBD27352009DE7411C2DD067
S214401C000130E7E7064621F000473E43EFD069BB88
S214401C100F46D30A153F5205002BFAD0DE0220D4D9
S214401C20002400E004465B00DD0204F10100F9D523
S214401C30C0F1200122FA01F10B433F1B824073E7BB
S214401C4002460B4600F04EFB2A46234600F098F923
S214401C50BDE8F883BCF1000FAEDAB6E701362046A1
S214401C60B9E7002020214FF0FF34E3E702460B4659
S214401C7000F084F902460B4600F05EFCB7E700BF72
S214401C800000F07F20F00042B2F1FF4FF8B5044666
S214401C902ED262B3002803463DDBB2F5000F4FEA72
S214401CA0E0502CD37F38C3F3160343F40003C20737
S214401CB048BF5B00002647105B00314619244FF0B2
S214401CC080728D189D4202DC5B1BA9181644013CAD
S214401CD04FEA43034FEA5202F3D113B1013626F0DE
S214401CE00106701000F17C5000EBC750F8BDF8BDFF
S214401CF0014600F025FF214600F01AFEF8BD14F418
S214401D00000201D00EE00A465B001C0202F101010F
S214401D10F9D5801AC6E7014600F008FE014600F0F5
S214401D20C3FFF8BD4FF0FF32F3E700BF21F000419C
S214401D30704700BF41F0004101F58010C00F70476A
S214401D400020704700200149704700BF0000F87F20
S214401D50F0B5C1F30A5EAEF2FF36132E83B00246EC
S214401D600B460C464FEAD17507462EDC002E49DB63
S214401D703A49314103EA010010432BD049080B4051
S214401D8053EA02070CD04FF48023132E24EA0101B5
S214401D9043FA06F444EA01040CBF4FF0004700271C
S214401DA02F4B03EBC5052146D5E90045384622466C
S214401DB02B4600F0E5F8CDE9000122462B46DDE94A
S214401DC0000100F0DBF803B0F0BD332E06DDB6F5BB
S214401DD0806F40D01046194603B0F0BDAEF2134EA9
S214401DE04FF0FF3121FA0EF10842F3D0490808427D
S214401DF0D6D04FF0804320EA010143FA0EFE4EEA69
S214401E000107CDE721F000410143E3D0C3F31301BE
S214401E10134E0143C1F1000C06EBC506D6E9006738
S214401E204CEA010C4FEA1C3C5C0C64040CF40023A6
S214401E3043EA040132463B4600F0A2F8CDE90001F1
S214401E4032463B46DDE9000100F098F821F00044B8
S214401E5044EAC571C0E700F093F8BDE7FFFF0F0006
S214401E606031400000000000F8B5C1F30A56044651
S214401E700D460B4617460EBB21F0004303438646ED
S214401E8025D00022344B00F02DFA344A97420446BF
S214401E900D460B462ADBC1F30A56363E3E4440F218
S214401EA0FE72964228DC002E12DD23F0FF4323F418
S214401EB0E00343EA065520462946F8BD40F2FF7245
S214401EC09642EBD102460B4600F05AF8F8BDF8BDF4
S214401ED016F1350F1DDA4CF250339F4222462B4600
S214401EE025DC19A1D1E9000100F03CF816A3D3E99E
S214401EF0002300F0F7F9F8BD22462B4614A1D1E99D
S214401F00000100F02FF812A3D3E9002300F0EAF90D
S214401F10F8BD23F0FF4323F4E003363643EA065584
S214401F202046294600220E4B00F0DCF9F8BD08A1F9
S214401F30D1E9000100F016F805A3D3E9002300F02C
S214401F40D1F9F8BDAFF3008059F3F8C21F6EA50172
S214401F509C7500883CE4377E00005043B03CFFFF51
S214401F600000903C03F0004321F0004242EA0301A7
S214401F70704700BF81F0004102E000BF83F000439D
S214401F8030B54FEA41044FEA430594EA050F08BFCF
S214401F9090EA020F1FBF54EA000C55EA020C7FEA93
S214401FA0645C7FEA655C00F0E2804FEA5454D4EB10
S214401FB05555B8BF6D420CDD2C4480EA020281EADA
S214401FC0030382EA000083EA010180EA020281EA12
S214401FD00303362D88BF30BD11F0004F4FEA013164
S214401FE04FF4801C4CEA113102D0404261EB410173
S214401FF013F0004F4FEA03334CEA133302D05242F9
S21440200063EB430394EA050F00F0A780A4F10104B4
S214402010D5F1200E0DDB02FA0EFC22FA05F28018EE
S21440202041F1000103FA0EF2801843FA05F35941D4
S2144020300EE0A5F120050EF1200E012A03FA0EFC53
S21440204028BF4CF0020C43FA05F3C01851EBE3717D
S21440205001F0004507D54FF0000EDCF1000C7EEB9A
S21440206000006EEB0101B1F5801F1BD3B1F5001FD8
S2144020700CD349085FEA30004FEA3C0C04F10104F7
S2144020804FEA445212F5800F80F09A80BCF1004F20
S21440209008BF5FEA500C50F1000041EB045141EAA2
S2144020A0050130BD5FEA4C0C404141EB010111F4A3
S2144020B0801FA4F10104E9D191F0000F04BF01464E
S2144020C00020B1FA81F308BF2033A3F10B03B3F12C
S2144020D020020CDA0C3208DD02F1140CC2F10C02BC
S2144020E001FA0CF021FA02F10CE002F11402D8BF1A
S2144020F0C2F1200C01FA02F120FA0CFCDCBF41EAE6
S2144021000C019040E41AA2BF01EB0451294330BDB4
S2144021106FEA04041F3C1CDA0C340EDC04F1140491
S214402120C4F1200220FA04F001FA02F340EA030068
S21440213021FA04F345EA030130BDC4F10C04C4F1AE
S214402140200220FA02F001FA04F340EA030029468E
S21440215030BD21FA04F0294630BD94F0000F83F4D8
S214402160801306BF81F480110134013D4EE77FEABB
S214402170645C18BF7FEA655C29D094EA050F08BF07
S21440218090EA020F05D054EA000C04BF19461046E8
S21440219030BD91EA030F1EBF0021002030BD5FEA2C
S2144021A0545C05D14000494128BF41F0004130BD54
S2144021B014F580043CBF01F5801130BD01F00045A8
S2144021C045F0FE4141F470014FF0000030BD7FEA1B
S2144021D0645C1ABF194610467FEA655C1CBF0B4616
S2144021E0024650EA013406BF52EA033591EA030F2D
S2144021F041F4002130BD00BF90F0000F04BF002125
S214402200704730B54FF4806404F132044FF0000557
S2144022104FF0000150E700BF90F0000F04BF0021D0
S214402220704730B54FF4806404F1320410F0004536
S21440223048BF40424FF000013EE700BF42004FEA31
S214402240E2014FEA31014FEA02701FBF12F07F43AE
S21440225093F07F4F81F06051704792F0000F14BFAB
S21440226093F07F4F704730B54FF4607401F00045EF
S21440227021F0004120E700BF50EA010208BF704746
S21440228030B54FF000050AE050EA010208BF70473B
S21440229030B511F0004502D5404261EB41014FF4A4
S2144022A0806404F132045FEA915C3FF4DCAE4FF0A8
S2144022B003025FEADC0C18BF03325FEADC0C18BF8F
S2144022C0033202EBDC02C2F1200300FA03FC20FAE0
S2144022D002F001FA03FE40EA0E0021FA02F114442D
S2144022E0C1E600BF70B54FF0FF0C4CF4E06C1CEA42
S2144022F011541DBF1CEA135594EA0C0F95EA0C0FB7
S21440230000F0DEF82C4481EA030621EA4C5123EA29
S2144023104C5350EA013518BF52EA033541F4801158
S21440232043F4801338D0A0FB02CE4FF00005E1FB0B
S21440233002E506F00042E0FB03E54FF00006E1FB55
S21440234003569CF0000F18BF4EF0010EA4F1FF0498
S214402350B6F5007F64F5407404D25FEA4E0E6D41D8
S21440236046EB060642EAC62141EA55514FEAC520E9
S21440237040EA5E504FEACE2EB4F1FD0C88BFBCF565
S214402380E06F1ED8BEF1004F08BF5FEA500E50F116
S214402390000041EB045170BD06F0004646EA0101DC
S2144023A040EA020081EA0301B4EB5C04C2BFD4EB0E
S2144023B00C0541EA045170BD41F480114FF0000E07
S2144023C0013C00F3AB8014F1360FDEBF002001F075
S2144023D0004170BDC4F10004203C35DA0C341BDCEF
S2144023E004F11404C4F1200500FA05F320FA04F0C1
S2144023F001FA05F240EA020001F0004221F00041F5
S21440240010EBD37021FA04F642EB06015EEA430E67
S21440241008BF20EAD37070BDC4F10C04C4F1200597
S21440242000FA04F320FA05F001FA04F240EA02004A
S21440243001F0004110EBD37041F100015EEA430E1B
S21440244008BF20EAD37070BDC4F1200500FA05F23B
S2144024504EEA020E20FA04F301FA05F243EA0203BA
S21440246021FA04F001F0004121FA04F220EA0200C9
S21440247000EBD3705EEA430E08BF20EAD37070BD0F
S21440248094F0000F0FD101F00046400041EB0101EF
S21440249011F4801F08BF013CF7D041EA060195F0D1
S2144024A0000F18BF704703F00046520043EB03038B
S2144024B013F4801F08BF013DF7D043EA0603704778
S2144024C094EA0C0F0CEA135518BF95EA0C0F0CD083
S2144024D050EA410618BF52EA4306D1D181EA0301C9
S2144024E001F000414FF0000070BD50EA410606BFC3
S2144024F01046194652EA430619D094EA0C0F02D108
S21440250050EA013613D195EA0C0F05D152EA03364C
S2144025101CBF104619460AD181EA030101F000416A
S21440252041F0FE4141F470014FF0000070BD41F0B3
S214402530FE4141F4780170BD70B54FF0FF0C4CF48D
S214402540E06C1CEA11541DBF1CEA135594EA0C0FAC
S21440255095EA0C0F00F0A7F8A4EB050481EA030EF9
S21440256052EA03354FEA013100F088804FEA0333E0
S2144025704FF0805545EA131343EA12634FEA0222AE
S21440258045EA111545EA10654FEA00260EF000416F
S2144025909D4208BF964244F1FD0404F5407402D2C1
S2144025A05B084FEA3202B61A65EB03055B084FEA52
S2144025B032024FF480104FF4002CB6EB020E75EB4F
S2144025C0030E22BFB61A754640EA0C005B084FEA77
S2144025D03202B6EB020E75EB030E22BFB61A7546F4
S2144025E040EA5C005B084FEA3202B6EB020E75EB3F
S2144025F0030E22BFB61A754640EA9C005B084FEAB7
S2144026003202B6EB020E75EB030E22BFB61A7546C3
S21440261040EADC0055EA060E18D04FEA051545EAB2
S21440262016754FEA06164FEAC30343EA52734FEA5B
S214402630C2025FEA1C1CC0D111F4801F0BD141EAD4
S21440264000014FF000004FF0004CB6E711F4801F39
S21440265004BF01430020B4F1FD0C88BFBCF5E06F19
S2144026603FF6AFAEB5EB030C04BFB6EB020C5FEA29
S214402670500C50F1000041EB045170BD0EF0004E7E
S2144026804EEA113114EB5C04C2BFD4EB0C0541EAB0
S214402690045170BD41F480114FF0000E013C90E6AD
S2144026A045EA060E8DE60CEA135594EA0C0F08BF71
S2144026B095EA0C0F3FF43BAF94EA0C0F0AD150EA70
S2144026C001347FF434AF95EA0C0F7FF425AF104603
S2144026D019462CE795EA0C0F06D152EA03353FF42B
S2144026E0FDAE1046194622E750EA410618BF52EAA8
S2144026F043067FF4C5AE50EA41047FF40DAF52EA7C
S21440270043057FF4EBAE12E74FF0FF3C06E000BF18
S2144027104FF0010C02E000BF4FF0010C4DF804CD25
S2144027204FEA410C7FEA6C5C4FEA430C18BF7FEAE5
S2144027306C5C1BD001B050EA410C0CBF52EA430C13
S21440274091EA030F02BF90EA020F0020704710F193
S214402750000F91EA030F58BF994208BF90422CBF22
S214402760D8176FEAE37040F0010070474FEA410C1B
S2144027707FEA6C5C02D150EA013C07D14FEA430C39
S2144027807FEA6C5CD6D152EA033CD3D05DF8040BAA
S214402790704700BF8446104662468C4619466346DC
S2144027A000E000BF01B5FFF7B7FF002848BF10F1B3
S2144027B0000F01BD4DF808EDFFF7F4FF0CBF0120F8
S2144027C000205DF808FB00BF4DF808EDFFF7EAFF74
S2144027D034BF012000205DF808FB00BF4DF808ED2F
S2144027E0FFF7E0FF94BF012000205DF808FB00BF24
S2144027F04DF808EDFFF7CEFF94BF012000205DF8AE
S21440280008FB00BF4DF808EDFFF7C4FF34BF0120BA
S21440281000205DF808FB00BF4FEA410C7FEA6C5C85
S21440282002D150EA013C0AD14FEA430C7FEA6C5C85
S21440283002D152EA033C02D14FF0000070474FF0FD
S214402840010070474A0011D212F5001211D20DD580
S2144028506FF47873B3EB62520ED44FEAC12343F061
S214402860004343EA505323FA02F070474FF000000B
S214402870704750EA013002D14FF0FF3070474FF0BA
S214402880000070474FEA4102B2F1E04324BFB3F57F
S214402890001CDCF1FE5C0DD901F0004C4FEAC00292
S2144028A04CEA5070B2F1004F40EB830008BF20F076
S2144028B00100704711F0804F21D113F13872BCBF30
S2144028C001F00040704741F480114FEA5252C2F185
S2144028D01802C2F1200C10FA0CF320FA02F018BFCE
S2144028E040F001004FEAC1234FEAD32303FA0CFC21
S2144028F040EA0C0023FA02F34FEA4303CCE77FEAB0
S214402900625307D150EA01331EBF4FF0FE4040F4F9
S2144029104000704701F0004040F0FE4040F40000A8
S214402920704700BF80F0004002E000BF81F00041E9
S21440293042001FBF5FEA410392EA030F7FEA226C20
S2144029407FEA236C6AD04FEA1262D2EB1363C1BFB0
S214402950D218414048404140B8BF5B42192B88BF1F
S214402960704710F0004F40F4000020F07F4018BF42
S214402970404211F0004F41F4000121F07F4118BF62
S214402980494292EA030F3FD0A2F1010241FA03FC0A
S21440299010EB0C00C3F1200301FA03F100F00043F2
S2144029A002D5494260EB4000B0F5000F13D3B0F1BA
S2144029B0807F06D340084FEA310102F10102FE2A29
S2144029C051D2B1F1004F40EBC25008BF20F0010099
S2144029D040EA03007047490040EB000010F4000F47
S2144029E0A2F10102EDD1B0FA80FCACF1080CB2EBDA
S2144029F00C0200FA0CF0AABF00EBC2505242184339
S214402A00BCBFD0401843704792F0000F81F40001DD
S214402A1006BF80F400000132013BB5E74FEA4103B0
S214402A207FEA226C18BF7FEA236C21D092EA030F1C
S214402A3004D092F0000F08BF0846704790EA010F96
S214402A401CBF0020704712F07F4F04D1400028BFC3
S214402A5040F00040704712F100723CBF00F50000A5
S214402A60704700F0004343F0FE4040F400007047DB
S214402A707FEA226216BF08467FEA23630146420287
S214402A8006BF5FEA412390EA010F40F4800070479A
S214402A904FF0000304E000BF10F0004348BF404240
S214402AA05FEA000C08BF704743F0964301464FF07C
S214402AB000001CE050EA010208BF70474FF00003D8
S214402AC00AE000BF50EA010208BF704711F0004319
S214402AD002D5404261EB41015FEA010C02BF8446E9
S214402AE00146002043F0B64308BFA3F18053A3F548
S214402AF00003BCFA8CF2083AA3EBC25310DB01FA8F
S214402B0002FC634400FA02FCC2F12002BCF1004F12
S214402B1020FA02F243EB020008BF20F001007047A3
S214402B2002F1200201FA02FCC2F1200250EA4C00F7
S214402B3021FA02F243EB020008BF20EADC7070473D
S214402B404FF0FF0C1CEAD0521EBF1CEAD15392EA4B
S214402B500C0F93EA0C0F6FD01A4480EA010C400227
S214402B6018BF5FEA41211ED04FF0006343EA501081
S214402B7043EA5111A0FB01310CF00040B1F5000FC3
S214402B803EBF490041EAD3715B0040EA010062F172
S214402B907F02FD2A1DD8B3F1004F40EBC25008BF5C
S214402BA020F00100704790F0000F0CF0004C08BF7A
S214402BB049024CEA502040EA51207F3AC2BFD2F147
S214402BC0FF0340EAC250704740F400004FF0000355
S214402BD0013A5DDC12F1190FDCBF00F0004070478F
S214402BE0C2F10002410021FA02F1C2F1200200FACD
S214402BF002FC5FEA310040F1000053EA4C0308BF94
S214402C0020EADC70704792F0000F00F0004C02BFE4
S214402C10400010F4000F013AF9D040EA0C0093F05F
S214402C20000F01F0004C02BF490011F4000F013BB9
S214402C30F9D041EA0C018FE70CEAD15392EA0C0F27
S214402C4018BF93EA0C0F0AD030F0004C18BF31F092
S214402C50004CD8D180EA010000F00040704790F068
S214402C60000F17BF90F0004F084691F0000F91F00C
S214402C70004F14D092EA0C0F01D142020FD193EAD2
S214402C800C0F03D14B0218BF084608D180EA01005A
S214402C9000F0004040F0FE4040F40000704740F036
S214402CA0FE4040F4400070474FF0FF0C1CEAD05204
S214402CB01EBF1CEAD15392EA0C0F93EA0C0F69D060
S214402CC0A2EB030280EA010C49024FEA402037D0CB
S214402CD04FF0805343EA111143EA10130CF00040C2
S214402CE08B4238BF5B0042F17D024FF4000C8B42B2
S214402CF024BF5B1A40EA0C00B3EB510F24BFA3EB92
S214402D00510340EA5C00B3EB910F24BFA3EB910361
S214402D1040EA9C00B3EBD10F24BFA3EBD10340EABB
S214402D20DC001B0118BF5FEA1C1CE0D1FD2A3FF601
S214402D3050AF8B4240EBC25008BF20F001007047B6
S214402D400CF0004C4CEA50207F32C2BFD2F1FF0359
S214402D5040EAC250704740F400004FF00003013A8A
S214402D6037E792F0000F00F0004C02BF400010F42E
S214402D70000F013AF9D040EA0C0093F0000F01F042
S214402D80004C02BF490011F4000F013BF9D041EA64
S214402D900C0195E70CEAD15392EA0C0F08D1420297
S214402DA07FF47DAF93EA0C0F7FF470AF084676E76A
S214402DB093EA0C0F04D14B023FF44CAF08466EE743
S214402DC030F0004C18BF31F0004CCAD130F0004211
S214402DD07FF45CAF31F000437FF43CAF5FE700BF69
S214402DE04FF0FF3C06E000BF4FF0010C02E000BF92
S214402DF04FF0010C4DF804CD4FEA40024FEA410334
S214402E007FEA226C18BF7FEA236C11D001B052EAE9
S214402E10530C18BF90EA010F58BFB2EB030088BFAF
S214402E20C81738BF6FEAE17018BF40F0010070471E
S214402E307FEA226C02D15FEA402C05D17FEA236C00
S214402E40E4D15FEA412CE1D05DF8040B704700BF47
S214402E50844608466146FFE70FB5FFF7C9FF0028DE
S214402E6048BF10F1000F0FBD4DF808EDFFF7F4FF17
S214402E700CBF012000205DF808FB00BF4DF808EDB0
S214402E80FFF7EAFF34BF012000205DF808FB00BFD3
S214402E904DF808EDFFF7E0FF94BF012000205DF8F5
S214402EA008FB00BF4DF808EDFFF7D2FF94BF0120A6
S214402EB000205DF808FB00BF4DF808EDFFF7C8FF9F
S214402EC034BF012000205DF808FB00BF4FEA4002F7
S214402ED04FEA41037FEA226C02D15FEA402C08D1D8
S214402EE07FEA236C02D15FEA412C02D14FF000000A
S214402EF070474FF00100704742000ED2B2F1FE4FCD
S214402F000BD34FF09E03B3EB126209D44FEA002373
S214402F1043F0004323FA02F070474FF0000070473A
S214402F2012F1610F01D1420202D14FF0FF307047DB
S214402F304FF00000704700BF014B1868704700BF55
S214402F400C00002070B50F4E0F4D761BB61018BF04
S214402F50002405D0013455F8043B9847A642F9D1E1
S214402F600A4E0B4D761B00F005F9B61018BF00242C
S214402F7006D0013455F8043B9847A642F9D170BDB7
S214402F8070BD00BF80314000803140008831400035
S214402F908031400070B4860746D0541E002A41D087
S214402FA0CAB2034602E014F1FF343BD303F8012BC8
S214402FB09D07F8D1032C2ED9CDB245EA05250F2C16
S214402FC045EA054519D903F110022646103E0F2E54
S214402FD042F8105C42F80C5C42F8085C42F8045C2C
S214402FE002F11002F2D8A4F1100222F00F0204F00F
S214402FF00F041032032C13440DD91E462246043AC1
S214403000032A46F8045BFAD8221F22F00302043251
S214403010134404F003042CB1C9B21C4403F8011B4A
S2144030209C42FBD170BC704714460346C2E700BFC3
S214403030024B13B1024800F005B87047000000008C
S21440304051304000002301461A46184600F01EB88C
S21440305038B50A4C0A4D641BA4100AD004F18043CC
S214403060013B05EB8305013C55F804399847002C95
S214403070F9D1BDE8384000F087B800BF983140002D
S21440308094314000704700BF704700BF2DE9F843B9
S2144030902C4D0646286898460F469146FFF7F2FFA5
S2144030A0294B1C68D4F84831002B3ED05A681F2A5A
S2144030B01CDC02F1010E76B103EB82010124C1F85B
S2144030C08890D3F8880194402043022EC3F88801A4
S2144030D0C1F8088123D00232C3F804E0286843F8D8
S2144030E02270FFF7D1FF0020BDE8F883174B0BB3E3
S2144030F04FF4C870AFF300800346D8B1D4F84821E7
S2144031000260002141600A46C4F848014FF0010EB3
S214403110C0F88811C0F88C11002EDCD0CCE7D3F86C
S2144031208C110C43C3F88C41D5E704F5A673C4F85C
S2144031304831BBE72868FFF7A7FF4FF0FF30BDE8F0
S214403140F88300BF380400207031400000000000C3
S214403150706F7700737172746600000000000000A4
S214403160000000000000304300000000000030C3B4
S21440317010000020F8B500BFF8BC08BC9E4670475B
S21440318031304000F1004000F8B500BFF8BC08BC44
S20C4031909E467047CD0040004A
S21440319800093D00FFFFFFFFFFFF01001000002071
S2144031A800000000FC02002064030020CC0300203E
S2144031B800000000000000000000000000000000C2
S2144031C800000000000000000000000000000000B2
S2144031D800000000000000000000000000000000A2
S2144031E80000000000000000000000000000000092
S2144031F80000000000000000000000000000000082
S2144032080000000000000000000000000000000071
S2144032180000000000000000000000000000000061
S2144032280000000000000000000000000000000051
S2144032380000000000000000000000000000000041
S2144032480000000000000000010000000000000030
S2144032580E33CDAB34126DE6ECDE05000B000000F5
S2144032680000000000000000000000000000000011
S2144032780000000000000000000000000000000001
S21440328800000000000000000000000000000000F1
S21440329800000000000000000000000000000000E1
S2104035C800000000000000005C2D002009
S804400000BB
