:020000040040BA
:10000000B00900203D0140003901400039014000A5
:100010003901400039014000390140000000000072
:100020000000000000000000000000003901400056
:100030003901400000000000390140003901400052
:1000400039014000390140003901400039014000C8
:100050003901400039014000390140000000000032
:10006000A9074000390140000000000039014000AC
:100070003901400000000000390140003901400012
:10008000000000000000000039014000390140007C
:100090003901400039014000390140003901400078
:1000A000390140003901400000000000000000005C
:1000B00000000000390140003901400039014000D2
:1000C00039014000390140003901400010B5054CAC
:1000D000237833B9044B13B10448AFF300800123F4
:1000E000237010BD8404002000000000682F400031
:1000F0000C4B43B10C480D4910B5AFF300800C48D0
:10010000036823B910BD0A48036833B97047094B27
:10011000002BF7D0BDE810401847064B002BF5D058
:10012000184700BF00000000682F4000880400202E
:10013000682F400000000000FEE7000008B50F4AED
:100140000F4B9A420ED10F4B0F4A0021934212D30C
:100150000E4B0F4A23F07F0393600E4B98470E4BD4
:100160009847FEE70D49043A8B42ECD252F8040F4F
:1001700043F8040BF8E743F8041BE7E7682F400057
:100180000000002084040020B00500200000400092
:1001900000ED00E0B92D4000450640008404002039
:1001A00070B5494C4FF400456560A4F52564474D92
:1001B00025600128A4F5B3643ED00FD3022852D0A5
:1001C0000AB1002B60D1424B01221A60414A424BD6
:1001D0004A431A6023681B07FCD570BD3F48404E58
:1001E0000568354305603F4D2E622568AD03FCD59B
:1001F00004293D4E08D0082917D00568354045F43C
:100200005C1545F0200503E00568354045F45C15B4
:1002100005602568AE03FCD5056825F09B7525F4BF
:10022000803545F45C150560CAE70568354045F43E
:100230005C1545F01005EBE728482C4D0668354362
:1002400005602568ED07FCD5056845F09B7545F40C
:10025000803505602568EE03FCD5056825F45C153E
:1002600025F00805DDE71D48056845F45C1545F0F7
:1002700002050560056845F09B7545F4803505600D
:100280002568ED03FCD5E8E7DFF868E0184EDEF8F6
:100290000050501E06EA004645F0005040F47C50E5
:1002A00018433043CEF8000020688007FCD512FBCD
:1002B00001F292FBF3F3074A05485343064A02252D
:1002C0000560136086E700BF50140E40000700046D
:1002D00030040E4040420F000000002020040E4079
:1002E0000800370000040E408FFFC8FF01FF3700F1
:1002F0000000FF0728040E40154A136843F400432A
:100300001360A2F5CA62A2F6F412D2F8F43943F4EB
:10031000C063C2F8F439136843F4807313600D4B63
:1003200000011B68B3FBF0F00B4B4FF40062186048
:1003300043F81C2C094A136843F050031360936878
:1003400043F001039360064B4FF480721A607047CC
:1003500054140E400000002020060E4000060E40FF
:1003600000E100E0044A13689B07FCD5034B1A68C0
:1003700010431860704700BF14060E401C060E4064
:10038000044A136818431060143A13685B07FCD5DD
:10039000704700BF348001400F4A136843F40023C4
:1003A0001360D2F8F43943F01803C2F8F4390B4A59
:1003B0004FF47A7343431068B0FBF3F00438C0087D
:1003C0000302C0B29BB240F440301843044B2422D5
:1003D000186043F8102C704710040E4000000020F5
:1003E00010800140054B064A000400F4FE0018602E
:1003F000136843F001031360704700BF048001409D
:1004000000800140024A136843F002031360704702
:1004100000800140000000001D4B1A6842F03002CD
:1004200070B51A601A681B4E1B4D42F0C0021A606C
:100430001A4A136843F480731360194B2C681868C8
:10044000184B984710A3D3E90023B0470022164B5E
:10045000164EB047164B9847C0B2164A44EA0024DD
:100460002C60136843F0F003136002F5282202F5B4
:100470007B72136843F0005313600F4A136843F014
:100480000803136070BD00BF0000000080843E417F
:1004900010800340C923400004800340948003403F
:1004A00000000020892040000000F03F0D1E4000A9
:1004B0002527400024800340008003402DE9F84FA9
:1004C000354B1A790020187058709870D8701C46F7
:1004D000002A50D19868DFF8D8B0DFF8D8A02F4FA5
:1004E0002F4E304DD8478046BAF800008946B847AD
:1004F00000222D4BB04702460B4640464946A847CE
:1005000008B101236370E068D8478046BAF802005A
:100510008946B8470022244BB04702460B46404666
:100520004946A84708B10123A3702069D8478046EF
:10053000BAF804008946B84700221B4BB047024670
:100540000B4640464946A84708B10123E37063784B
:100550001BB9A2780AB9E278DAB114494A6B42F4BD
:1005600080124A63A2789B0043EA4203E278134375
:100570002370BDE8F88FC2F38011D4099970490047
:10058000C2F3401241EA8401DA700A435C701A70C7
:100590001871BDE8F88F00BFA0040020A92040001A
:1005A000C92340009526400000005940000E0E402F
:1005B000CD20400004000020F8B5174C174B6569AA
:1005C000A66928463146984788B1154BA360A068B4
:1005D000144B154C98470EA3D3E90023A0470022E3
:1005E000124BA047124B9847124BD880F8BD2946B2
:1005F000114B2846984731460746104B28469847E6
:100600000F4B014638469847A060E0E7AFF3008003
:100610007B14AE47E17A3440A0040020492D40000D
:1006200071FD4743CD204000752140000000594036
:100630002527400004000020112840000D2840001C
:10064000892B40002DE9F84302230F221021184680
:100650004A4C4B4D4B4EA0474FF4C8704A4B9847FD
:100660004A4B98474A4B4FF496409847494B1A6972
:1006700042F410021A615A6B42F410025A632C467B
:100680002B7F002B78D04FF48073C6F88030BFF3F7
:100690004F8FBFF36F8F697F042959D0072964D02A
:1006A00002294FD13C4B3D4F01209847A87FC00005
:1006B00040F0020000F0FA00B8470023A17F8B420F
:1006C00013DA03EBC308591C5FFA88F801EBC10980
:1006D000C84508DA04EB080308F10108D87FB847D9
:1006E0005FFA88F8F4E7CBB2E8E701EBC101C9B2E1
:1006F0004FF009084FF00509A37F18FB03938B42C5
:1007000005DB6318D87FB8470131C9B2F4E7244B41
:100710009847A37F234A03EBC3032344D87F93F86E
:10072000201041EA0021118093F8210093F8221053
:1007300041EA0021518093F8231093F8243043EAD2
:1007400001239380002323774FF48073336097E76E
:100750000120114B984795F87F001049884795F87C
:10076000800088470E4B9847ECE701200A4B9847DA
:100770000A4B08469847F5E700BF81E7A101400012
:10078000A004002000E100E09903400019044000AB
:10079000F9024000000E0E40E503400081034000D6
:1007A00005044000040000202DE9F04F2B4B1B688E
:1007B000DD0789B022D52A4B19682A4B93F882406D
:1007C000C8B283F881001A46FCB15A7F022A18D1B8
:1007D00093F883209C7F99180132C877062009215D
:1007E000D2B211FB04018A4283F8832006D1002291
:1007F00083F8832083F8822001221A7709B0BDE8AC
:10080000F08F83F880000022F4E700F007035377AD
:10081000013B062B08D8DFE813F00E0014002B0074
:100820002D023302350237020F4A136B43F40003E3
:1008300013630E4B1AE20C4A536B43F400035363E9
:10084000F7E7094C236B43F480132363C1F3C4011E
:100850000123917782F88230EBE700BF14060E4047
:1008600018060E40A0040020000E0E406503400054
:10087000994A136843F0020313603032134611683B
:10088000CC06FCD51A689006FCD51A685106FCD532
:100890001A681206FCD5904B904C186E904BDFF8FE
:1008A0006CB2904DDFF868A2DFF86882DFF86892DA
:1008B00080B2984700228C4BA04785A3D3E9002340
:1008C000A0470022894BA047D84786B22E81A8694D
:1008D000D047834BCDE9020130469847844E824B86
:1008E0000022B0470022834B834EB0472B890193EF
:1008F000CDE9040118467A4B7D4E984700227A4B89
:10090000B04702460B466869CDE90623D047DDE9CA
:10091000062306460F4610461946A04702460B46D8
:1009200030463946A047DDE9042306460F46DDE997
:100930000201A04702460B4630463946C0476F4B7E
:100940006B4ECDE902010198984729696C4B984795
:10095000D0470022644BB04702460B46DDE9020156
:10096000C0470646E8680F46D04702460B46304669
:100970003946C047634B9847574BC9F81400586E27
:10098000574B80B298470022574BA04750A3D3E95A
:100990000023A0470022554BA047D84786B2AE831C
:1009A000A869D0474E4BCDE9020130469847504EDA
:1009B0004D4B0022B04700224E4B4F4EB047AB8B01
:1009C0000193CDE904011846454B494E9847002252
:1009D000454BB04702460B466869CDE90623D04730
:1009E000DDE9062306460F4610461946A047024693
:1009F0000B4630463946A047DDE9042306460F463C
:100A0000DDE90201A04702460B4630463946C047A1
:100A10003A4B374ECDE90201019898472969384B86
:100A20009847D0470022304BB04702460B46DDE9DD
:100A30000201C0470646E8680F46D04702460B460B
:100A400030463946C0472F4B294E9847224BC9F8AC
:100A50001800986E224B80B298470022224BA04784
:100A60001BA3D3E90023A0470022204BA047D8476F
:100A700080B2224BE8839847214B696A9847D04758
:100A80000022214BB0470646286A0F46D04702464F
:100A90000B4630463946C0471A4B98470E4BC9F8AB
:100AA0001000D86E0E4B80B2984700220E4BA04724
:100AB00007A3D3E90023A04700220C4BA047D84747
:100AC00086B22E85A86BD04728E000BFAFF3008028
:100AD0006666666666660A400080034075214000CF
:100AE000A920400004000020000059400000303FD1
:100AF000C923400000000840BD0C40007929400097
:100B0000212A40006527400000408F40D526400044
:100B1000CD204000111E4000A00400205C4BCDE918
:100B20000201304698475B4E5B4B0022B0470022E3
:100B30005A4B5B4EB0472B8D0193CDE9040118460B
:100B4000534B544E98470022534BB04702460B4636
:100B5000A0470646686B0F46D04702460B46304614
:100B60003946A047DDE9042306460F46DDE90201C8
:100B7000A04702460B4630463946C047494B454ED2
:100B8000CDE9020101989847296B474B9847D04718
:100B90000022414BB04702460B46DDE90201C04747
:100BA0000646E86A0F46D04702460B4630463946AD
:100BB000C0473E4B3E4E98473E4BC9F80C00984705
:100BC000E888000AB047A879B047D9F80C00D047A8
:100BD0000022314BA047D847C0F30720B047D9F8CF
:100BE0000C00D04700222C4BA047D847C0B2B047DA
:100BF000D9F81000D0470022274BA047D847C0F3B0
:100C00000720B047D9F81000D0470022224BA04758
:100C1000D847C0B2B047D9F81400D04700221E4BC5
:100C2000A047D847C0F30720B047D9F81400D047F1
:100C30000022194BA047D847C0B2B047D9F81800D6
:100C4000D0470022144BA047D847C0F30720B04735
:100C5000D9F81800D04700220F4BA047D847C0B2A0
:100C6000B047154B984799F80000334609B0BDE8E6
:100C7000F04F1847012382F8823082F87F00BDE5EB
:100C80001071BBE54B20D4E501231377D1E500BFFC
:100C9000A9204000C923400000005940000008403E
:100CA000BD0C400079294000212A40006527400002
:100CB00065034000B9054000BD0440002DE9F04F38
:100CC000DFF8F0928DB006460F4614461D4600F040
:100CD00073F999F90080B8F1FF3FCDE9000136D0F2
:100CE00022462B462046294601F0DEFC834670BB97
:100CF00032463B463046394601F0D6FC0022824659
:100D00000023002840F0A0803046394601F09AFCCC
:100D100010B3002200232046294601F093FC8346AD
:100D200000286AD001229C4B029200210022CDF8BB
:100D300028A0CDE90467CDE90645CDE90812039363
:100D4000B8F1000F45D0954C0023CDE90034DDE922
:100D500000010DB0BDE8F08FDDE9000100F032FFC9
:100D60008046002800F08B804FF0000A4FF0000B07
:100D700052465B46DDE9000101F064FC0028E6D044
:100D80003046394600F01EFF0028E0D020462946B4
:100D900000F018FF0028DAD099F900307E4A03925B
:100DA00004210022022BCDE90467CDE90645CDE9F7
:100DB00008AB02910A9203D002A800F009FF68B9BB
:100DC00001F0F4FF2223036008E000230024CDE9B2
:100DD000083402A800F0FCFE002830D00A9B1BB1AA
:100DE00001F0E4FF0A9B0360DDE90834CDE900343B
:100DF000DDE900010DB0BDE8F08F2046294600F086
:100E0000E1FE0028A3D0002200232046294601F05D
:100E100023FC00289BD099F900305F4ACDF828B018
:100E20000121CDE90467CDE9064502910392002B2B
:100E3000CBD05B490020022BCDE90801C9D101F0DC
:100E4000B5FF21230360C9E72046294601F0FAFBDC
:100E500000283FF47CAF514B4F49CDF828B001201A
:100E60000022B8F1020FCDE90467CDE906450290F2
:100E70000391CDE90823ACD1CDE9002367E73046E3
:100E8000394600F09FFE00283FF46EAF2046294609
:100E900000F098FE00283FF467AFDDE9002310461C
:100EA000194601F001FC002858D1032399F900806C
:100EB0000293394B0A900393CDE90467CDE90645C7
:100EC0000022002330463946B8F1000F26D1354FB5
:100ED0004FF06046CDE9086701F0BEFB00283FF403
:100EE0006BAF0022304B2046294601F043F90446FF
:100EF0000D4600F075FE02460B462046294601F0DD
:100F0000A1FB40BB294B99F900804FF06042CDE92D
:100F10000823B8F1020F7FF44FAF51E7244F0026AA
:100F2000CDE9086701F098FB0028F2D000221E4BA3
:100F30002046294601F01EF904460D4600F050FEF9
:100F400002460B462046294601F07CFB18B9144B9B
:100F50000022CDE9082399F90080DAE799F9009099
:100F60000D4BCDF828800122CDE90467CDE9064577
:100F700002920393B9F1000F3FF427AF0022002340
:100F80001046194601F020FAB9F1020FCDE9080127
:100F90003FF455AF1DE700BF282F40000000F03F91
:100FA0000000F0FFFFFFEF470000E03FFFFFEFC74B
:100FB0000000F07F500000202DE9F04F23F00047A3
:100FC00057EA020493B037D0674C21F00046A6429E
:100FD00083460D4629DC9A46964625D0A74224DC56
:100FE000614CA74279D0002D89468046CDE9002387
:100FF00077DB0024BEF1000F2CD15B4B9F4200F049
:101000008B805A4B9F4261D0BAF1804F00F0BA8377
:10101000574B9A451ED1002D1CDB4046494613B064
:10102000BDE8F04F00F00EBD58B106F1404606F5A0
:10103000801656EA0B0306D14C49002013B0BDE8D8
:10104000F08FB742CCDD4B4813B0BDE8F04F00F055
:10105000C1BD00244046494600F0B0FDBBF1000F81
:1010600019D126B1414B25F040429A4213D1BAF131
:10107000000FC0F2BC83002DE0DA06F1404606F511
:10108000801656EA040300F08F84012CD6D101F1BA
:1010900000431946D2E7ED0F013D54EA05034ED057
:1010A000354B9F426EDD03F104739F4240F3E883AA
:1010B000324B9E424EDDBAF1000F4EDD28A3D3E93C
:1010C00000231046194601F055F8B7E7BAF1000FB2
:1010D000C0F23C8440464946B0E7BEF1000F82D0E2
:1010E000A3E7274B9F4228DCA3F154739F4280DD86
:1010F0003B15A3F2FF33142B40F33E84C3F13403BA
:101100002EFA03F202FA03F39E457FF472AF02F067
:101110000102C2F102046DE706F1404303F58013BA
:1011200053EA0B0388D0154B9E4240F33283BAF149
:10113000000F12DBDDE9000180E702245AE7424696
:101140004B464046494600F061FE02460B4601F020
:101150003BF973E7BAF1000FB0DB002000216DE727
:101160009C7500883CE4377E0000F07F0000F03F73
:101170000000E03F2C2F40000000E041FFFFEF3F68
:10118000FFFF3F43B6F5801F4FF0000205DAD44B56
:1011900000F0F0FF6FF034020E463315D14FC6F366
:1011A0001306A3F2FF33134446F07F5ABE421A4699
:1011B0000D934AF4401A40F32183CB4B9E4240F3F7
:1011C000FD83134601330D93C84B0022CDE906235E
:1011D00000270026CDE90867CDE90E67AAF5801A39
:1011E0000027024653465146CDE90A23DDE906238E
:1011F00000F00CFEDDE9062380468946DDE90A01A0
:1012000000F006FE02460B460020B84901F0DCF86B
:101210000A460146CDE910121346494602464046A9
:1012200000F0A8FF4FEA6A0343F000538C46834660
:1012300003F50023CDE904BCDA468B46D919002317
:10124000CDE902AB0293DDE902AB002006460F4672
:1012500002460B465046594600F08CFF02460B46AC
:101260004046494600F0D2FDDDE906238046894626
:101270003046394600F0CAFD02460B46DDE90A0158
:1012800000F0C4FD52465B4600F074FF02460B4678
:101290004046494600F0BAFDDDE9102300F06AFF40
:1012A000DDE90467CDE9060132463B463046394662
:1012B00000F060FF78A3D3E9002306460F4600F054
:1012C00059FF77A3D3E9002300F0A2FD32463B4645
:1012D00000F050FF74A3D3E9002300F099FD3246DB
:1012E0003B4600F047FF72A3D3E9002300F090FDD6
:1012F00032463B4600F03EFF6FA3D3E9002300F0E7
:1013000087FD32463B4600F035FF6DA3D3E900234D
:1013100000F07EFD3246804689463B4630463946DF
:1013200000F028FF02460B464046494600F022FFE7
:10133000524606460F465B46DDE9040100F068FDB3
:10134000DDE9062300F016FF32463B4600F060FD63
:101350005246804689465B465046594600F00AFF91
:101360000022634BCDE90A0100F052FD42464B4694
:1013700000F04EFD02980F46064632463B46504668
:10138000594600F0F7FE002282468B46584B304605
:10139000394600F03BFDDDE90A2300F037FD024647
:1013A0000B464046494600F031FDDDE9042300F0DC
:1013B000E1FE3246804689463B46DDE9060100F003
:1013C000D9FE02460B464046494600F021FD8046C4
:1013D000894602460B4650465946CDE904AB00F01B
:1013E00017FDDDE902AB38A3D3E9002350460F46D1
:1013F00000F0C0FEDDE90423CDE902013946504684
:1014000000F004FD02460B464046494600F0FEFC53
:101410002FA3D3E9002300F0ADFE2FA3D3E90023CF
:10142000804689465046394600F0A4FE02460B46E7
:101430004046494600F0ECFCDDE90E2300F0E8FCF4
:1014400080460D98894600F02FFE424606460F461C
:101450004B46DDE9020100F0DBFCDDE9082300F08A
:10146000D7FC32463B4600F0D3FC32463B46504662
:101470008B4600F0CBFCDDE9082300F0C7FCDDE97A
:10148000022300F0C3FC02460B464046494600F0EA
:10149000BDFC80462EE000BFEF4E454A287ECA3F85
:1014A00065DBC9934A86CD3F01411DA96074D13FD8
:1014B0004D268F515555D53FFFAB6FDBB66DDB3FEA
:1014C000033333333333E33F000000E009C7EE3F1B
:1014D000FD033ADC09C7EE3FF5015B14E02F3EBE89
:1014E000000040438E98030079B60B000000F03FE7
:1014F000000008408946013C54EA0503DDE900018B
:1015000014BFD94CD94C0023CDE9043403460C4612
:10151000CDE9023400230293DDE9024522462B4641
:1015200000F074FC52465B4600F024FEDDE9002327
:1015300006460F464046494600F01CFE02460B4652
:101540003046394600F064FC2246804689462B46E8
:1015500050465946CDE9008900F00CFE0B46024684
:1015600006460F464046494600F052FCC04B9942A1
:1015700004460D468A4640F3168101F13F4303F5C8
:10158000E003034340F0EA81A3A3D3E90023DDE9AC
:10159000000100F03DFC3246804689463B4620462D
:1015A000294600F033FC02460B464046494601F00E
:1015B00071F8002840F0D281A8464FEA28534FF432
:1015C0008012A3F2FE3342FA03F35344C3F30A52E8
:1015D000A84DA2F2FF321541C3F3130423EA05011B
:1015E0000020C2F1140B44F48014BAF1000F02463B
:1015F0000B4644FA0BFB30463946B8BFCBF1000B23
:1016000000F004FC02460B4606460F46DDE90001E9
:1016100000F0FEFB4FEA0B5A0D46002480A3D3E9ED
:1016200000232046294600F0A5FD32468046894623
:101630003B462046294600F0E9FB02460B46DDE921
:10164000000100F0E3FB78A3D3E9002300F092FD52
:1016500077A3D3E9002306460F462046294600F02B
:1016600089FD02460B463046394600F0D1FB06465E
:101670000F4602460B464046494600F0C9FB42462B
:101680004B4604460D4600F0C1FB02460B46304671
:10169000394600F0BBFB2246804689462B46204651
:1016A000294600F067FD64A3D3E9002306460F46F0
:1016B00000F060FD62A3D3E9002300F0A7FB3246EF
:1016C0003B4600F057FD60A3D3E9002300F0A0FBE8
:1016D00032463B4600F04EFD5DA3D3E9002300F007
:1016E00095FB32463B4600F045FD5BA3D3E9002362
:1016F00000F08EFB32463B4600F03CFD02460B46B6
:101700002046294600F082FB06460F4602460B465D
:101710002046294600F02EFD0022CDE900014FF0C1
:1017200080433046394600F071FB02460B46DDE946
:10173000000100F049FE424606460F464B46204651
:10174000294600F017FD42464B4600F061FB024679
:101750000B463046394600F059FB22462B4600F036
:1017600055FB02460B4600203F4900F04FFB8A44E0
:10177000BAF5801FC0F233815146DDE9042300F041
:10178000F9FC5BE4424640464B46494600F0F2FC19
:1017900054E4BAF1000FBFF6E0ACDDE900341846BE
:1017A00004F100414AE4344B21F00048984540F3ED
:1017B000F280324B0B4403430CD132463B4600F0DF
:1017C00025FB02460B46DDE9000100F04FFF002833
:1017D0003FF4F3AEDDE9040121A3D3E9002300F0D7
:1017E000C9FC1FA3D3E9002300F0C4FC26E4024691
:1017F0000B4600201C4900F0E7FD3CE400220023DA
:10180000CDE90823CDE90E23174B00220027CDE9AF
:101810000623E6E4AFF30080FE822B654715973C74
:1018200000000000432EE63FEF39FAFE422EE63F6D
:10183000396CA80C615C20BED0A4BE726937663ECC
:10184000F16BD2C541BDBB3E2CDE25AF6A56113FC0
:1018500093BDBE166CC1663F3E5555555555C53FA7
:1018600059F3F8C21F6EA5010000F03F0000F0BF61
:10187000FFFF8F40FFFF0F00FFCB904000346F3F12
:101880006B4B9E427FF766AC6A4B9E423FF713ACB0
:101890000022684B00F0BAFA57A3D3E900230646AA
:1018A0000F4600F067FC56A3D3E900238046894623
:1018B0003046394600F05EFC002282468B465E4B85
:1018C0003046394600F056FC02460B464EA1D1E99F
:1018D000000100F09BFA32463B4600F04BFC02460A
:1018E0000B460020554900F091FA3246CDE902013D
:1018F0003B463046394600F03DFC02460B46DDE9EA
:10190000020100F037FC42A3D3E9002300F032FCCF
:1019100002460B465046594600F078FA02460B46FE
:1019200006460F464046494600F072FA42464B468C
:10193000002082468B4600F069FA02460B4630468C
:10194000394600F063FA80468946D4E542464B4664
:101950000020384900F038FDFFF770BBDDE90401D5
:101960002DA3D3E9002300F005FC2BA3D3E900232A
:1019700000F000FCFFF762BBBEF1000F7FF469AB23
:10198000C3F1140347FA03F202FA03F39F422AD089
:101990007446FFF736BB294B98453FF70EAEDDE99D
:1019A00002239246934638E602460B4600F02EFA92
:1019B00002460B4600F008FDFFF740BB18A3D3E931
:1019C0000023CDE9082318A3D3E90023CDE90E2392
:1019D0001B4B00224FF48027CDE9062301E45A4631
:1019E00000F08AF9C9E602F00102C2F10204FFF731
:1019F00008BB00BFAFF30080000000604715F73F51
:101A000044DF5DF80BAE543E555555555555D53F01
:101A1000FE822B654715F73F9C7500883CE4377EB6
:101A20000000004003B8E23F06D0CF43EBFD4C3E40
:101A3000FEFFEF3F0000F03F0000D03F0000E03F1E
:101A40000000F83F2DE9F8435B4F8F4305460C46F5
:101A500000F0928000290B4602466FDD0F157BD007
:101A6000A7F2FF37C3F31303F80743F480135CD4E2
:101A700003EBD27100260B447F105200B6461620AD
:101A80004FF400110EEB01049C424FEAD2754FEA6D
:101A9000420203DC1B1B04EB010E0E44013805EB74
:101AA00043034FEA5101EDD1844620244FF0004119
:101AB00009E020D003EBD275013C4FEA51012B44E1
:101AC0004FEA420220D0734501EB0C05F1DD002DF9
:101AD00005EB010C09DBF0469542A3EB0E0300D9A0
:101AE000013B521B0844C646E4E7BCF1000FF2DBA1
:101AF0000EF10108F0E79542DCD8002D05EB010C52
:101B000044DB98460023ECE7134313D140087310DD
:101B100003F17F5303F50013F20703EB075948BFA6
:101B200040F000404946BDE8F8835B0003EBD27308
:101B300052009DE7411C2DD00130E7E7064621F019
:101B400000473E43EFD069BB0F46D30A153F52050D
:101B5000002BFAD0DE0220D4002400E004465B0013
:101B6000DD0204F10100F9D5C0F1200122FA01F1F2
:101B70000B433F1B824073E702460B4600F0FAFA24
:101B80002A46234600F044F9BDE8F883BCF1000F73
:101B9000AEDAB6E701362046B9E7002020214FF043
:101BA000FF34E3E702460B4600F030F902460B46ED
:101BB00000F00AFCB7E700BF0000F07F21F0004111
:101BC000704700BF41F0004101F58010C00F704721
:101BD0000020704700200149704700BF0000F87FD7
:101BE000F0B5C1F30A5EAEF2FF36132E83B00246A3
:101BF0000B460C464FEAD17507462EDC002E49DB1A
:101C00003A49314103EA010010432BD049080B4007
:101C100053EA02070CD04FF48023132E24EA01016B
:101C200043FA06F444EA01040CBF4FF000470027D2
:101C30002F4B03EBC5052146D5E900453846224622
:101C40002B4600F0E5F8CDE9000122462B46DDE900
:101C5000000100F0DBF803B0F0BD332E06DDB6F571
:101C6000806F40D01046194603B0F0BDAEF2134E5F
:101C70004FF0FF3121FA0EF10842F3D04908084233
:101C8000D6D04FF0804320EA010143FA0EFE4EEA1F
:101C90000107CDE721F000410143E3D0C3F3130175
:101CA000134E0143C1F1000C06EBC506D6E90067EF
:101CB0004CEA010C4FEA1C3C5C0C64040CF400235D
:101CC00043EA040132463B4600F0A2F8CDE90001A8
:101CD00032463B46DDE9000100F098F821F000446F
:101CE00044EAC571C0E700F093F8BDE7FFFF0F00BD
:101CF000302F400000000000F8B5C1F30A5604463A
:101D00000D460B4617460EBB21F0004303438646A3
:101D100025D00022344B00F02DFA344A9742044675
:101D20000D460B462ADBC1F30A56363E3E4440F2CE
:101D3000FE72964228DC002E12DD23F0FF4323F4CE
:101D4000E00343EA065520462946F8BD40F2FF72FB
:101D50009642EBD102460B4600F05AF8F8BDF8BDAA
:101D600016F1350F1DDA4CF250339F4222462B46B6
:101D700025DC19A1D1E9000100F03CF816A3D3E954
:101D8000002300F0F7F9F8BD22462B4614A1D1E953
:101D9000000100F02FF812A3D3E9002300F0EAF9C4
:101DA000F8BD23F0FF4323F4E003363643EA06553B
:101DB0002046294600220E4B00F0DCF9F8BD08A1B0
:101DC000D1E9000100F016F805A3D3E9002300F0E3
:101DD000D1F9F8BDAFF3008059F3F8C21F6EA50129
:101DE0009C7500883CE4377E00005043B03CFFFF08
:101DF0000000903C03F0004321F0004242EA03015E
:101E0000704700BF81F0004102E000BF83F0004353
:101E100030B54FEA41044FEA430594EA050F08BF85
:101E200090EA020F1FBF54EA000C55EA020C7FEA49
:101E3000645C7FEA655C00F0E2804FEA5454D4EBC6
:101E40005555B8BF6D420CDD2C4480EA020281EA90
:101E5000030382EA000083EA010180EA020281EAC8
:101E60000303362D88BF30BD11F0004F4FEA01311A
:101E70004FF4801C4CEA113102D0404261EB410129
:101E800013F0004F4FEA03334CEA133302D05242AF
:101E900063EB430394EA050F00F0A780A4F101046B
:101EA000D5F1200E0DDB02FA0EFC22FA05F28018A5
:101EB00041F1000103FA0EF2801843FA05F359418B
:101EC0000EE0A5F120050EF1200E012A03FA0EFC0A
:101ED00028BF4CF0020C43FA05F3C01851EBE37134
:101EE00001F0004507D54FF0000EDCF1000C7EEB51
:101EF00000006EEB0101B1F5801F1BD3B1F5001F8F
:101F00000CD349085FEA30004FEA3C0C04F10104AD
:101F10004FEA445212F5800F80F09A80BCF1004FD6
:101F200008BF5FEA500C50F1000041EB045141EA58
:101F3000050130BD5FEA4C0C404141EB010111F459
:101F4000801FA4F10104E9D191F0000F04BF014604
:101F50000020B1FA81F308BF2033A3F10B03B3F1E2
:101F600020020CDA0C3208DD02F1140CC2F10C0272
:101F700001FA0CF021FA02F10CE002F11402D8BFD0
:101F8000C2F1200C01FA02F120FA0CFCDCBF41EA9C
:101F90000C019040E41AA2BF01EB0451294330BD6B
:101FA0006FEA04041F3C1CDA0C340EDC04F1140448
:101FB000C4F1200220FA04F001FA02F340EA03001F
:101FC00021FA04F345EA030130BDC4F10C04C4F165
:101FD000200220FA02F001FA04F340EA0300294645
:101FE00030BD21FA04F0294630BD94F0000F83F48F
:101FF000801306BF81F480110134013D4EE77FEA72
:10200000645C18BF7FEA655C29D094EA050F08BFBD
:1020100090EA020F05D054EA000C04BF194610469E
:1020200030BD91EA030F1EBF0021002030BD5FEAE2
:10203000545C05D14000494128BF41F0004130BD0A
:1020400014F580043CBF01F5801130BD01F000455E
:1020500045F0FE4141F470014FF0000030BD7FEAD1
:10206000645C1ABF194610467FEA655C1CBF0B46CC
:10207000024650EA013406BF52EA033591EA030FE3
:1020800041F4002130BD00BF90F0000F04BF0021DB
:10209000704730B54FF4806404F132044FF000050E
:1020A0004FF0000150E700BF90F0000F04BF002187
:1020B000704730B54FF4806404F1320410F00045ED
:1020C00048BF40424FF000013EE700BF42004FEAE8
:1020D000E2014FEA31014FEA02701FBF12F07F4365
:1020E00093F07F4F81F06051704792F0000F14BF62
:1020F00093F07F4F704730B54FF4607401F00045A6
:1021000021F0004120E700BF50EA010208BF7047FC
:1021100030B54FF000050AE050EA010208BF7047F1
:1021200030B511F0004502D5404261EB41014FF45A
:10213000806404F132045FEA915C3FF4DCAE4FF05E
:1021400003025FEADC0C18BF03325FEADC0C18BF45
:10215000033202EBDC02C2F1200300FA03FC20FA96
:1021600002F001FA03FE40EA0E0021FA02F11444E3
:10217000C1E600BF70B54FF0FF0C4CF4E06C1CEAF8
:1021800011541DBF1CEA135594EA0C0F95EA0C0F6D
:1021900000F0DEF82C4481EA030621EA4C5123EAE0
:1021A0004C5350EA013518BF52EA033541F480110F
:1021B00043F4801338D0A0FB02CE4FF00005E1FBC2
:1021C00002E506F00042E0FB03E54FF00006E1FB0C
:1021D00003569CF0000F18BF4EF0010EA4F1FF044F
:1021E000B6F5007F64F5407404D25FEA4E0E6D418F
:1021F00046EB060642EAC62141EA55514FEAC520A0
:1022000040EA5E504FEACE2EB4F1FD0C88BFBCF51B
:10221000E06F1ED8BEF1004F08BF5FEA500E50F1CC
:10222000000041EB045170BD06F0004646EA010192
:1022300040EA020081EA0301B4EB5C04C2BFD4EBC4
:102240000C0541EA045170BD41F480114FF0000EBD
:10225000013C00F3AB8014F1360FDEBF002001F02B
:10226000004170BDC4F10004203C35DA0C341BDCA5
:1022700004F11404C4F1200500FA05F320FA04F077
:1022800001FA05F240EA020001F0004221F00041AB
:1022900010EBD37021FA04F642EB06015EEA430E1E
:1022A00008BF20EAD37070BDC4F10C04C4F120054E
:1022B00000FA04F320FA05F001FA04F240EA020001
:1022C00001F0004110EBD37041F100015EEA430ED2
:1022D00008BF20EAD37070BDC4F1200500FA05F2F2
:1022E0004EEA020E20FA04F301FA05F243EA020371
:1022F00021FA04F001F0004121FA04F220EA020080
:1023000000EBD3705EEA430E08BF20EAD37070BDC5
:1023100094F0000F0FD101F00046400041EB0101A5
:1023200011F4801F08BF013CF7D041EA060195F087
:10233000000F18BF704703F00046520043EB030341
:1023400013F4801F08BF013DF7D043EA060370472E
:1023500094EA0C0F0CEA135518BF95EA0C0F0CD039
:1023600050EA410618BF52EA4306D1D181EA03017F
:1023700001F000414FF0000070BD50EA410606BF79
:102380001046194652EA430619D094EA0C0F02D1BE
:1023900050EA013613D195EA0C0F05D152EA033603
:1023A0001CBF104619460AD181EA030101F0004121
:1023B00041F0FE4141F470014FF0000070BD41F06A
:1023C000FE4141F4780170BD70B54FF0FF0C4CF444
:1023D000E06C1CEA11541DBF1CEA135594EA0C0F63
:1023E00095EA0C0F00F0A7F8A4EB050481EA030EB0
:1023F00052EA03354FEA013100F088804FEA033397
:102400004FF0805545EA131343EA12634FEA022264
:1024100045EA111545EA10654FEA00260EF0004125
:102420009D4208BF964244F1FD0404F5407402D277
:102430005B084FEA3202B61A65EB03055B084FEA08
:1024400032024FF480104FF4002CB6EB020E75EB05
:10245000030E22BFB61A754640EA0C005B084FEA2D
:102460003202B6EB020E75EB030E22BFB61A7546AA
:1024700040EA5C005B084FEA3202B6EB020E75EBF5
:10248000030E22BFB61A754640EA9C005B084FEA6D
:102490003202B6EB020E75EB030E22BFB61A75467A
:1024A00040EADC0055EA060E18D04FEA051545EA69
:1024B00016754FEA06164FEAC30343EA52734FEA12
:1024C000C2025FEA1C1CC0D111F4801F0BD141EA8B
:1024D00000014FF000004FF0004CB6E711F4801FF0
:1024E00004BF01430020B4F1FD0C88BFBCF5E06FD0
:1024F0003FF6AFAEB5EB030C04BFB6EB020C5FEAE0
:10250000500C50F1000041EB045170BD0EF0004E34
:102510004EEA113114EB5C04C2BFD4EB0C0541EA66
:10252000045170BD41F480114FF0000E013C90E663
:1025300045EA060E8DE60CEA135594EA0C0F08BF27
:1025400095EA0C0F3FF43BAF94EA0C0F0AD150EA26
:1025500001347FF434AF95EA0C0F7FF425AF1046B9
:1025600019462CE795EA0C0F06D152EA03353FF4E1
:10257000FDAE1046194622E750EA410618BF52EA5E
:1025800043067FF4C5AE50EA41047FF40DAF52EA32
:1025900043057FF4EBAE12E74FF0FF3C06E000BFCF
:1025A0004FF0010C02E000BF4FF0010C4DF804CDDC
:1025B0004FEA410C7FEA6C5C4FEA430C18BF7FEA9C
:1025C0006C5C1BD001B050EA410C0CBF52EA430CCA
:1025D00091EA030F02BF90EA020F0020704710F14A
:1025E000000F91EA030F58BF994208BF90422CBFD9
:1025F000D8176FEAE37040F0010070474FEA410CD2
:102600007FEA6C5C02D150EA013C07D14FEA430CEF
:102610007FEA6C5CD6D152EA033CD3D05DF8040B60
:10262000704700BF8446104662468C461946634692
:1026300000E000BF01B5FFF7B7FF002848BF10F169
:10264000000F01BD4DF808EDFFF7F4FF0CBF0120AE
:1026500000205DF808FB00BF4DF808EDFFF7EAFF2A
:1026600034BF012000205DF808FB00BF4DF808EDE5
:10267000FFF7E0FF94BF012000205DF808FB00BFDA
:102680004DF808EDFFF7CEFF94BF012000205DF864
:1026900008FB00BF4DF808EDFFF7C4FF34BF012071
:1026A00000205DF808FB00BF4FEA410C7FEA6C5C3C
:1026B00002D150EA013C0AD14FEA430C7FEA6C5C3C
:1026C00002D152EA033C02D14FF0000070474FF0B4
:1026D000010070474FEA410212F5001215D211D5E0
:1026E0006FF47873B3EB625212D94FEAC12343F00F
:1026F000004343EA505311F0004F23FA02F018BF91
:10270000404270474FF00000704750EA013005D159
:1027100011F0004008BF6FF0004070474FF000001C
:10272000704700BF4A0011D212F5001211D20DD528
:102730006FF47873B3EB62520ED44FEAC12343F0C7
:10274000004343EA505323FA02F070474FF0000071
:10275000704750EA013002D14FF0FF3070474FF020
:10276000000070474FEA4102B2F1E04324BFB3F5E5
:10277000001CDCF1FE5C0DD901F0004C4FEAC002F8
:102780004CEA5070B2F1004F40EB830008BF20F0DC
:102790000100704711F0804F21D113F13872BCBF96
:1027A00001F00040704741F480114FEA5252C2F1EB
:1027B0001802C2F1200C10FA0CF320FA02F018BF34
:1027C00040F001004FEAC1234FEAD32303FA0CFC87
:1027D00040EA0C0023FA02F34FEA4303CCE77FEA16
:1027E000625307D150EA01331EBF4FF0FE4040F460
:1027F0004000704701F0004040F0FE4040F400000F
:10280000704700BF80F0004002E000BF81F000414F
:1028100042001FBF5FEA410392EA030F7FEA226C86
:102820007FEA236C6AD04FEA1262D2EB1363C1BF16
:10283000D218414048404140B8BF5B42192B88BF85
:10284000704710F0004F40F4000020F07F4018BFA8
:10285000404211F0004F41F4000121F07F4118BFC8
:10286000494292EA030F3FD0A2F1010241FA03FC70
:1028700010EB0C00C3F1200301FA03F100F0004358
:1028800002D5494260EB4000B0F5000F13D3B0F120
:10289000807F06D340084FEA310102F10102FE2A8F
:1028A00051D2B1F1004F40EBC25008BF20F00100FF
:1028B00040EA03007047490040EB000010F4000FAD
:1028C000A2F10102EDD1B0FA80FCACF1080CB2EB40
:1028D0000C0200FA0CF0AABF00EBC250524218439F
:1028E000BCBFD0401843704792F0000F81F4000144
:1028F00006BF80F400000132013BB5E74FEA410317
:102900007FEA226C18BF7FEA236C21D092EA030F82
:1029100004D092F0000F08BF0846704790EA010FFC
:102920001CBF0020704712F07F4F04D1400028BF29
:1029300040F00040704712F100723CBF00F500000B
:10294000704700F0004343F0FE4040F40000704741
:102950007FEA226216BF08467FEA236301464202ED
:1029600006BF5FEA412390EA010F40F48000704700
:102970004FF0000304E000BF10F0004348BF4042A6
:102980005FEA000C08BF704743F0964301464FF0E2
:1029900000001CE050EA010208BF70474FF000033E
:1029A0000AE000BF50EA010208BF704711F000437F
:1029B00002D5404261EB41015FEA010C02BF84464F
:1029C0000146002043F0B64308BFA3F18053A3F5AE
:1029D0000003BCFA8CF2083AA3EBC25310DB01FAF5
:1029E00002FC634400FA02FCC2F12002BCF1004F79
:1029F00020FA02F243EB020008BF20F0010070470A
:102A000002F1200201FA02FCC2F1200250EA4C005D
:102A100021FA02F243EB020008BF20EADC707047A3
:102A20004FF0FF0C1CEAD0521EBF1CEAD15392EAB1
:102A30000C0F93EA0C0F6FD01A4480EA010C40028D
:102A400018BF5FEA41211ED04FF0006343EA5010E7
:102A500043EA5111A0FB01310CF00040B1F5000F29
:102A60003EBF490041EAD3715B0040EA010062F1D8
:102A70007F02FD2A1DD8B3F1004F40EBC25008BFC2
:102A800020F00100704790F0000F0CF0004C08BFE0
:102A900049024CEA502040EA51207F3AC2BFD2F1AD
:102AA000FF0340EAC250704740F400004FF00003BB
:102AB000013A5DDC12F1190FDCBF00F000407047F5
:102AC000C2F10002410021FA02F1C2F1200200FA33
:102AD00002FC5FEA310040F1000053EA4C0308BFFA
:102AE00020EADC70704792F0000F00F0004C02BF4B
:102AF000400010F4000F013AF9D040EA0C0093F0C6
:102B0000000F01F0004C02BF490011F4000F013B1F
:102B1000F9D041EA0C018FE70CEAD15392EA0C0F8D
:102B200018BF93EA0C0F0AD030F0004C18BF31F0F8
:102B3000004CD8D180EA010000F00040704790F0CE
:102B4000000F17BF90F0004F084691F0000F91F072
:102B5000004F14D092EA0C0F01D142020FD193EA38
:102B60000C0F03D14B0218BF084608D180EA0100C0
:102B700000F0004040F0FE4040F40000704740F09C
:102B8000FE4040F4400070474FF0FF0C1CEAD0526A
:102B90001EBF1CEAD15392EA0C0F93EA0C0F69D0C6
:102BA000A2EB030280EA010C49024FEA402037D031
:102BB0004FF0805343EA111143EA10130CF0004028
:102BC0008B4238BF5B0042F17D024FF4000C8B4218
:102BD00024BF5B1A40EA0C00B3EB510F24BFA3EBF8
:102BE000510340EA5C00B3EB910F24BFA3EB9103C8
:102BF00040EA9C00B3EBD10F24BFA3EBD10340EA22
:102C0000DC001B0118BF5FEA1C1CE0D1FD2A3FF667
:102C100050AF8B4240EBC25008BF20F0010070471C
:102C20000CF0004C4CEA50207F32C2BFD2F1FF03BF
:102C300040EAC250704740F400004FF00003013AF0
:102C400037E792F0000F00F0004C02BF400010F494
:102C5000000F013AF9D040EA0C0093F0000F01F0A8
:102C6000004C02BF490011F4000F013BF9D041EACA
:102C70000C0195E70CEAD15392EA0C0F08D14202FD
:102C80007FF47DAF93EA0C0F7FF470AF084676E7D0
:102C900093EA0C0F04D14B023FF44CAF08466EE7A9
:102CA00030F0004C18BF31F0004CCAD130F0004277
:102CB0007FF45CAF31F000437FF43CAF5FE700BFCF
:102CC0004FF0FF3C06E000BF4FF0010C02E000BFF8
:102CD0004FF0010C4DF804CD4FEA40024FEA41039A
:102CE0007FEA226C18BF7FEA236C11D001B052EA50
:102CF000530C18BF90EA010F58BFB2EB030088BF16
:102D0000C81738BF6FEAE17018BF40F00100704784
:102D10007FEA226C02D15FEA402C05D17FEA236C66
:102D2000E4D15FEA412CE1D05DF8040B704700BFAD
:102D3000844608466146FFE70FB5FFF7C9FF002844
:102D400048BF10F1000F0FBD4DF808EDFFF7F4FF7D
:102D50000CBF012000205DF808FB00BF4DF808ED16
:102D6000FFF7EAFF34BF012000205DF808FB00BF39
:102D70004DF808EDFFF7E0FF94BF012000205DF85B
:102D800008FB00BF4DF808EDFFF7D2FF94BF01200C
:102D900000205DF808FB00BF4DF808EDFFF7C8FF05
:102DA00034BF012000205DF808FB00BF014B18680C
:102DB000704700BF5400002070B50F4E0F4D761BBA
:102DC000B61018BF002405D0013455F8043B9847CD
:102DD000A642F9D10A4E0B4D761B00F0B3F8B6109F
:102DE00018BF002406D0013455F8043B9847A6428A
:102DF000F9D170BD70BD00BF502F4000502F400072
:102E0000582F4000502F4000024B13B1024800F0F1
:102E100005B8704700000000292E4000002301463D
:102E20001A46184600F01EB838B50A4C0A4D641B05
:102E3000A4100AD004F18043013B05EB8305013C5B
:102E400055F804399847002CF9D1BDE8384000F016
:102E500083B800BF682F4000642F4000704700BF58
:102E6000704700BF2DE9F8432C4D06462868984668
:102E70000F469146FFF7F2FF294B1C68D4F8483102
:102E8000002B3ED05A681F2A1CDC02F1010E76B1DD
:102E900003EB82010124C1F88890D3F888019440A3
:102EA0002043022EC3F88801C1F8088123D00232E2
:102EB000C3F804E0286843F82270FFF7D1FF002030
:102EC000BDE8F883174B0BB34FF4C870AFF3008025
:102ED0000346D8B1D4F848210260002141600A4677
:102EE000C4F848014FF0010EC0F88811C0F88C11E9
:102EF000002EDCD0CCE7D3F88C110C43C3F88C4106
:102F0000D5E704F5A673C4F84831BBE72868FFF796
:102F1000A7FF4FF0FF30BDE8F88300BF800400201A
:102F2000402F400000000000706F7700000000009C
:102F3000000000000000304300000000000030C32B
:102F400058000020F8B500BFF8BC08BC9E4670478A
:102F5000092E4000F1004000F8B500BFF8BC08BCE5
:082F60009E467047CD004000C1
:102F680000093D00FFFFFFFFFFFFFFFFFFFF00001D
:102F7800728AEEBE7B14A1417AA514C1C442BB403B
:102F8800FFFFFFFF7F6ABCBC62A11E41FFFF00007C
:102F98003383B2C433F3144566B6A3C4299C734380
:102FA800FFFFFFFF840500208805002000007A4409
:102FB8000100000058000020000000004403002029
:102FC800AC030020140400200000000000000000F2
:102FD80000000000000000000000000000000000E9
:102FE80000000000000000000000000000000000D9
:102FF80000000000000000000000000000000000C9
:1030080000000000000000000000000000000000B8
:1030180000000000000000000000000000000000A8
:103028000000000000000000000000000000000098
:103038000000000000000000000000000000000088
:103048000000000000000000000000000000000078
:103058000000000000000000000000000000000068
:1030680001000000000000000E33CDAB34126DE605
:10307800ECDE05000B00000000000000000000006E
:103088000000000000000000000000000000000038
:103098000000000000000000000000000000000028
:1030A8000000000000000000000000000000000018
:1030B8000000000000000000000000000000000008
:0433E8008C05002030
:0400000500400000B7
:00000001FF
