S00E00004D41535445522E737265634A
S21440000038310020310640002D0640002D064000C5
S2144000102D0640002D0640002D0640000000000042
S2144000200000000000000000000000002D06400018
S2144000302D064000000000002D0640002D06400022
S2144000402D0640002D0640002D064000FD034000D2
S2144000502D0640002D0640002D0640000000000002
S214400060490840002D064000000000002D064000D4
S2144000702D064000000000002D0640002D064000E2
S21440008000000000000000002D0640002D06400045
S2144000902D0640002D0640002D0640002D0640004F
S2144000A0ED0440002D064000000000000000000067
S2144000B0000000002D0640002D0640002D064000A2
S2144000C02D0640002D0640002D06400010B5054C7C
S2144000D0237833B9044B13B10448AFF300800123AF
S2144000E0237010BD3C040020000000006015400056
S2144000F00C4B43B10C480D4910B5AFF300800C488B
S214400100036823B910BD0A48036833B97047094BE2
S214400110002BF7D0BDE810401847064B002BF5D013
S214400120184700BF00000000601540004004002053
S214400130601540000000000010B51D4B1A6842F0E4
S21440014030021A601A6842F0C0021A60194A1368F0
S21440015043F480731360184B1868184B984712A3E3
S214400160D3E90023164CA0470022164B164CA04756
S214400170164B9847C0B2164A136843EA00201060F0
S2144001802032136843F0F003136002F5282202F58C
S2144001907B72136843F0005313600E4A136843F0B3
S2144001A00803136010BD00BF0000000080843E417D
S2144001B01080034094800340000000209D0D4000C6
S2144001C0DD1040000000F03F210B4000AD12400023
S2144001D0048003400080034070B44FF400455E4CFA
S2144001E065605E4DA4F525642560012858D0A0B111
S2144001F0022875D012B1002B40F08E800122584B59
S2144002001A60584B03FB01F1574B1960574B1B685C
S21440021013F0080FFAD070BC7047554C206840F475
S2144002205C1040F008002060524C534804624F482F
S214400230006810F4003FFAD004290DD0082923D0D6
S2144002404B4C206820F45C1020F0700040F45C10AA
S21440025040F02000206008E0454C206820F45C1008
S21440026020F0700040F45C1020604048006810F4B5
S214400270003FFAD03E4C206820F09B7020F480303F
S21440028040F45C102060B5E7394C206820F45C10E0
S21440029020F0700040F45C1040F010002060E4E76E
S2144002A0334C25683548284320603048006810F0B5
S2144002B0010FFAD02E4C206840F09B7040F48030FE
S2144002C020602A48006810F4803FFAD0284C206806
S2144002D020F45C1020F0080040F45C10206089E7B1
S2144002E0234C206840F45C1040F0020020602068F8
S2144002F040F09B7040F4803020601C48006810F44A
S214400300803FFAD01A4C206820F45C1020F0080099
S21440031040F45C1020606DE7194E3068541E194D4D
S21440032005EA04441C43204340F0005040F47C500F
S21440033030600E48006810F0020FFAD002240848D9
S214400340046002FB01F191FBF3F3064A02FB03F360
S214400350054A13605AE700BF50140E4000070004D9
S21440036030040E4040420F000000002068040E405B
S21440037020040E400800370000040E4001FF3700FE
S21440038028040E400000FF0710B5144C2046144BBE
S214400390984700212046134B98474FF4004120468B
S2144003A0114B9847114B0822C3F88020BFF34F8F5C
S2144003B0BFF36F8FC3F88021002183F803131A60C0
S2144003C04FF4003120460A4B98472046094B984741
S2144003D0094A137843F00103137010BD30140E40E1
S2144003E0A10540001D0540000905400000E100E071
S2144003F079054000490540005804002010B50E4CD1
S2144004004FF4003120460D4B984720460C4B9847FA
S21440041020460C4B984710F0020F0CD00A4B1B7826
S21440042013F0010F07D00122084B1A70064A1378C2
S21440043003F0FE03137010BD30140E408D054000CF
S21440044061054000A105400058040020E82C00202B
S214400450044A136818431060034B1B6813F0040FDC
S214400460FAD070473480014020800140104A13681B
S21440047043F40023136002F6F412136843F01803A3
S21440048013604FF47A7303FB00F30A4A1068B0FB1C
S214400490F3F00438C008030203F47F43C0B21843A5
S2144004A040F44030044B18602422103B1A607047DA
S2144004B010040E400000002010800140000400F4AC
S2144004C0FE00044B1860044A136843F001031360AF
S2144004D0704700BF0480014000800140024A136814
S2144004E043F002031360704700800140044B1B68D2
S2144004F013F0100F03D0034A53680133536070471C
S214400500600001405C040020034B1B68194341F423
S21440051080210160002070476404002041B9094AE8
S214400520136823F0807313600268134303607047B8
S214400530044A136843F080731360026813430360F1
S214400540704700BF64040020044A136823F48013F5
S2144005501360026813430360704700BF64040020C2
S214400560044A136843F4801313600268134303601D
S214400570704700BF6404002003681943024B1B68A1
S21440058019430160704700BF64040020036823EAF3
S2144005900101024B1B681943016070476404002048
S2144005A0C0687047154A136843F400431360A2F5C9
S2144005B0CA62136843F4C0631360A2F6F412136869
S2144005C043F48073136000010D4B1B68B3FBF0F0DF
S2144005D00C4B18604FF400621C3B1A600A4A1368C2
S2144005E043F0500313600832136843F0010313606E
S2144005F04FF48072054B1A60704700BF54140E408B
S2144006000000002020060E4000060E4000E100E0FC
S214400610044B1B6813F0020FFAD0034B1A681043C2
S2144006201860704714060E401C060E40FEE7000099
S21440063008B5104B104A9A4209D00E4B0E4A03E0BA
S21440064011681960043304320C498B42F8D30C4BC2
S21440065002E000221A6004330A4A9342F9D30A4A57
S2144006600A4B23F07F039360094B9847094B984702
S214400670FEE700BF00000020601540003C0400205C
S2144006803C040020342D002000ED00E00000400037
S2144006902D1340009906400070B502230F2210210A
S2144006A018465D4CA0474FF4C8705C4B98475C4B6F
S2144006B098474FF496405B4B98475B4B1A6942F419
S2144006C010021A611A6B42F480121A63574B98470D
S2144006D04CE00120564B9847564B9878C00040F067
S2144006E0020000F0FA00544B9847002601E001361D
S2144006F0F6B235464F4B9B789E420FDA06EBC60461
S214400700E4B26B1C03EBC3039C42F0D2494B234438
S2144007101879494B98470134E4B2F2E7474B98477B
S214400720444A937803EBC303D1180C79591C1144FF
S214400730087940EA042042490880981C104404790D
S214400740D81C1044007940EA04204880181D104404
S2144007500079053313441B7943EA00238B8000223B
S214400760344B1A704FF48072364B1A60314B1B78FC
S214400770002B4ED04FF48072324BC3F88020BFF32C
S2144007804F8FBFF36F8F2B4B5B78023B052BE6D822
S21440079001A252F823F000BFD30640005F07400096
S2144007A0B10740005F074000CD0740000108400009
S2144007B001201F4B98471F4D95F864001E4CA047DC
S2144007C095F86500A0471D4B9847C8E7194B93F826
S2144007D06630012BC3D10120154B98470E20164B8F
S2144007E0984700240A2C08D8124B234493F86800F4
S2144007F0114B98470134E4B2F4E7104B9847AEE704
S21440080001200B4B984707200B4B98470B4B9847BC
S214400810A5E700BFAAE700BFD90140006D0440002D
S21440082039014000A5054000000E0E40FD0A40007C
S214400830BD0440006804002051044000DD04400030
S2144008400400002000E100E07D4B1B6813F0010F20
S21440085011D07C4B1868C0B27B4B83F8730093F87A
S2144008607430002B45D0784B5B78042B1ED0062B7B
S21440087025D0022B00D07047734A92F87530D118B5
S21440088008710133DBB282F87530927802EBC2020F
S21440089006329342EFD36C4A002382F8753082F8D2
S2144008A0743001211170694A13707047664B83F8A3
S2144008B06500002283F8742001221A707047624B4C
S2144008C093F86630012BD6D15F4A92F87530D1182E
S2144008D081F868000133DBB282F875300A2BCAD93A
S2144008E01346002283F8752083F8742001221A707C
S2144008F070472DE9F04100F00703534A5370072B29
S21440090000F29580DFE803F0040D16206971768AC0
S2144009104F4B98474C4B93F873004E4B9847BDE867
S214400920F0814D4B9847484B93F87300494B984796
S214400930BDE8F081C208444B9A70012283F87420C7
S214400940444B9847BDE8F081DFF83081434FD8F8F4
S2144009500000B847424E38A3D3E90023B047414D84
S214400960A847C0F307203B4CA047D8F80000B8473C
S21440097031A3D3E90023B047A847C0B2A0473A4EB8
S2144009803A4D3068A847C0F30720A0473068A847CC
S214400990C0B2A047364E3068A847C0F30720A047ED
S2144009A03068A847C0B2A047324E3068A847C0F368
S2144009B00720A0473068A847C0B2A0472E4E3068F0
S2144009C0A847C0F30720A0473068A847C0B2A04752
S2144009D01E4B1878A047BDE8F0811B4B012283F8D8
S2144009E0742083F86400BDE8F081174B83F87600E6
S2144009F0BDE8F081C008144B83F8660018B10128A2
S214400A0006D0BDE8F0814B20124B9847BDE8F081F8
S214400A1001220D4B83F87420BDE8F0810E4B9847B9
S214400A20094B01221A7093F873000A4B9847BDE8A9
S214400A30F08100BFAFF30080CDCCCCCCCC7A7440F4
S214400A4014060E4018060E4068040020E3040020FA
S214400A50810A400011064000FD0A4000E10D4000BA
S214400A60890E4000AD124000F02C0020ED124000F0
S214400A70F42C0020002D0020042D0020EC2C00201B
S214400A80F8B5194B1A6B42F400021A631A6B42F41B
S214400A9080121A63154D00242C706C70AC70EC708C
S214400AA02C716C71AC714FF400673A46214605F1E3
S214400AB008000F4EB0473A46214605F60800B047B4
S214400AC00C4D3A462146A5F1F000B0473A4621463D
S214400AD005F5E260B0473A46214605F57160B047F5
S214400AE0054B9847F8BD00BF000E0E40E0040020BE
S214400AF07D134000D815002089034000044A536BFC
S214400B0043F4000353630022024B83F818267047D1
S214400B10000E0E40D026002081F0004102E000BFCB
S214400B2083F0004330B54FEA41044FEA430594EA68
S214400B30050F08BF90EA020F1FBF54EA000C55EAA3
S214400B40020C7FEA645C7FEA655C00F0E2804FEA74
S214400B505454D4EB5555B8BF6D420CDD2C4480EA56
S214400B60020281EA030382EA000083EA010180EA86
S214400B70020281EA0303362D88BF30BD11F0004FD4
S214400B804FEA01314FF4801C4CEA113102D040420A
S214400B9061EB410113F0004F4FEA03334CEA133345
S214400BA002D0524263EB430394EA050F00F0A7805D
S214400BB0A4F10104D5F1200E0DDB02FA0EFC22FA58
S214400BC005F2801841F1000103FA0EF2801843FA4C
S214400BD005F359410EE0A5F120050EF1200E012A3D
S214400BE003FA0EFC28BF4CF0020C43FA05F3C0187B
S214400BF051EBE37101F0004507D54FF0000EDCF1F4
S214400C00000C7EEB00006EEB0101B1F5801F1BD39C
S214400C10B1F5001F0CD349085FEA30004FEA3C0CA0
S214400C2004F101044FEA445212F5800F80F09A8096
S214400C30BCF1004F08BF5FEA500C50F1000041EB9A
S214400C40045141EA050130BD5FEA4C0C404141EB9E
S214400C50010111F4801FA4F10104E9D191F0000FC5
S214400C6004BF01460020B1FA81F308BF2033A3F148
S214400C700B03B3F120020CDA0C3208DD02F1140C3F
S214400C80C2F10C0201FA0CF021FA02F10CE002F17A
S214400C901402D8BFC2F1200C01FA02F120FA0CFC73
S214400CA0DCBF41EA0C019040E41AA2BF01EB0451BC
S214400CB0294330BD6FEA04041F3C1CDA0C340EDCBA
S214400CC004F11404C4F1200220FA04F001FA02F3FD
S214400CD040EA030021FA04F345EA030130BDC4F1BB
S214400CE00C04C4F1200220FA02F001FA04F340EAB0
S214400CF00300294630BD21FA04F0294630BD94F061
S214400D00000F83F4801306BF81F480110134013D47
S214400D104EE77FEA645C18BF7FEA655C29D094EAB8
S214400D20050F08BF90EA020F05D054EA000C04BF36
S214400D301946104630BD91EA030F1EBF0021002021
S214400D4030BD5FEA545C05D14000494128BF41F0C0
S214400D50004130BD14F580043CBF01F5801130BD24
S214400D6001F0004545F0FE4141F470014FF00000AF
S214400D7030BD7FEA645C1ABF194610467FEA655C60
S214400D801CBF0B46024650EA013406BF52EA033502
S214400D9091EA030F41F4002130BD00BF90F0000FF0
S214400DA004BF0021704730B54FF4806404F132042C
S214400DB04FF000054FF0000150E700BF90F0000FE5
S214400DC004BF0021704730B54FF4806404F132040C
S214400DD010F0004548BF40424FF000013EE700BFDC
S214400DE042004FEAE2014FEA31014FEA02701FBF6C
S214400DF012F07F4393F07F4F81F06051704792F03E
S214400E00000F14BF93F07F4F704730B54FF46074B7
S214400E1001F0004521F0004120E700BF50EA010202
S214400E2008BF704730B54FF000050AE050EA0102AF
S214400E3008BF704730B511F0004502D5404261EB1F
S214400E4041014FF4806404F132045FEA915C3FF460
S214400E50DCAE4FF003025FEADC0C18BF03325FEAF9
S214400E60DC0C18BF033202EBDC02C2F1200300FAAE
S214400E7003FC20FA02F001FA03FE40EA0E0021FAD3
S214400E8002F11444C1E600BF70B54FF0FF0C4CF4BD
S214400E90E06C1CEA11541DBF1CEA135594EA0C0F73
S214400EA095EA0C0F00F0DEF82C4481EA030621EAAE
S214400EB04C5123EA4C5350EA013518BF52EA0335E9
S214400EC041F4801143F4801338D0A0FB02CE4FF09B
S214400ED00005E1FB02E506F00042E0FB03E54FF0CB
S214400EE00006E1FB03569CF0000F18BF4EF0010EC3
S214400EF0A4F1FF04B6F5007F64F5407404D25FEABF
S214400F004E0E6D4146EB060642EAC62141EA555171
S214400F104FEAC52040EA5E504FEACE2EB4F1FD0CB3
S214400F2088BFBCF5E06F1ED8BEF1004F08BF5FEA31
S214400F30500E50F1000041EB045170BD06F00046E3
S214400F4046EA010140EA020081EA0301B4EB5C0490
S214400F50C2BFD4EB0C0541EA045170BD41F4801188
S214400F604FF0000E013C00F3AB8014F1360FDEBFAD
S214400F70002001F0004170BDC4F10004203C35DA89
S214400F800C341BDC04F11404C4F1200500FA05F30C
S214400F9020FA04F001FA05F240EA020001F00042AD
S214400FA021F0004110EBD37021FA04F642EB060123
S214400FB05EEA430E08BF20EAD37070BDC4F10C044D
S214400FC0C4F1200500FA04F320FA05F001FA04F211
S214400FD040EA020001F0004110EBD37041F10001FD
S214400FE05EEA430E08BF20EAD37070BDC4F1200508
S214400FF000FA05F24EEA020E20FA04F301FA05F270
S21440100043EA020321FA04F001F0004121FA04F217
S21440101020EA020000EBD3705EEA430E08BF20EAE7
S214401020D37070BD94F0000F0FD101F00046400021
S21440103041EB010111F4801F08BF013CF7D041EAA3
S214401040060195F0000F18BF704703F000465200A7
S21440105043EB030313F4801F08BF013DF7D043EA78
S2144010600603704794EA0C0F0CEA135518BF95EA2E
S2144010700C0F0CD050EA410618BF52EA4306D1D1B5
S21440108081EA030101F000414FF0000070BD50EAD4
S214401090410606BF1046194652EA430619D094EA5E
S2144010A00C0F02D150EA013613D195EA0C0F05D148
S2144010B052EA03361CBF104619460AD181EA03019C
S2144010C001F0004141F0FE4141F470014FF0000054
S2144010D070BD41F0FE4141F4780170BD70B54FF0EF
S2144010E0FF0C4CF4E06C1CEA11541DBF1CEA13556F
S2144010F094EA0C0F95EA0C0F00F0A7F8A4EB050451
S21440110081EA030E52EA03354FEA013100F0888047
S2144011104FEA03334FF0805545EA131343EA126310
S2144011204FEA022245EA111545EA10654FEA0026C5
S2144011300EF000419D4208BF964244F1FD0404F57E
S214401140407402D25B084FEA3202B61A65EB0305DA
S2144011505B084FEA32024FF480104FF4002CB6EB97
S214401160020E75EB030E22BFB61A754640EA0C0017
S2144011705B084FEA3202B6EB020E75EB030E22BF57
S214401180B61A754640EA5C005B084FEA3202B6EB98
S214401190020E75EB030E22BFB61A754640EA9C0057
S2144011A05B084FEA3202B6EB020E75EB030E22BF27
S2144011B0B61A754640EADC0055EA060E18D04FEAE5
S2144011C0051545EA16754FEA06164FEAC30343EA85
S2144011D052734FEAC2025FEA1C1CC0D111F4801F52
S2144011E00BD141EA00014FF000004FF0004CB6E74B
S2144011F011F4801F04BF01430020B4F1FD0C88BFEA
S214401200BCF5E06F3FF6AFAEB5EB030C04BFB6EBF4
S214401210020C5FEA500C50F1000041EB045170BDE7
S2144012200EF0004E4EEA113114EB5C04C2BFD4EB14
S2144012300C0541EA045170BD41F480114FF0000E98
S214401240013C90E645EA060E8DE60CEA135594EA14
S2144012500C0F08BF95EA0C0F3FF43BAF94EA0C0F17
S2144012600AD150EA01347FF434AF95EA0C0F7FF48C
S21440127025AF104619462CE795EA0C0F06D152EAE0
S21440128003353FF4FDAE1046194622E750EA4106C4
S21440129018BF52EA43067FF4C5AE50EA41047FF4D5
S2144012A00DAF52EA43057FF4EBAE12E74A0011D287
S2144012B012F5001211D20DD56FF47873B3EB62526B
S2144012C00ED44FEAC12343F0004343EA505323FA77
S2144012D002F070474FF00000704750EA013002D1EC
S2144012E04FF0FF3070474FF00000704742000ED27C
S2144012F0B2F1FE4F0BD34FF09E03B3EB126209D40C
S2144013004FEA002343F0004323FA02F070474FF0C1
S2144013100000704712F1610F01D1420202D14FF036
S214401320FF3070474FF00000704700BF70B50F4E5B
S2144013300F4D761BB61018BF002405D0013455F863
S214401340043B9847A642F9D10A4E0B4D761B00F057
S214401350F5F8B61018BF002406D0013455F8043B03
S2144013609847A642F9D170BD70BD00BF48154000F1
S21440137048154000501540004815400070B4860798
S21440138046D0541E002A41D0CAB2034602E014F1A9
S214401390FF343BD303F8012B9D07F8D1032C2ED9FD
S2144013A0CDB245EA05250F2C45EA054519D903F186
S2144013B010022646103E0F2E42F8105C42F80C5C97
S2144013C042F8085C42F8045C02F11002F2D8A4F13C
S2144013D0100222F00F0204F00F041032032C1344C4
S2144013E00DD91E462246043A032A46F8045BFAD82C
S2144013F0221F22F003020432134404F003042CB1EB
S214401400C9B21C4403F8011B9C42FBD170BC704718
S21440141014460346C2E700BF024B13B1024800F031
S21440142005B870470000000039144000002301460C
S2144014301A46184600F01EB838B50A4C0A4D641BCA
S214401440A4100AD004F18043013B05EB8305013C20
S21440145055F804399847002CF9D1BDE8384000F0DB
S21440146077B800BF601540005C154000704700BF6D
S214401470704700BF2DE9F8432C4D0646286898462D
S2144014800F469146FFF7F2FF294B1C68D4F84831C7
S214401490002B3ED05A681F2A1CDC02F1010E76B1A2
S2144014A003EB82010124C1F88890D3F88801944068
S2144014B02043022EC3F88801C1F8088123D00232A7
S2144014C0C3F804E0286843F82270FFF7D1FF0020F5
S2144014D0BDE8F883174B0BB34FF4C870AFF30080EA
S2144014E00346D8B1D4F848210260002141600A463C
S2144014F0C4F848014FF0010EC0F88811C0F88C11AE
S214401500002EDCD0CCE7D3F88C110C43C3F88C41CA
S214401510D5E704F5A673C4F84831BBE72868FFF75B
S214401520A7FF4FF0FF30BDE8F88300BF3804002027
S214401530381540000000000010000020F8B500BF3D
S214401540F8BC08BC9E46704719144000F1004000A5
S214401550F8B500BFF8BC08BC9E467047CD004000BA
S21440156000093D00FFFFFFFFFFFF000000000000F6
S21440157000000000FC02002064030020CC03002092
S2144015800000000000000000000000000000000016
S2144015900000000000000000000000000000000006
S2144015A000000000000000000000000000000000F6
S2144015B000000000000000000000000000000000E6
S2144015C000000000000000000000000000000000D6
S2144015D000000000000000000000000000000000C6
S2144015E000000000000000000000000000000000B6
S2144015F000000000000000000000000000000000A6
S2144016000000000000000000000000000000000095
S2144016100000000000000000010000000000000084
S2144016200E33CDAB34126DE6ECDE05000B00000049
S2144016300000000000000000000000000000000065
S2144016400000000000000000000000000000000055
S2144016500000000000000000000000000000000045
S2144016600000000000000000000000000000000035
S2104019900000000000000000102D0020A9
S804400000BB
