S00D0000534C4156452E737265639C
S214400000780900200903400005034000050340002E
S21440001005034000050340000503400000000000C3
S2144000200000000000000000000000000503400043
S21440003005034000000000000503400005034000A3
S21440004005034000050340000503400071044000DE
S2144000500503400005034000050340000000000083
S2144000600503400005034000000000000503400073
S2144000700503400000000000050340000503400063
S214400080000000000000000005034000690B40002F
S21440009005034000050340000503400005034000FB
S2144000A0E902400005034000000000000000000098
S2144000B00000000005034000050340000503400023
S2144000C005034000050340000503400010B5054CFD
S2144000D0237833B9044B13B10448AFF300800123AF
S2144000E0237010BD5C04002000000000E036400095
S2144000F00C4B43B10C480D4910B5AFF300800C488B
S214400100036823B910BD0A48036833B97047094BE2
S214400110002BF7D0BDE810401847064B002BF5D013
S214400120184700BF00000000E03640006004002092
S214400130E03640000000000070B44FF400455E4CCE
S21440014065605E4DA4F525642560012858D0A0B1B1
S214400150022875D012B1002B40F08E800122584BF9
S2144001601A60584B03FB01F1574B1960574B1B68FD
S21440017013F0080FFAD070BC7047554C206840F416
S2144001805C1040F008002060524C534804624F48D0
S214400190006810F4003FFAD004290DD0082923D077
S2144001A04B4C206820F45C1020F0700040F45C104B
S2144001B040F02000206008E0454C206820F45C10A9
S2144001C020F0700040F45C1020604048006810F456
S2144001D0003FFAD03E4C206820F09B7020F48030E0
S2144001E040F45C102060B5E7394C206820F45C1081
S2144001F020F0700040F45C1040F010002060E4E70F
S214400200334C25683548284320603048006810F055
S214400210010FFAD02E4C206840F09B7040F480309E
S21440022020602A48006810F4803FFAD0284C2068A6
S21440023020F45C1020F0080040F45C10206089E751
S214400240234C206840F45C1040F002002060206898
S21440025040F09B7040F4803020601C48006810F4EA
S214400260803FFAD01A4C206820F45C1020F008003A
S21440027040F45C1020606DE7194E3068541E194DEE
S21440028005EA04441C43204340F0005040F47C50B0
S21440029030600E48006810F0020FFAD0022408487A
S2144002A0046002FB01F191FBF3F3064A02FB03F301
S2144002B0054A13605AE700BF50140E40000700047A
S2144002C030040E4040420F000000002068040E40FC
S2144002D020040E400800370000040E4001FF37009F
S2144002E028040E400000FF07044B1B6813F0100F55
S2144002F003D0034A5368013353607047600001409F
S21440030078040020FEE7000008B5104B104A9A42D9
S21440031009D00E4B0E4A03E01168196004330432CC
S2144003200C498B42F8D30C4B02E000221A6004338F
S2144003300A4A9342F9D30A4A0A4B23F07F03936052
S214400340094B9847094B9847FEE700BF000000203E
S214400350E03640005C0400205C0400207805002065
S21440036000ED00E0000040002D354000F10A40005E
S214400370114A136843F40023136002F6F41213681C
S21440038043F018031360000400F4FE000B4B1860A3
S2144003900B4A182313600B490B6843F4806343F001
S2144003A002030B604FF40021074B1960136843F0BB
S2144003B001031360704700BF10040E4008800140E0
S2144003C0008001402480014000E100E00000000081
S2144003D038B505461A4C20461A4B98470021204609
S2144003E0194B98472846194B984713A3D3E900233F
S2144003F0174DA8470022174B174DA847174B98474D
S21440040081B22046164B9847164B0822C3F88020E8
S214400410BFF34F8FBFF36F8FC3F88021002183F85F
S21440042003131A604FF4003120460F4B984720467E
S2144004300E4B984738BD00BF0000000080842E4118
S21440044030140E40990F4000410F4000992940005B
S214400450D92C40000000E040852A4000E52F4000AF
S2144004602D0F400000E100E0850F40006D0F40007A
S21440047008B50548054B984710F0020F00D108BD57
S214400480034B9847FBE700BF30140E40990F4000DF
S214400490710A40000023834203DA00BF01339BB257
S2144004A0F9E770470023834202D200BF0133FAE7E0
S2144004B070470000000000002DE9F04F85B0029024
S2144004C0894603921C460846694B9847694F024640
S2144004D00B4663A1D1E90001B847674B984762A332
S2144004E0D3E90023B847654EB047DFF8AC81C0B2C9
S2144004F0C04702460B4600204FF08041604DA8475B
S214400500B047C3B2DFF894B101931846D847DFF836
S21440051090A101464846D04702995A4B98470290C8
S214400520DFF88091C84785B22846D84701460298EA
S214400530554B98475549D047C8471FFA80F9019808
S214400540C0474D4B984748A3D3E90023B847B04728
S2144005505FFA80FA4E4E736B234373631920DFF8BD
S2144005604881C04700204B4FB8479820B8470020E6
S214400570B8470520B8471920C047336B2343336339
S214400580736B234373631920C0470020B8474FEA74
S2144005900A1060F07000C0B2B847F020B847039B1E
S2144005A0D80040F0240000F0FC00B8471920C047AF
S2144005B0336B23433363736B234373631920C04702
S2144005C00020B8470020B8470420B847B320B847B3
S2144005D01920C047336B23433363736B23437363E2
S2144005E01920C0470020B8470020B8474E20B847DB
S2144005F04220B8471920C047336B23433363736B9D
S214400600234373631920C0470820B8470020B847E3
S214400610FD20B8470120B8471920C047336B234315
S2144006203363736B234373631920C047680AB84724
S214400630C5F34700B847C9F3461040EAC510C0B2F4
S214400640B8474FEAC90000F0F800B8471920C0473D
S214400650336B1C43346305B0BDE8F08FAFF30080C6
S214400660000000000030B140EF39FAFE422EE63F6F
S214400670DD294000D92C4000ED104000E52F400019
S214400680E5114000A93340002D30400000007A4577
S214400690000E0E40D110400099294000993140008C
S2144006A041324000E13440009504400010F0010F14
S2144006B025D0224A136B43F04003136310F0020F19
S2144006C023D01F4A136B43F01003136310F0040F3C
S2144006D021D01A4A136B43F08003136310F0080FBF
S2144006E01FD0164A136B43F48073136310F0100F39
S2144006F01DD1124A536B43F02003536370470F4A91
S214400700536B43F040035363D8E70D4A536B43F0B3
S21440071010035363DAE7094A536B43F0800353638D
S214400720DCE7064A536B43F480735363DEE7034AC1
S214400730136B43F020031363704700BF000E0E4058
S21440074000100E402DE9F84307468846594D2B6B5E
S21440075043F400432B636B6B43F400436B6303200B
S214400760554CA0470120A0470520A0472120A04780
S2144007702020A0472B6B43F480132B636B6B43F412
S21440078080136B634D484E4B98470320A04700208C
S214400790A0470520A0472120A0472020A0472B6B3C
S2144007A043F480132B636B6B43F480136B6300201E
S2144007B0A0470020A0470120A0470020A0470820CF
S2144007C0A0472B6B43F480132B636B6B43F480136F
S2144007D06B630120A0470020A0470E20A0470020C2
S2144007E0A0470020A0472B6B43F480132B636B6B12
S2144007F043F480136B630220A0470020A0470020EC
S214400800A0471920A0471C20A0472B6B43F4801319
S2144008102B636B6B43F480136B630820A047294E11
S2144008203088000AA0473078A0473088000AA047A2
S2144008303078A0472B6B43F480132B636B6B43F4E9
S21440084080136B634FF09F4140461F4B9847394695
S2144008501E4B98471E4B984706460620A0474FEA31
S21440086016694846A047C6F307484046A047C6F321
S21440087007273846A047F6B23046A0472B6B43F4CE
S21440088080132B636B6B43F480136B630720A04786
S2144008904846A0474046A0473846A0473046A0476F
S2144008A02B6B43F480132B636B6B43F480136B63A7
S2144008B0BDE8F883000E0E40D1104000A08601002F
S2144008C0A50440000400002041324000A933400007
S2144008D0E13440002DE9F04F85B004468A4615467F
S2144008E00393DFF880814FF09F415046C047564FF4
S2144008F02146B847DFF870B1D84706464FF09F41CB
S21440090002952846C04701942146B847D8478146B5
S21440091005204E4CA0474FEA1960A047C9F3074050
S214400920A047C9F30720A0475FFA89F0A047484D83
S2144009302B6B43F480132B636B6B43F480136B6316
S2144009400398444B98470420A047300EA047C6F370
S2144009500740A047C6F30720A047F0B2A0472B6B3E
S21440096043F480132B636B6B43F480136B635146E5
S2144009700298394B98470290DFF8F0A0BAF8020088
S214400980364B984701460298B8470290BAF800009E
S214400990324B98470299C0473149C0470199B847FA
S2144009A04FF09F41C0470199B847D84707460620B1
S2144009B0A0474FEA176B5846A047C7F3074840463C
S2144009C0A047C7F3072301931846A047FFB238460F
S2144009D0A0472B6B43F480132B636B6B43F480135D
S2144009E06B639AF80430B3B90720184CA0475846B2
S2144009F0A0474046A0470198A0473846A047144B1A
S214400A001A6B42F480121A635A6B42F480125A638D
S214400A1005B0BDE8F08FA6EB090675080720A0478D
S214400A20700EA047C6F34740A047C6F34720A047EE
S214400A30E8B2A047064B1A6B42F480121A635A6B10
S214400A4042F480125A63E3E7A9334000D1104000D5
S214400A50000E0E40AD0640002D304000993140005B
S214400A600000C04141324000E13440000400002014
S214400A701A4B1B789BB11A4B5B7983B9174B597845
S214400A8069B118469A78531CDAB2B2FBF1F301FB0F
S214400A901323DBB28370124A13441B7A03B97047A0
S214400AA070B5104C4FF40025C4F88050BFF34F8FFC
S214400AB0BFF36F8F508A0C4B9847084B99784A0083
S214400AC003EBC106013203EB82020B4493F8543029
S214400AD052687168054EB047256070BD800400209E
S214400AE00400002000E100E091314000D5084000BD
S214400AF010B502230F2210211846154CA047154A60
S214400B00D2F8143143F01003C2F81431124B19696D
S214400B10124A0A431A61124A116941F010011161E2
S214400B20196B41F480611963196B41F4F0711963D4
S214400B30116B41F0100111635A6B42F4580242F4B3
S214400B4000425A630120074B9847002010BD00BF63
S214400B503901400000020E40000E0E40E085D800ED
S214400B6000100E40710340002DE9F041A34B1B6876
S214400B70DAB2A34991F85E10002940F0E18002F015
S214400B800702042A18D0072A0BD0022A40F0B78161
S214400B90C3F3C2039A4A5370012382F85E30BDE81D
S214400BA0F081984A536B43F4480353630022944BB6
S214400BB083F85E20BDE8F081914A1278002A00F062
S214400BC09E818F4A92F85F20002A00F0A380DBB215
S214400BD0C3F3C0018C4A5173C3F300119173C3F33E
S214400BE04011D173C3F380111174DB095374002391
S214400BF0834981F85F300121517101E00133DBB256
S214400C007F4A5278934208DA7F4A1A44127A002A78
S214400C10F4D000217C4A5171F0E77B4B5B79002B86
S214400C202AD00120794CA0470020A0470020A047AA
S214400C300020A0470020A047724D2B6B43F4801342
S214400C402B636B6B43F480136B630020A04700203C
S214400C50A0470120A0470020A047E820A0472B6BD4
S214400C6043F480132B636B6B43F480136B630A204F
S214400C70674B9847BDE8F0810320644CA0470120AD
S214400C80A0470520A0472120A0472020A0475D4D33
S214400C902B6B43F480132B636B6B43F480136B63B3
S214400CA05C485B4B98470320A0470020A0470520A0
S214400CB0A0472120A0472020A0472B6B43F4801359
S214400CC02B636B6B43F480136B630020A0470020BC
S214400CD0A0470120A0470020A0470820A0472B6B34
S214400CE043F480132B636B6B43F480136B630120D8
S214400CF0A0470020A0470E20A0470020A047002085
S214400D00A0472B6B43F480132B636B6B43F4801329
S214400D106B63ACE7DBB2C3F3C0013B4A1172C3F36B
S214400D2000115172C3F340119172C3F38011D17216
S214400D30DB0913730122324B83F85F20BDE8F08154
S214400D402F4991F86030C81880F864200133DBB230
S214400D5081F860304A7802EBC2020B329342C0F20E
S214400D60CE800021264B5B78994255DA2648456965
S214400D70CC006218224B9E1896F864602E70466926
S214400D80551C1D4495F8645075704669951C1D4465
S214400D9095F86450B5704669D51C1D4495F8645066
S214400DA0F5708669151D1D4495F864503570866942
S214400DB0551D1D4495F8645075708669951D1D44F3
S214400DC095F86450B5708569D01D184490F8640055
S214400DD0E87008321A4492F864005A1882F85400B0
S214400DE04A00D3F8C8001C4460600132D3F8CC00F7
S214400DF003EB820358600131C9B2B3E7308001404B
S214400E0080040020000E0E4004000020D110400058
S214400E10A5044000A086010003EBC301394A5018E0
S214400E2090F864504C1C144494F8640040EA052042
S214400E30354C2080881C104490F86460CD1C1544C6
S214400E4095F8640040EA06206080081D104490F83B
S214400E5064004E1D164496F8645045EA0025881DE9
S214400E60104490F8640040EA0525C81D104490F8E8
S214400E70640040EA0520E06101F10800104490F863
S214400E8064002071013303EBC303134493F86400FA
S214400E900A31114491F8643043EA00236382002506
S214400EA082F85E5082F860504FF0010882F8008069
S214400EB0164A136B43F448031363154F3846154ED2
S214400EC0B047424629462846134B98473846B047CF
S214400ED0124D608AA8474FF48063032201464FF0C4
S214400EE08340DFF84480C0473846B047E0690C4B43
S214400EF09847608AA8474FF07E510A4B9847BDE80E
S214400F00F08100BF8004002004000020000E0E4048
S214400F10A0860100A50440004D10400091314000DD
S214400F20D103400045074000B9044000034B1B680E
S214400F30194341F48021016000207047500500208D
S214400F4041B9094A136823F080731360026813435B
S214400F5003607047044A136843F080731360026866
S214400F6013430360704700BF50050020044A1368CF
S214400F7023F480131360026813430360704700BF76
S214400F805005002003681943024B1B681943016053
S214400F90704700BF50050020C068704703281AD825
S214400FA0DFE800F002080E140C3102220A4B43F828
S214400FB0212070470C310022074B43F82120704710
S214400FC00C310322044B43F8212070470C31012298
S214400FD0014B43F8212070470080004030B1012883
S214400FE012D0022824D0032828D07047164A136807
S214400FF043F46023136002F5582202F560621368DA
S21440100043F40063136070470F4A136843F4502359
S214401010136002F5582202F56062136843F00043FD
S214401020136002F50072136843F480431360704700
S214401030054A136843F4302313607047024A136826
S21440104043F4E0231360D0E704800040F8B5074639
S2144010500C461646184A136843F400131360174BA1
S2144010601A6842F480521A601A6842F400521A60B3
S2144010701A6842F480421A60114D02232B60114BCD
S21440108001221A601A6822F002021A6008460E4BC5
S2144010909847214638460D4B98470C3455F824203F
S2144010A042EA062242F0040245F824202B6843F028
S2144010B001032B60F8BD00BF10040E40040E0E4026
S2144010C00080004004800040DD0F40009D0F40003F
S2144010D0044B1B6813F0020FFAD0034B1A681043F8
S2144010E018607047108000400C8000402DE9704327
S2144010F08AB004460D4600F0F3F9354B93F900608C
S214401100731C804689460DD022462B4620462946EB
S21440111001F052FF30B9002200232046294601F054
S21440112041FF20B1404649460AB0BDE87083294B8E
S2144011300890CDE90245CDE904450193204629466D
S214401140CEB9254D4FF0604400220023CDE9064538
S21440115001F000FF002833D002230093684601F0D8
S214401160BFF9A8B1089BC3B9DDE9068940464946A0
S2144011700AB0BDE87083194D002400220023CDE953
S214401180064501F0E7FE68B102239E420093E5D192
S21440119002F0C6F922230360E4E702F0C1F9089B97
S2144011A00360E1E70123022E00930BD102F0B8F969
S2144011B0212303600A4801F095F9CDE90601D1E7FD
S2144011C001230093684601F08BF90028F2D1EDE741
S2144011D02A0000209C364000FFFFEFC70000F0FFCB
S2144011E0A03640002DE9F04FDFF8F0928DB006466D
S2144011F00F4614461D4600F067FB99F90080B8F18B
S214401200FF3FCDE9000136D022462B4620462946F0
S21440121001F0D2FE834670BB32463B4630463946E6
S21440122001F0CAFE002282460023002840F0A0803B
S2144012303046394601F08EFE10B300220023204689
S214401240294601F087FE834600286AD001229C4B3F
S214401250029200210022CDF828A0CDE90467CDE90E
S2144012600645CDE908120393B8F1000F45D0954CDA
S2144012700023CDE90034DDE900010DB0BDE8F08F74
S214401280DDE9000101F026F98046002800F08B8059
S2144012904FF0000A4FF0000B52465B46DDE9000176
S2144012A001F058FE0028E6D03046394601F012F9E3
S2144012B00028E0D02046294601F00CF90028DAD074
S2144012C099F900307E4A039204210022022BCDE990
S2144012D00467CDE90645CDE908AB02910A9203D0F2
S2144012E002A801F0FDF868B902F01AF9222303605B
S2144012F008E000230024CDE9083402A801F0F0F805
S214401300002830D00A9B1BB102F00AF90A9B036002
S214401310DDE90834CDE90034DDE900010DB0BDE873
S214401320F08F2046294601F0D5F80028A3D00022A9
S21440133000232046294601F017FE00289BD099F945
S21440134000305F4ACDF828B00121CDE90467CDE9E9
S214401350064502910392002BCBD05B490020022B1E
S214401360CDE90801C9D102F0DBF821230360C9E7C3
S2144013702046294601F0EEFD00283FF47CAF514B55
S2144013804F49CDF828B001200022B8F1020FCDE930
S2144013900467CDE9064502900391CDE90823ACD118
S2144013A0CDE9002367E73046394601F093F8002838
S2144013B03FF46EAF2046294601F08CF800283FF4F3
S2144013C067AFDDE900231046194601F0F5FD002819
S2144013D058D1032399F900800293394B0A9003931E
S2144013E0CDE90467CDE9064500220023304639465C
S2144013F0B8F1000F26D1354F4FF06046CDE908676B
S21440140001F0B2FD00283FF46BAF0022304B20467F
S214401410294601F037FB04460D4601F069F80246BE
S2144014200B462046294601F095FD40BB294B99F9CD
S21440143000804FF06042CDE90823B8F1020F7FF4F8
S2144014404FAF51E7244F0026CDE9086701F08CFDE9
S2144014500028F2D000221E4B2046294601F012FBFF
S21440146004460D4601F044F802460B4620462946FF
S21440147001F070FD18B9144B0022CDE9082399F904
S2144014800080DAE799F900900D4BCDF828800122CC
S214401490CDE90467CDE9064502920393B9F1000F02
S2144014A03FF427AF002200231046194601F014FCF3
S2144014B0B9F1020FCDE908013FF455AF1DE700BF73
S2144014C0A43640000000F03F0000F0FFFFFFEF476B
S2144014D00000E03FFFFFEFC70000F07F2A0000203B
S2144014E02DE9F04FB1F5801F85B006460F460B46F6
S2144014F05ADA024621F00044224300F0F8800029E0
S214401500C0F27A810022D64B01F0BCFAD54A0B468F
S214401510934206460F466FF0350C4ADCC3F313057C
S21440152005F5152E0EF6647E0EF4801E8EF07F5264
S21440153082F440121C1542EA0507A4F2FF346444C4
S2144015400022C94B3046394604EB1E5401F0E6F8FB
S214401550AB1CC3F31303022B82468B464FF00002AC
S21440156030DC002301F0F6FC002800F0C980002C97
S21440157000F04B81204601F01FFAA5A3D3E90023D3
S21440158006460F4601F07EFAA3A3D3E9002304469D
S2144015900D463046394601F075FA02460B4620465F
S2144015A0294601F0BDF80AE0AE4A93424FF0000CDF
S2144015B0B4DD32463B463046394601F0B1F805B018
S2144015C0BDE8F08F4FF0804301F0AAF802460B4684
S2144015D05046594601F080FB064620460F4601F02D
S2144015E0EBF93246CDE900013B4630463946CDE977
S2144015F0026701F047FA02460B468046894601F0EC
S21440160041FA87A3D3E9002306460F4601F03AFA8B
S21440161085A3D3E9002301F083F832463B4601F028
S21440162031FA83A3D3E9002301F07AF832463B46E9
S21440163001F028FA80A3D3E9002301F071F842466E
S2144016404B4601F01FFA7EA3D3E900238046894625
S2144016503046394601F016FA7BA3D3E9002301F061
S2144016605FF832463B4601F00DFA79A3D3E90023F2
S21440167001F056F832463B4601F004FA0B46024665
S2144016804946404601F04CF8A5F5C223C5F5D72596
S214401690A3F27A4351351D43002D8046894656DDD8
S2144016A00022724B5046594601F0ECF952465B46D2
S2144016B001F0E8F906460F46002C68D132463B4614
S2144016C04046494601F02CF8DDE9022301F0DAF9FC
S2144016D002460B463046394601F020F802460B4695
S2144016E05046594601F01AF805B0BDE8F08F002282
S2144016F0002300205E4901F0EFFA05B0BDE8F08F08
S21440170055A3D3E900235046594601F0BBF902469B
S2144017100B460020554901F001F8524606460F4652
S2144017205B465046594601F0ADF902460B463046F8
S214401730394601F0A7F906460F46002C40F09A803D
S21440174002460B465046594600F0E8FF37E7002C65
S21440175000F0A4802EA3D3E90023DDE9000101F0C8
S21440176091F942464B4604460D465046594600F0CF
S214401770D5FFDDE9022301F085F927A3D3E900234D
S21440178006460F46DDE9000101F07CF921E020A382
S214401790D3E90023DDE9000101F074F932463B4607
S2144017A004460D464046494600F0BAFFDDE90223AE
S2144017B001F068F918A3D3E9002380468946DDE99D
S2144017C0000101F05FF902460B464046494600F0EC
S2144017D0A7FF02460B463046394600F09FFF52466A
S2144017E05B4600F09BFF02460B462046294600F02B
S2144017F095FF05B0BDE8F08F02460B4600F08EFF21
S2144018000022002301F068FAD9E600200021D6E63F
S2144018100000E0FE422EE63F763C7935EF39EA3D61
S21440182044523EDF12F1C23FDE03CB966446C73FCA
S214401830599322942449D23F935555555555E53FE3
S2144018409FC678D0099AC33FAF788E1DC571CC3FEE
S21440185004FA97999999D93F555555555555D53FB9
S21440186000005043FFFFEF7F0000F03F0000E03FE6
S214401870000050C3204601F09FF80FA3D3E9002391
S2144018808046894601F0FEF80DA3D3E900230446BE
S2144018900D464046494601F0F5F89AE702460B46A3
S2144018A05046594600F03AFFDDE9022301F0EAF8D7
S2144018B014E700BFAFF300800000E0FE422EE63F94
S2144018C0763C7935EF39EA3D2DE9F04F23F0004775
S2144018D057EA020493B037D0674C21F00046A64240
S2144018E083460D4629DC9A46964625D0A74224DCF8
S2144018F0614CA74279D0002D89468046CDE9002329
S21440190077DB0024BEF1000F2CD15B4B9F4200F0EA
S2144019108B805A4B9F4261D0BAF1804F00F0BA8319
S214401920574B9A451ED1002D1CDB4046494613B006
S214401930BDE8F04F00F00EBD58B106F1404606F542
S214401940801656EA0B0306D14C49002013B0BDE87A
S214401950F08FB742CCDD4B4813B0BDE8F04F00F0F7
S214401960C1BD00244046494600F0B0FDBBF1000F23
S21440197019D126B1414B25F040429A4213D1BAF1D3
S214401980000FC0F2BC83002DE0DA06F1404606F5B3
S214401990801656EA040300F08F84012CD6D101F15C
S2144019A000431946D2E7ED0F013D54EA05034ED0F9
S2144019B0354B9F426EDD03F104739F4240F3E8834C
S2144019C0324B9E424EDDBAF1000F4EDD28A3D3E9DE
S2144019D000231046194601F055F8B7E7BAF1000F54
S2144019E0C0F23C8440464946B0E7BEF1000F82D084
S2144019F0A3E7274B9F4228DCA3F154739F4280DD28
S214401A003B15A3F2FF33142B40F33E84C3F134035B
S214401A102EFA03F202FA03F39E457FF472AF02F009
S214401A200102C2F102046DE706F1404303F580135C
S214401A3053EA0B0388D0154B9E4240F33283BAF1EB
S214401A40000F12DBDDE9000180E702245AE7424638
S214401A504B464046494600F061FE02460B4601F0C2
S214401A603BF973E7BAF1000FB0DB002000216DE7C9
S214401A709C7500883CE4377E0000F07F0000F03F15
S214401A800000E03FA03640000000E041FFFFEF3F8F
S214401A90FFFF3F43B6F5801F4FF0000205DAD44BF8
S214401AA000F0F0FF6FF034020E463315D14FC6F308
S214401AB01306A3F2FF33134446F07F5ABE421A463B
S214401AC00D934AF4401A40F32183CB4B9E4240F399
S214401AD0FD83134601330D93C84B0022CDE9062300
S214401AE000270026CDE90867CDE90E67AAF5801ADB
S214401AF00027024653465146CDE90A23DDE9062330
S214401B0000F00CFEDDE9062380468946DDE90A0141
S214401B1000F006FE02460B460020B84901F0DCF80D
S214401B200A460146CDE9101213464946024640464B
S214401B3000F0A8FF4FEA6A0343F000538C46834602
S214401B4003F50023CDE904BCDA468B46D9190023B9
S214401B50CDE902AB0293DDE902AB002006460F4614
S214401B6002460B465046594600F08CFF02460B464E
S214401B704046494600F0D2FDDDE9062380468946C8
S214401B803046394600F0CAFD02460B46DDE90A01FA
S214401B9000F0C4FD52465B4600F074FF02460B461A
S214401BA04046494600F0BAFDDDE9102300F06AFFE2
S214401BB0DDE90467CDE9060132463B463046394604
S214401BC000F060FF78A3D3E9002306460F4600F0F6
S214401BD059FF77A3D3E9002300F0A2FD32463B46E7
S214401BE000F050FF74A3D3E9002300F099FD32467D
S214401BF03B4600F047FF72A3D3E9002300F090FD78
S214401C0032463B4600F03EFF6FA3D3E9002300F088
S214401C1087FD32463B4600F035FF6DA3D3E90023EF
S214401C2000F07EFD3246804689463B463046394681
S214401C3000F028FF02460B464046494600F022FF89
S214401C40524606460F465B46DDE9040100F068FD55
S214401C50DDE9062300F016FF32463B4600F060FD05
S214401C605246804689465B465046594600F00AFF33
S214401C700022634BCDE90A0100F052FD42464B4636
S214401C8000F04EFD02980F46064632463B4650460A
S214401C90594600F0F7FE002282468B46584B3046A7
S214401CA0394600F03BFDDDE90A2300F037FD0246E9
S214401CB00B464046494600F031FDDDE9042300F07E
S214401CC0E1FE3246804689463B46DDE9060100F0A5
S214401CD0D9FE02460B464046494600F021FD804666
S214401CE0894602460B4650465946CDE904AB00F0BD
S214401CF017FDDDE902AB38A3D3E9002350460F4673
S214401D0000F0C0FEDDE90423CDE902013946504625
S214401D1000F004FD02460B464046494600F0FEFCF5
S214401D202FA3D3E9002300F0ADFE2FA3D3E9002371
S214401D30804689465046394600F0A4FE02460B4689
S214401D404046494600F0ECFCDDE90E2300F0E8FC96
S214401D5080460D98894600F02FFE424606460F46BE
S214401D604B46DDE9020100F0DBFCDDE9082300F02C
S214401D70D7FC32463B4600F0D3FC32463B46504604
S214401D808B4600F0CBFCDDE9082300F0C7FCDDE91C
S214401D90022300F0C3FC02460B464046494600F08C
S214401DA0BDFC80462EE000BFEF4E454A287ECA3F27
S214401DB065DBC9934A86CD3F01411DA96074D13F7A
S214401DC04D268F515555D53FFFAB6FDBB66DDB3F8C
S214401DD0033333333333E33F000000E009C7EE3FBD
S214401DE0FD033ADC09C7EE3FF5015B14E02F3EBE2B
S214401DF0000040438E98030079B60B000000F03F89
S214401E00000008408946013C54EA0503DDE900012C
S214401E1014BFD94CD94C0023CDE9043403460C46B4
S214401E20CDE9023400230293DDE9024522462B46E3
S214401E3000F074FC52465B4600F024FEDDE90023C9
S214401E4006460F464046494600F01CFE02460B46F4
S214401E503046394600F064FC2246804689462B468A
S214401E6050465946CDE9008900F00CFE0B46024626
S214401E7006460F464046494600F052FCC04B994243
S214401E8004460D468A4640F3168101F13F4303F56A
S214401E90E003034340F0EA81A3A3D3E90023DDE94E
S214401EA0000100F03DFC3246804689463B462046CF
S214401EB0294600F033FC02460B464046494601F0B0
S214401EC071F8002840F0D281A8464FEA28534FF4D4
S214401ED08012A3F2FE3342FA03F35344C3F30A528A
S214401EE0A84DA2F2FF321541C3F3130423EA0501BD
S214401EF00020C2F1140B44F48014BAF1000F0246DD
S214401F000B4644FA0BFB30463946B8BFCBF1000BC4
S214401F1000F004FC02460B4606460F46DDE900018B
S214401F2000F0FEFB4FEA0B5A0D46002480A3D3E98F
S214401F3000232046294600F0A5FD324680468946C5
S214401F403B462046294600F0E9FB02460B46DDE9C3
S214401F50000100F0E3FB78A3D3E9002300F092FDF4
S214401F6077A3D3E9002306460F462046294600F0CD
S214401F7089FD02460B463046394600F0D1FB064600
S214401F800F4602460B464046494600F0C9FB4246CD
S214401F904B4604460D4600F0C1FB02460B46304613
S214401FA0394600F0BBFB2246804689462B462046F3
S214401FB0294600F067FD64A3D3E9002306460F4692
S214401FC000F060FD62A3D3E9002300F0A7FB324691
S214401FD03B4600F057FD60A3D3E9002300F0A0FB8A
S214401FE032463B4600F04EFD5DA3D3E9002300F0A9
S214401FF095FB32463B4600F045FD5BA3D3E9002304
S21440200000F08EFB32463B4600F03CFD02460B4657
S2144020102046294600F082FB06460F4602460B46FF
S2144020202046294600F02EFD0022CDE900014FF063
S21440203080433046394600F071FB02460B46DDE9E8
S214402040000100F049FE424606460F464B462046F3
S214402050294600F017FD42464B4600F061FB02461B
S2144020600B463046394600F059FB22462B4600F0D8
S21440207055FB02460B4600203F4900F04FFB8A4482
S214402080BAF5801FC0F233815146DDE9042300F0E3
S214402090F9FC5BE4424640464B46494600F0F2FCBB
S2144020A054E4BAF1000FBFF6E0ACDDE90034184660
S2144020B004F100414AE4344B21F00048984540F38F
S2144020C0F280324B0B4403430CD132463B4600F081
S2144020D025FB02460B46DDE9000100F04FFF0028D5
S2144020E03FF4F3AEDDE9040121A3D3E9002300F079
S2144020F0C9FC1FA3D3E9002300F0C4FC26E4024633
S2144021000B4600201C4900F0E7FD3CE4002200237B
S214402110CDE90823CDE90E23174B00220027CDE951
S2144021200623E6E4AFF30080FE822B654715973C16
S21440213000000000432EE63FEF39FAFE422EE63F0F
S214402140396CA80C615C20BED0A4BE726937663E6E
S214402150F16BD2C541BDBB3E2CDE25AF6A56113F62
S21440216093BDBE166CC1663F3E5555555555C53F49
S21440217059F3F8C21F6EA5010000F03F0000F0BF03
S214402180FFFF8F40FFFF0F00FFCB904000346F3FB4
S2144021906B4B9E427FF766AC6A4B9E423FF713AC52
S2144021A00022684B00F0BAFA57A3D3E9002306464C
S2144021B00F4600F067FC56A3D3E9002380468946C5
S2144021C03046394600F05EFC002282468B465E4B27
S2144021D03046394600F056FC02460B464EA1D1E941
S2144021E0000100F09BFA32463B4600F04BFC0246AC
S2144021F00B460020554900F091FA3246CDE90201DF
S2144022003B463046394600F03DFC02460B46DDE98B
S214402210020100F037FC42A3D3E9002300F032FC71
S21440222002460B465046594600F078FA02460B46A0
S21440223006460F464046494600F072FA42464B462E
S214402240002082468B4600F069FA02460B4630462E
S214402250394600F063FA80468946D4E542464B4606
S2144022600020384900F038FDFFF770BBDDE9040177
S2144022702DA3D3E9002300F005FC2BA3D3E90023CC
S21440228000F000FCFFF762BBBEF1000F7FF469ABC5
S214402290C3F1140347FA03F202FA03F39F422AD02B
S2144022A07446FFF736BB294B98453FF70EAEDDE93F
S2144022B002239246934638E602460B4600F02EFA34
S2144022C002460B4600F008FDFFF740BB18A3D3E9D3
S2144022D00023CDE9082318A3D3E90023CDE90E2334
S2144022E01B4B00224FF48027CDE9062301E45A46D3
S2144022F000F08AF9C9E602F00102C2F10204FFF7D3
S21440230008BB00BFAFF30080000000604715F73FF2
S21440231044DF5DF80BAE543E555555555555D53FA3
S214402320FE822B654715F73F9C7500883CE4377E58
S2144023300000004003B8E23F06D0CF43EBFD4C3EE2
S214402340FEFFEF3F0000F03F0000D03F0000E03FC0
S2144023500000F83F2DE9F8435B4F8F4305460C4697
S21440236000F0928000290B4602466FDD0F157BD0A9
S214402370A7F2FF37C3F31303F80743F480135CD484
S21440238003EBD27100260B447F105200B64616204F
S2144023904FF400110EEB01049C424FEAD2754FEA0F
S2144023A0420203DC1B1B04EB010E0E44013805EB16
S2144023B043034FEA5101EDD1844620244FF00041BB
S2144023C009E020D003EBD275013C4FEA51012B4483
S2144023D04FEA420220D0734501EB0C05F1DD002D9B
S2144023E005EB010C09DBF0469542A3EB0E0300D942
S2144023F0013B521B0844C646E4E7BCF1000FF2DB43
S2144024000EF10108F0E79542DCD8002D05EB010CF3
S21440241044DB98460023ECE7134313D1400873107F
S21440242003F17F5303F50013F20703EB075948BF48
S21440243040F000404946BDE8F8835B0003EBD273AA
S21440244052009DE7411C2DD00130E7E7064621F0BB
S21440245000473E43EFD069BB0F46D30A153F5205AF
S214402460002BFAD0DE0220D4002400E004465B00B5
S214402470DD0204F10100F9D5C0F1200122FA01F194
S2144024800B433F1B824073E702460B4600F0FAFAC6
S2144024902A46234600F044F9BDE8F883BCF1000F15
S2144024A0AEDAB6E701362046B9E7002020214FF0E5
S2144024B0FF34E3E702460B4600F030F902460B468F
S2144024C000F00AFCB7E700BF0000F07F21F00041B3
S2144024D0704700BF41F0004101F58010C00F7047C3
S2144024E00020704700200149704700BF0000F87F79
S2144024F0F0B5C1F30A5EAEF2FF36132E83B0024645
S2144025000B460C464FEAD17507462EDC002E49DBBB
S2144025103A49314103EA010010432BD049080B40A9
S21440252053EA02070CD04FF48023132E24EA01010D
S21440253043FA06F444EA01040CBF4FF00047002774
S2144025402F4B03EBC5052146D5E9004538462246C4
S2144025502B4600F0E5F8CDE9000122462B46DDE9A2
S214402560000100F0DBF803B0F0BD332E06DDB6F513
S214402570806F40D01046194603B0F0BDAEF2134E01
S2144025804FF0FF3121FA0EF10842F3D049080842D5
S214402590D6D04FF0804320EA010143FA0EFE4EEAC1
S2144025A00107CDE721F000410143E3D0C3F3130117
S2144025B0134E0143C1F1000C06EBC506D6E9006791
S2144025C04CEA010C4FEA1C3C5C0C64040CF40023FF
S2144025D043EA040132463B4600F0A2F8CDE900014A
S2144025E032463B46DDE9000100F098F821F0004411
S2144025F044EAC571C0E700F093F8BDE7FFFF0F005F
S214402600A836400000000000F8B5C1F30A5604465C
S2144026100D460B4617460EBB21F000430343864645
S21440262025D00022344B00F02DFA344A9742044617
S2144026300D460B462ADBC1F30A56363E3E4440F270
S214402640FE72964228DC002E12DD23F0FF4323F470
S214402650E00343EA065520462946F8BD40F2FF729D
S2144026609642EBD102460B4600F05AF8F8BDF8BD4C
S21440267016F1350F1DDA4CF250339F4222462B4658
S21440268025DC19A1D1E9000100F03CF816A3D3E9F6
S214402690002300F0F7F9F8BD22462B4614A1D1E9F5
S2144026A0000100F02FF812A3D3E9002300F0EAF966
S2144026B0F8BD23F0FF4323F4E003363643EA0655DD
S2144026C02046294600220E4B00F0DCF9F8BD08A152
S2144026D0D1E9000100F016F805A3D3E9002300F085
S2144026E0D1F9F8BDAFF3008059F3F8C21F6EA501CB
S2144026F09C7500883CE4377E00005043B03CFFFFAA
S2144027000000903C03F0004321F0004242EA0301FF
S214402710704700BF81F0004102E000BF83F00043F5
S21440272030B54FEA41044FEA430594EA050F08BF27
S21440273090EA020F1FBF54EA000C55EA020C7FEAEB
S214402740645C7FEA655C00F0E2804FEA5454D4EB68
S2144027505555B8BF6D420CDD2C4480EA020281EA32
S214402760030382EA000083EA010180EA020281EA6A
S2144027700303362D88BF30BD11F0004F4FEA0131BC
S2144027804FF4801C4CEA113102D0404261EB4101CB
S21440279013F0004F4FEA03334CEA133302D0524251
S2144027A063EB430394EA050F00F0A780A4F101040D
S2144027B0D5F1200E0DDB02FA0EFC22FA05F2801847
S2144027C041F1000103FA0EF2801843FA05F359412D
S2144027D00EE0A5F120050EF1200E012A03FA0EFCAC
S2144027E028BF4CF0020C43FA05F3C01851EBE371D6
S2144027F001F0004507D54FF0000EDCF1000C7EEBF3
S21440280000006EEB0101B1F5801F1BD3B1F5001F30
S2144028100CD349085FEA30004FEA3C0C04F101044F
S2144028204FEA445212F5800F80F09A80BCF1004F78
S21440283008BF5FEA500C50F1000041EB045141EAFA
S214402840050130BD5FEA4C0C404141EB010111F4FB
S214402850801FA4F10104E9D191F0000F04BF0146A6
S2144028600020B1FA81F308BF2033A3F10B03B3F184
S21440287020020CDA0C3208DD02F1140CC2F10C0214
S21440288001FA0CF021FA02F10CE002F11402D8BF72
S214402890C2F1200C01FA02F120FA0CFCDCBF41EA3E
S2144028A00C019040E41AA2BF01EB0451294330BD0D
S2144028B06FEA04041F3C1CDA0C340EDC04F11404EA
S2144028C0C4F1200220FA04F001FA02F340EA0300C1
S2144028D021FA04F345EA030130BDC4F10C04C4F107
S2144028E0200220FA02F001FA04F340EA03002946E7
S2144028F030BD21FA04F0294630BD94F0000F83F431
S214402900801306BF81F480110134013D4EE77FEA13
S214402910645C18BF7FEA655C29D094EA050F08BF5F
S21440292090EA020F05D054EA000C04BF1946104640
S21440293030BD91EA030F1EBF0021002030BD5FEA84
S214402940545C05D14000494128BF41F0004130BDAC
S21440295014F580043CBF01F5801130BD01F0004500
S21440296045F0FE4141F470014FF0000030BD7FEA73
S214402970645C1ABF194610467FEA655C1CBF0B466E
S214402980024650EA013406BF52EA033591EA030F85
S21440299041F4002130BD00BF90F0000F04BF00217D
S2144029A0704730B54FF4806404F132044FF00005B0
S2144029B04FF0000150E700BF90F0000F04BF002129
S2144029C0704730B54FF4806404F1320410F000458F
S2144029D048BF40424FF000013EE700BF42004FEA8A
S2144029E0E2014FEA31014FEA02701FBF12F07F4307
S2144029F093F07F4F81F06051704792F0000F14BF04
S214402A0093F07F4F704730B54FF4607401F0004547
S214402A1021F0004120E700BF50EA010208BF70479E
S214402A2030B54FF000050AE050EA010208BF704793
S214402A3030B511F0004502D5404261EB41014FF4FC
S214402A40806404F132045FEA915C3FF4DCAE4FF000
S214402A5003025FEADC0C18BF03325FEADC0C18BFE7
S214402A60033202EBDC02C2F1200300FA03FC20FA38
S214402A7002F001FA03FE40EA0E0021FA02F1144485
S214402A80C1E600BF70B54FF0FF0C4CF4E06C1CEA9A
S214402A9011541DBF1CEA135594EA0C0F95EA0C0F0F
S214402AA000F0DEF82C4481EA030621EA4C5123EA82
S214402AB04C5350EA013518BF52EA033541F48011B1
S214402AC043F4801338D0A0FB02CE4FF00005E1FB64
S214402AD002E506F00042E0FB03E54FF00006E1FBAE
S214402AE003569CF0000F18BF4EF0010EA4F1FF04F1
S214402AF0B6F5007F64F5407404D25FEA4E0E6D4131
S214402B0046EB060642EAC62141EA55514FEAC52041
S214402B1040EA5E504FEACE2EB4F1FD0C88BFBCF5BD
S214402B20E06F1ED8BEF1004F08BF5FEA500E50F16E
S214402B30000041EB045170BD06F0004646EA010134
S214402B4040EA020081EA0301B4EB5C04C2BFD4EB66
S214402B500C0541EA045170BD41F480114FF0000E5F
S214402B60013C00F3AB8014F1360FDEBF002001F0CD
S214402B70004170BDC4F10004203C35DA0C341BDC47
S214402B8004F11404C4F1200500FA05F320FA04F019
S214402B9001FA05F240EA020001F0004221F000414D
S214402BA010EBD37021FA04F642EB06015EEA430EC0
S214402BB008BF20EAD37070BDC4F10C04C4F12005F0
S214402BC000FA04F320FA05F001FA04F240EA0200A3
S214402BD001F0004110EBD37041F100015EEA430E74
S214402BE008BF20EAD37070BDC4F1200500FA05F294
S214402BF04EEA020E20FA04F301FA05F243EA020313
S214402C0021FA04F001F0004121FA04F220EA020021
S214402C1000EBD3705EEA430E08BF20EAD37070BD67
S214402C2094F0000F0FD101F00046400041EB010147
S214402C3011F4801F08BF013CF7D041EA060195F029
S214402C40000F18BF704703F00046520043EB0303E3
S214402C5013F4801F08BF013DF7D043EA06037047D0
S214402C6094EA0C0F0CEA135518BF95EA0C0F0CD0DB
S214402C7050EA410618BF52EA4306D1D181EA030121
S214402C8001F000414FF0000070BD50EA410606BF1B
S214402C901046194652EA430619D094EA0C0F02D160
S214402CA050EA013613D195EA0C0F05D152EA0336A5
S214402CB01CBF104619460AD181EA030101F00041C3
S214402CC041F0FE4141F470014FF0000070BD41F00C
S214402CD0FE4141F4780170BD70B54FF0FF0C4CF4E6
S214402CE0E06C1CEA11541DBF1CEA135594EA0C0F05
S214402CF095EA0C0F00F0A7F8A4EB050481EA030E52
S214402D0052EA03354FEA013100F088804FEA033338
S214402D104FF0805545EA131343EA12634FEA022206
S214402D2045EA111545EA10654FEA00260EF00041C7
S214402D309D4208BF964244F1FD0404F5407402D219
S214402D405B084FEA3202B61A65EB03055B084FEAAA
S214402D5032024FF480104FF4002CB6EB020E75EBA7
S214402D60030E22BFB61A754640EA0C005B084FEACF
S214402D703202B6EB020E75EB030E22BFB61A75464C
S214402D8040EA5C005B084FEA3202B6EB020E75EB97
S214402D90030E22BFB61A754640EA9C005B084FEA0F
S214402DA03202B6EB020E75EB030E22BFB61A75461C
S214402DB040EADC0055EA060E18D04FEA051545EA0B
S214402DC016754FEA06164FEAC30343EA52734FEAB4
S214402DD0C2025FEA1C1CC0D111F4801F0BD141EA2D
S214402DE000014FF000004FF0004CB6E711F4801F92
S214402DF004BF01430020B4F1FD0C88BFBCF5E06F72
S214402E003FF6AFAEB5EB030C04BFB6EB020C5FEA81
S214402E10500C50F1000041EB045170BD0EF0004ED6
S214402E204EEA113114EB5C04C2BFD4EB0C0541EA08
S214402E30045170BD41F480114FF0000E013C90E605
S214402E4045EA060E8DE60CEA135594EA0C0F08BFC9
S214402E5095EA0C0F3FF43BAF94EA0C0F0AD150EAC8
S214402E6001347FF434AF95EA0C0F7FF425AF10465B
S214402E7019462CE795EA0C0F06D152EA03353FF483
S214402E80FDAE1046194622E750EA410618BF52EA00
S214402E9043067FF4C5AE50EA41047FF40DAF52EAD4
S214402EA043057FF4EBAE12E74FF0FF3C06E000BF71
S214402EB04FF0010C02E000BF4FF0010C4DF804CD7E
S214402EC04FEA410C7FEA6C5C4FEA430C18BF7FEA3E
S214402ED06C5C1BD001B050EA410C0CBF52EA430C6C
S214402EE091EA030F02BF90EA020F0020704710F1EC
S214402EF0000F91EA030F58BF994208BF90422CBF7B
S214402F00D8176FEAE37040F0010070474FEA410C73
S214402F107FEA6C5C02D150EA013C07D14FEA430C91
S214402F207FEA6C5CD6D152EA033CD3D05DF8040B02
S214402F30704700BF8446104662468C461946634634
S214402F4000E000BF01B5FFF7B7FF002848BF10F10B
S214402F50000F01BD4DF808EDFFF7F4FF0CBF012050
S214402F6000205DF808FB00BF4DF808EDFFF7EAFFCC
S214402F7034BF012000205DF808FB00BF4DF808ED87
S214402F80FFF7E0FF94BF012000205DF808FB00BF7C
S214402F904DF808EDFFF7CEFF94BF012000205DF806
S214402FA008FB00BF4DF808EDFFF7C4FF34BF012013
S214402FB000205DF808FB00BF4FEA410C7FEA6C5CDE
S214402FC002D150EA013C0AD14FEA430C7FEA6C5CDE
S214402FD002D152EA033C02D14FF0000070474FF056
S214402FE0010070474A0011D212F5001211D20DD5D9
S214402FF06FF47873B3EB62520ED44FEAC12343F0BA
S214403000004343EA505323FA02F070474FF0000063
S214403010704750EA013002D14FF0FF3070474FF012
S2144030200000704780F0004002E000BF81F00041A1
S21440303042001FBF5FEA410392EA030F7FEA226C19
S2144030407FEA236C6AD04FEA1262D2EB1363C1BFA9
S214403050D218414048404140B8BF5B42192B88BF18
S214403060704710F0004F40F4000020F07F4018BF3B
S214403070404211F0004F41F4000121F07F4118BF5B
S214403080494292EA030F3FD0A2F1010241FA03FC03
S21440309010EB0C00C3F1200301FA03F100F00043EB
S2144030A002D5494260EB4000B0F5000F13D3B0F1B3
S2144030B0807F06D340084FEA310102F10102FE2A22
S2144030C051D2B1F1004F40EBC25008BF20F0010092
S2144030D040EA03007047490040EB000010F4000F40
S2144030E0A2F10102EDD1B0FA80FCACF1080CB2EBD3
S2144030F00C0200FA0CF0AABF00EBC2505242184332
S214403100BCBFD0401843704792F0000F81F40001D6
S21440311006BF80F400000132013BB5E74FEA4103A9
S2144031207FEA226C18BF7FEA236C21D092EA030F15
S21440313004D092F0000F08BF0846704790EA010F8F
S2144031401CBF0020704712F07F4F04D1400028BFBC
S21440315040F00040704712F100723CBF00F500009E
S214403160704700F0004343F0FE4040F400007047D4
S2144031707FEA226216BF08467FEA23630146420280
S21440318006BF5FEA412390EA010F40F48000704793
S2144031904FF0000304E000BF10F0004348BF404239
S2144031A05FEA000C08BF704743F0964301464FF075
S2144031B000001CE050EA010208BF70474FF00003D1
S2144031C00AE000BF50EA010208BF704711F0004312
S2144031D002D5404261EB41015FEA010C02BF8446E2
S2144031E00146002043F0B64308BFA3F18053A3F541
S2144031F00003BCFA8CF2083AA3EBC25310DB01FA88
S21440320002FC634400FA02FCC2F12002BCF1004F0B
S21440321020FA02F243EB020008BF20F0010070479C
S21440322002F1200201FA02FCC2F1200250EA4C00F0
S21440323021FA02F243EB020008BF20EADC70704736
S2144032404FF0FF0C1CEAD0521EBF1CEAD15392EA44
S2144032500C0F93EA0C0F6FD01A4480EA010C400220
S21440326018BF5FEA41211ED04FF0006343EA50107A
S21440327043EA5111A0FB01310CF00040B1F5000FBC
S2144032803EBF490041EAD3715B0040EA010062F16B
S2144032907F02FD2A1DD8B3F1004F40EBC25008BF55
S2144032A020F00100704790F0000F0CF0004C08BF73
S2144032B049024CEA502040EA51207F3AC2BFD2F140
S2144032C0FF0340EAC250704740F400004FF000034E
S2144032D0013A5DDC12F1190FDCBF00F00040704788
S2144032E0C2F10002410021FA02F1C2F1200200FAC6
S2144032F002FC5FEA310040F1000053EA4C0308BF8D
S21440330020EADC70704792F0000F00F0004C02BFDD
S214403310400010F4000F013AF9D040EA0C0093F058
S214403320000F01F0004C02BF490011F4000F013BB2
S214403330F9D041EA0C018FE70CEAD15392EA0C0F20
S21440334018BF93EA0C0F0AD030F0004C18BF31F08B
S214403350004CD8D180EA010000F00040704790F061
S214403360000F17BF90F0004F084691F0000F91F005
S214403370004F14D092EA0C0F01D142020FD193EACB
S2144033800C0F03D14B0218BF084608D180EA010053
S21440339000F0004040F0FE4040F40000704740F02F
S2144033A0FE4040F4400070474FF0FF0C1CEAD052FD
S2144033B01EBF1CEAD15392EA0C0F93EA0C0F69D059
S2144033C0A2EB030280EA010C49024FEA402037D0C4
S2144033D04FF0805343EA111143EA10130CF00040BB
S2144033E08B4238BF5B0042F17D024FF4000C8B42AB
S2144033F024BF5B1A40EA0C00B3EB510F24BFA3EB8B
S214403400510340EA5C00B3EB910F24BFA3EB91035A
S21440341040EA9C00B3EBD10F24BFA3EBD10340EAB4
S214403420DC001B0118BF5FEA1C1CE0D1FD2A3FF6FA
S21440343050AF8B4240EBC25008BF20F001007047AF
S2144034400CF0004C4CEA50207F32C2BFD2F1FF0352
S21440345040EAC250704740F400004FF00003013A83
S21440346037E792F0000F00F0004C02BF400010F427
S214403470000F013AF9D040EA0C0093F0000F01F03B
S214403480004C02BF490011F4000F013BF9D041EA5D
S2144034900C0195E70CEAD15392EA0C0F08D1420290
S2144034A07FF47DAF93EA0C0F7FF470AF084676E763
S2144034B093EA0C0F04D14B023FF44CAF08466EE73C
S2144034C030F0004C18BF31F0004CCAD130F000420A
S2144034D07FF45CAF31F000437FF43CAF5FE700BF62
S2144034E042000ED2B2F1FE4F0BD34FF09E03B3EB29
S2144034F0126209D44FEA002343F0004323FA02F055
S21440350070474FF00000704712F1610F01D1420240
S21440351002D14FF0FF3070474FF00000704700BFB9
S214403520014B1868704700BF2C00002070B50F4E46
S2144035300F4D761BB61018BF002405D0013455F841
S214403540043B9847A642F9D10A4E0B4D761B00F035
S214403550B5F8B61018BF002406D0013455F8043B21
S2144035609847A642F9D170BD70BD00BFC83640002E
S214403570C8364000D0364000C8364000024B13B133
S214403580024800F005B87047000000009D35400036
S214403590002301461A46184600F01EB838B50A4CB5
S2144035A00A4D641BA4100AD004F18043013B05EB8E
S2144035B08305013C55F804399847002CF9D1BDE8FD
S2144035C0384000F085B800BFE0364000DC364000AA
S2144035D0704700BF704700BF2DE9F8432C4D0646A4
S2144035E0286898460F469146FFF7F2FF294B1C681D
S2144035F0D4F84831002B3ED05A681F2A1CDC02F112
S214403600010E76B103EB82010124C1F88890D3F80D
S214403610880194402043022EC3F88801C1F80881EF
S21440362023D00232C3F804E0286843F82270FFF73C
S214403630D1FF0020BDE8F883174B0BB34FF4C8709A
S214403640AFF300800346D8B1D4F848210260002189
S21440365041600A46C4F848014FF0010EC0F8881190
S214403660C0F88C11002EDCD0CCE7D3F88C110C437C
S214403670C3F88C41D5E704F5A673C4F84831BBE7D8
S2144036802868FFF7A7FF4FF0FF30BDE8F88300BF7C
S21440369058040020B8364000000000006C6F6700F9
S2144036A000000000706F770000000000000030430C
S2144036B000000000000030C330000020F8B500BF16
S2144036C0F8BC08BC9E4670477D354000F10040007F
S2144036D0F8B500BFF8BC08BC9E467047CD00400019
S2144036E000093D0001000500010100000101010143
S2144036F00101010101016810480500204C05002029
S214403700C8000000FFFFFFFFFFFF01003000002061
S214403710000000001C03002084030020EC0300206F
S2144037200000000000000000000000000000000054
S2144037300000000000000000000000000000000044
S2144037400000000000000000000000000000000034
S2144037500000000000000000000000000000000024
S2144037600000000000000000000000000000000014
S2144037700000000000000000000000000000000004
S21440378000000000000000000000000000000000F4
S21440379000000000000000000000000000000000E4
S2144037A000000000000000000000000000000000D4
S2144037B000000000000000000100000000000000C3
S2144037C00E33CDAB34126DE6ECDE05000B00000088
S2144037D000000000000000000000000000000000A4
S2144037E00000000000000000000000000000000094
S2144037F00000000000000000000000000000000084
S2144038000000000000000000000000000000000073
S210403B30000000000000000054050020CB
S804400000BB
