S00E00004D41535445522E737265634A
S21440000038310020610A4000E50A4000E50A400019
S214400010E50A4000E50A4000E50A4000000000000E
S214400020000000000000000000000000E50A40005C
S214400030E50A400000000000E50A4000E50A4000EE
S214400040E50A4000E50A4000E50A40003506400063
S214400050E50A4000E50A4000E50A400000000000CE
S214400060A10D4000E50A400000000000E50A4000FF
S214400070E50A400000000000E50A4000E50A4000AE
S2144000800000000000000000E50A4000E50A4000CD
S214400090E50A4000E50A4000E50A4000E50A40005F
S2144000A0B1074000E50A40000000000000000000E4
S2144000B000000000E50A4000E50A4000E50A40006E
S2144000C0E50A4000E50A4000E50A400010B5054C48
S2144000D0237833B9044B13B10448AFF300800123AF
S2144000E0237010BD3C04002000000000D83C4000B7
S2144000F00C4B43B10C480D4910B5AFF300800C488B
S214400100036823B910BD0A48036833B97047094BE2
S214400110002BF7D0BDE810401847064B002BF5D013
S214400120184700BF00000000D83C400040040020B4
S214400130D83C40000000000090B583B000AF2A4A8B
S214400140294B1B6843F030031360274A264B1B6835
S21440015043F0C0031360254A244B1B6843F4807366
S2144001601360234B1A68234B10469847224C1CA317
S214400170D3E90023A04703460C46184621461F4CA9
S2144001804FF000021E4BA04703460C461946224637
S2144001901C4B0846114698470346DBB2FB711A498A
S2144001A0194B1A68FB791B029BB213430B60174A24
S2144001B0164B1B6843F0F0031360154A144B1B683C
S2144001C043F000531360134A124B1B6843F0080376
S2144001D0136000BF0C37BD4690BD00BFAFF3008034
S2144001E00000000080843E4110800340948003401D
S2144001F000000020392D400079304000BD2A4000E4
S2144002000000F03F853340000480034024800340D4
S21440021010040E400080034090B482B000AF044605
S214400220084611461A462346FB710346BB710B46E9
S2144002307B7113463B71884B4FF400425A60874BA4
S214400240874A1A60FB79012B5ED0022B00F08D8026
S214400250002B40F0B180834A824B1B6843F45C130A
S21440026043F008031360804B804A1A62804B1B6839
S21440027003F40033002B0CBF01230023DBB2002B1A
S21440028000D0F3E7BB79042B02D0082B0BD017E045
S214400290744A744B1B6823F45C1323F0700343F4D6
S2144002A05C13136019E06F4A6E4B1B6823F45C13B3
S2144002B023F0700343F45C1343F0100313600CE028
S2144002C0684A684B1B6823F45C1323F0700343F4BE
S2144002D05C1343F02003136000BF654B1B6803F4B8
S2144002E00033002B0CBF01230023DBB2002B00D0D1
S2144002F0F3E75C4A5B4B1B6823F09B7323F4803325
S21440030043F45C13136057E05649564B1A68594BF2
S21440031013430B60564B1B6803F00103002B0CBFC6
S21440032001230023DBB2002B00D0F3E74D4A4D4BB0
S2144003301B6843F09B7343F4803313604C4B1B683D
S21440034003F48033002B0CBF01230023DBB2002BC9
S21440035000D0F3E7434A434B1B6823F45C1323F077
S214400360080343F45C13136026E03E4A3D4B1B688B
S21440037043F45C1343F0020313603A4A394B1B685C
S21440038043F09B7343F480331360394B1B6803F48C
S2144003908033002B0CBF01230023DBB2002B00D0A0
S2144003A0F3E7304A2F4B1B6823F45C1323F0080313
S2144003B043F45C13136000BF7B79002B02D03B797B
S2144003C0002B0AD12C4B01221A60BB792B4A02FB28
S2144003D003F31A462A4B1A602CE02A49294B1A681E
S2144003E07B79013B1B041846274B0340387903436F
S2144003F0134343F0005343F47C530B601C4B1B6881
S21440040003F00203002B0CBF01230023DBB2002BBA
S21440041000D0F3E7184B02221A60BB797A7902FBC8
S21440042003F33A7993FBF2F3144A02FB03F31A46BA
S214400430134B1A600E4B1B6803F00803002B0CBFCF
S21440044001230023DBB2002B00D0F3E700BF0837C0
S214400450BD4690BC704700BF50140E40000A0E4088
S2144004600007000420040E4000040E400800370039
S21440047068040E4001FF370030040E4040420F0033
S2144004800000002028040E400000FF0780B483B020
S21440049000AF0346FB7197F90730002B0DDB094987
S2144004A097F907305B0997F90720D2B202F01F028E
S2144004B0012000FA02F241F8232000BF0C37BD4667
S2144004C080BC704700E100E080B483B000AF0346D4
S2144004D0FB7197F90730002B12DB0C4997F9073070
S2144004E05B0997F90720D2B202F01F02012000FAFA
S2144004F002F2203341F82320BFF34F8FBFF36F8FB4
S21440050000BF0C37BD4680BC704700BF00E100E02E
S21440051080B483B000AF0346FB7197F90730002BD9
S2144005200EDB0A4997F907305B0997F90720D2B2E4
S21440053002F01F02012000FA02F2603341F8232045
S21440054000BF0C37BD4680BC704700BF00E100E0EE
S21440055080B483B000AF03463960FB7197F907302B
S214400560002B0CDB0F4A97F9073018463B68DBB286
S2144005701B01D9B213180A4683F800230CE00A4937
S21440058097F90730DBB203F00F03043B3A68D2B268
S2144005901201D2B20B441A7600BF0C37BD4680BC5F
S2144005A0704700BF00E100E000ED00E080B500AF1E
S2144005B01548164B984700211348154B98474FF45B
S2144005C000411148134B98470320134B984703208C
S2144005D0124B984700210320114B98470320114B9C
S2144005E098474FF4003108480F4B984706480F4B42
S2144005F098470F4B1B78DBB243F00103DAB20C4B43
S2144006001A7000BF80BD00BF30140E403D09400048
S21440061011084000E5074000C904400011054000AD
S214400620510540008D044000C9084000690840005C
S2144006305804002080B582B000AF4FF40031154812
S214400640154B98471348154B98471248144B9847F4
S21440065078607B6803F00203002B16D0114B1B78A2
S214400660DBB203F00103002B14BF01230023DBB2EF
S214400670002B0AD00C4B01221A700A4B1B78DBB2B7
S21440068023F00103DAB2074B1A7000BF0837BD46A5
S21440069080BD00BF30140E4001094000990840005C
S2144006A03D09400058040020F704002080B483B081
S2144006B000AF0346FB710B490A4B1A68FB7913439C
S2144006C00B60094B1B6803F00403002B0CBF01238F
S2144006D00023DBB2002B00D0F3E700BF0C37BD464B
S2144006E080BC7047348001402080014080B485B093
S2144006F000AF0346FB80154A144B1B6843F40023A7
S2144007001360134A124B1B6843F018031360114BD7
S2144007101B68FA884FF47A7101FB02F2B3FBF2F3DE
S214400720043BDB08DBB2FB730B4AFB7B1946FB7BC7
S2144007301B029BB20B4343F440331360074B242207
S2144007401A6000BF1437BD4680BC704710040E4088
S214400750040E0E4000000020108001400080014042
S21440076080B483B000AF0346FB71084AFB791B0494
S21440077003F4FE031360064A054B1B6843F001036F
S214400780136000BF0C37BD4680BC704704800140F4
S2144007900080014080B400AF044A044B1B6843F01D
S2144007A00203136000BFBD4680BC70470080014016
S2144007B080B483B000AF094B1B687B607B6803F056
S2144007C01003002B04D0064B1B680133044A136009
S2144007D000BF0C37BD4680BC704700BF600001407C
S2144007E05C04002080B483B000AF78600B467B800A
S2144007F07A88064B1B68134343F480227B681A6052
S214400800002318460C37BD4680BC70476404002061
S21440081080B483B000AF78600B46FB70FB78002B4B
S2144008200DD0104B1B6843F080730E4A13607B68F4
S2144008301A680C4B1B681A437B681A600CE0094B1D
S2144008401B6823F08073074A13607B681A68054B61
S2144008501B681A437B681A6000BF0C37BD4680BCD5
S214400860704700BF6404002080B483B000AF786057
S214400870084B1B6823F48013064A13607B681A688B
S214400880044B1B681A437B681A6000BF0C37BD4692
S21440089080BC70476404002080B483B000AF7860AA
S2144008A0084B1B6843F48013064A13607B681A683B
S2144008B0044B1B681A437B681A6000BF0C37BD4662
S2144008C080BC70476404002080B485B000AF786078
S2144008D039607B681B68FB60FA683B681343FB60C3
S2144008E0064B1B68FA681343FB607B68FA681A601D
S2144008F000BF1437BD4680BC704700BF640400206C
S21440090080B485B000AF786039600023FB607B68B8
S2144009101B68FB603B68DB43FA681340FB60064B92
S2144009201B68FA681343FB607B68FA681A6000BF6E
S2144009301437BD4680BC70476404002080B483B042
S21440094000AF78607B68DB6818460C37BD4680BCD5
S2144009507047000080B483B000AF0346FB7197F940
S2144009600730002B0DDB094997F907305B0997F9EB
S2144009700720D2B202F01F02012000FA02F241F82C
S214400980232000BF0C37BD4680BC704700E100E026
S21440099080B582B000AF7860184A184B1B6843F4A5
S2144009A000431360164A164B1B6843F4C06313603B
S2144009B0144A144B1B6843F4807313601249134B5C
S2144009C01A687B681B01B2FBF3F30B60104B4FF4C5
S2144009D000621A600F4A0F4B1B6843F050031360C7
S2144009E00D4A0D4B1B6843F00103136008200B4B68
S2144009F0984700BF0837BD4680BD00BF54140E4020
S214400A00040E0E4010040E4020060E40000000204B
S214400A1004060E4000060E4008060E4055094000EB
S214400A2080B483B000AF0346FB710B4B1B6803F0EA
S214400A300203002B0CBF01230023DBB2002B00D0A7
S214400A40F3E70649054B1A68FB7913430B6000BF72
S214400A500C37BD4680BC704714060E401C060E4040
S214400A6080B582B000AF164B7B60164B3B607A6811
S214400A703B689A420CD007E03B681A1D3A607A6899
S214400A80111D796012681A603B680F4A9342F3D38F
S214400A900E4B3B6004E03B681A1D3A6000221A6029
S214400AA03B680B4A9342F6D30A4B7B600A4A7B6804
S214400AB023F07F039360094B9847094B9847FEE71E
S214400AC0D83C4000000000203C0400203C040020AD
S214400AD0342D00200000400000ED00E0853A400044
S214400AE0710B400080B400AFFEE7000080B483B0D6
S214400AF000AF0346FB7197F90730002B0DDB094921
S214400B0097F907305B0997F90720D2B202F01F0227
S214400B10012000FA02F241F8232000BF0C37BD4600
S214400B2080BC704700E100E080B483B000AF03466D
S214400B30FB7197F90730002B12DB0C4997F9073009
S214400B405B0997F90720D2B202F01F02012000FA93
S214400B5002F2203341F82320BFF34F8FBFF36F8F4D
S214400B6000BF0C37BD4680BC704700BF00E100E0C8
S214400B7090B583B000AF00237B6002230F22102184
S214400B800220704CA0474FF4C8706F4B98476F4B8D
S214400B9098474FF496406E4B98476E4A6D4B1B698C
S214400BA043F4100313616B4A6A4B1B6B43F4801388
S214400BB01363694B9847694B1B78002B0AD07B68B8
S214400BC0132B03DC7B6801337B6003E000237B60F0
S214400BD0634B9847634B1B78002B00F0B18008208E
S214400BE0614B9847614B1B78023B052B00F2A18076
S214400BF001A252F823F000BF110C4000330D400014
S214400C00010D4000330D4000210D4000210D4000F5
S214400C100120574B9847574B1B78DB005BB243F09D
S214400C2002035BB2DBB21846534B98470023FB7077
S214400C30FB78504A1278934215DAFB780833BB703B
S214400C40BA78FB7809339A4209D2BB784B4AD35CD0
S214400C501846494B9847BB780133BB70F0E7FB78A2
S214400C600133FB70E4E7434B1B780E337B707A7896
S214400C70404B1B7819339A4209D27B783F4AD35C63
S214400C8018463D4B98477B7801337B70EFE73C4BEB
S214400C909847384B1B780833384AD35C1B021AB245
S214400CA0344B1B7809333549CB5C1BB213431BB21C
S214400CB09AB2344B1A802F4B1B780A332F4AD35C98
S214400CC01B021AB22B4B1B780B332C49CB5C1BB246
S214400CD013431BB29AB22C4B1A80264B1B780C330C
S214400CE0264AD35C1B021AB2224B1B780D3323498B
S214400CF0CB5C1BB213431BB29AB2244B1A8018E04B
S214400D0001201B4B9847224B1B7818461A4B984796
S214400D10204B1B781846184B9847194B984708E0C5
S214400D200120134B98470720134B9847144B98477E
S214400D3000BF0C4B00221A700820174B98473AE722
S214400D4000BF38E719024000ED0640003901400078
S214400D5091094000000E0E409D114000F70400200F
S214400D60491440006B040020290B40006904002011
S214400D70610740006C040020AD064000700400206F
S214400D8095074000040000200600002008000020D0
S214400D90D3040020D4040020ED0A400000000000E8
S214400DA090B583B000AF984B1B687B607B6803F0C0
S214400DB00103002B00F07481944B1B68DAB2944B0D
S214400DC01A70944B1B78002B37D0934B1B78042B10
S214400DD028D0062B00F06181022B00D060E18F4BBB
S214400DE01B781A468A4B19788D4B99548B4B1B7837
S214400DF00133DAB2894B1A70884B1B781A46894BF6
S214400E001B7819339A42C0F04A81844B00221A70EC
S214400E10804B00221A70844B01221A70834B0022AA
S214400E201A703CE17A4B1A78814B1A70794B002243
S214400E301A707D4B01221A7032E1754B1B7803F015
S214400E400703DAB2744B1A70734B1B78072B00F209
S214400E50278101A252F823F0790E4000890E400007
S214400E60990E4000B70E4000E70F4000F70F4000D5
S214400E706D104000831040006E4B9847644B1B78C3
S214400E8018466D4B98470BE16C4B9847604B1B7868
S214400E901846694B984703E15D4B1B78DB10DAB286
S214400EA0604B1A705B4B01221A70594B1B781846E0
S214400EB0614B9847F4E0624B1A68624B104698477D
S214400EC0614C4FA3D3E90023A04703460C4619467E
S214400ED022465E4B08461146984703469BB21B0A7D
S214400EE09BB2DBB21846544B9847554B1A68554B45
S214400EF010469847544C42A3D3E90023A0470346E4
S214400F000C4619462246514B08461146984703461A
S214400F109BB2DBB21846484B98474D4B1A684D4B30
S214400F201046984703469BB21B0A9BB2DBB2184654
S214400F30414B9847464B1A68464B104698470346DF
S214400F409BB2DBB218463C4B9847434B1A68414B22
S214400F501046984703469BB21B0A9BB2DBB2184624
S214400F60354B98473C4B1A683A4B104698470346D1
S214400F709BB2DBB21846304B9847384B1A68354B15
S214400F801046984703469BB21B0A9BB2DBB21846F4
S214400F90294B9847314B1A682E4B104698470346C4
S214400FA09BB2DBB21846244B98472D4B1A68294B08
S214400FB01046984703469BB21B0A9BB2DBB21846C4
S214400FC01D4B9847264B1A68224B104698470346B7
S214400FD09BB2DBB21846184B9847144B1B78184602
S214400FE0154B98475CE00B4B01221A70084B1A7859
S214400FF01C4B1A7054E0064B1A781B4B1A704FE085
S214401000CDCCCCCCCC7A744014060E4018060E409C
S214401010680400206A040020690400206D04002053
S214401020700400206C0400206B040020FB040020A9
S214401030D4040020D5104000210A40009D114000F5
S214401040F00400207D2D4000252E400085334000D2
S214401050E4040020393A4000E0040020D804002090
S214401060DC040020D3040020D20400200E4B1B7862
S214401070DB10002B00D013E001200C4B984700BF3C
S2144010800EE00B4B98470B4B01221A70064B1B7811
S2144010901846064B984700BF02E000BF00E000BF7E
S2144010A000BF0C37BD4690BD68040020210A4000B2
S2144010B09D1140006B04002080B582B000AF786080
S2144010C07868034B9847034618460837BD4680BDA8
S2144010D01D1B400080B500AF214A214B5B6B43F49B
S2144010E0000353631E4A1E4B1B6B43F4801313636B
S2144010F01C4B00221A701C4B00221A701B4B0022FD
S2144011001A701B4B00221A701A4B00221A701A4B88
S21440111000221A70194B00221A704FF40062002108
S2144011201748184B98474FF4006200211648154B55
S21440113098474FF4006200211448124B98474FF4EA
S2144011400062002112480F4B98474FF4006200217E
S21440115010480C4B9847104B984700BF80BD00BFC7
S214401160000E0E40F4040020F5040020F604002093
S214401170FB040020F8040020F9040020FA040020B4
S214401180FC040020D53A4000FC0C0020FC14002053
S214401190FC1C0020FC240020AD05400080B400AFBD
S2144011A0064A064B1B6B43F400031363044B0022B2
S2144011B01A7000BFBD4680BC704700BF000E0E4090
S2144011C0F704002080B500AF584B1B78002B51D158
S2144011D0574B1B881A46574B10469847564B1A682B
S2144011E0564B114698470346002B0CD0544B1B7861
S2144011F00133DAB2524B1A70514B1B78312B02DD59
S214401200504B01221A70504B1B881A46494B1046C9
S21440121098474E4B1A68494B114698470346002B51
S2144012200CD04B4B1B780133DAB2494B1A70484B03
S2144012301B78312B02DD474B01221A70464B1B8828
S2144012401A463C4B10469847444B1A683B4B11464F
S21440125098470346002B40D0414B1B780133DAB207
S2144012603F4B1A703E4B1B78312B36DD3D4B0122EF
S2144012701A7032E02D4B1B785BB2DBB2DB09DAB278
S214401280304B1A70294B1B7803F04003002B14BFD9
S21440129001230023DAB22F4B1A70244B1B7803F03D
S2144012A02003002B14BF01230023DAB22D4B1A7003
S2144012B0244B1B789B005AB2264B1B785B005BB2D4
S2144012C013435AB2274B1B785BB213435BB2DAB276
S2144012D0254B1A70154B00221A701A4B1B78002BA0
S2144012E007D11C4B1B78002B03D11E4B1B78002BC1
S2144012F019D0144B1B789B005AB2164B1B785B00D8
S2144013005BB213435AB2174B1B785BB213435BB2C4
S214401310DAB2154B1A70154A144B5B6B43F48013C4
S2144013205363134B984700BF80BD00BFD2040020D4
S21440133004000020D9354000F0040020BD394000AC
S214401340FA040020F404002006000020E4040020F4
S214401350F8040020F504002008000020E0040020E7
S214401360F9040020F6040020FB040020000E0E4086
S2144013709D11400080B485B000AFF860B9607A60D7
S2144013807B681B689B00FA681344BA681A607B68DF
S2144013901B685A1C7B681A607B681B68B3F5007F25
S2144013A002DB7B6800221A6000BF1437BD4680BC53
S2144013B07047000080B584B000AF78604FF00003FF
S2144013C0FB600023BB60BB68B3F5007F0EDABB68EA
S2144013D09B007A6813441A68094B1146F868984788
S2144013E00346FB60BB680133BB60ECE7054B4FF040
S2144013F08841F8689847034618461037BD4680BD72
S21440140071344000E9374000B0B582B000AF786034
S21440141039600A4B7868984704460D46084B38684A
S214401420984702460B4620462946064CA0470346A8
S2144014300C46184621460837BD46B0BD592D4000DB
S2144014407D2D40002118400090B587B000AF4FF684
S214401450FF73FB824FF6FF73BB824FF6FF737B82B0
S2144014604FF6FF733B824FF00003FB604FF00003E4
S214401470BB604FF000037B604FF000033B601B4AAD
S2144014801A4B1B6843F002031360194B1B6803F0AA
S2144014901003002B0CBF01230023DBB2002B00D02F
S2144014A0F3E7134B1B6803F02003002B0CBF01230C
S2144014B00023DBB2002B00D0F3E70D4B1B6803F094
S2144014C04003002B0CBF01230023DBB2002B00D0CF
S2144014D0F3E7074B1B6803F08003002B0CBF012388
S2144014E00023DBB2002B05D0F3E700BF00800340AB
S2144014F030800340984B1B6EFB82974B5B6EBB82E3
S214401500954B9B6E7B82944BDB6E3B82FB8A40F610
S214401510E44202FB03F3002B01DA03F6FF731B13CE
S2144015201A468E4B104698470346FB60BB8A40F6E9
S214401530E44202FB03F3002B01DA03F6FF731B13AE
S2144015401A46864B104698470346BB607B8A40F651
S214401550E44202FB03F3002B01DA03F6FF731B138E
S2144015601A467E4B1046984703467B603B8A40F6B9
S214401570E44202FB03F3002B01DA03F6FF731B136E
S2144015801A46764B1046984703463B60FB6883F006
S2144015900042734B10469847724C6BA3D3E9002326
S2144015A0A04703460C46184621466F4C68A3D3E92D
S2144015B00023A04703460C46194622466B4B084676
S2144015C0114698470346FB60BB6883F00042644B75
S2144015D010469847634C5CA3D3E90023A0470346D4
S2144015E00C4618462146604C59A3D3E90023A04731
S2144015F003460C46194622465C4B08461146984719
S2144016000346BB607A685A4B1146104698470346D5
S2144016107B60584B58493868984703463B60574A62
S21440162039685748574B9847574A79685748554BF3
S2144016309847504B5049F8689847034619460A2041
S214401640534B9847534C4FF00002534BA04703462A
S2144016500C4619462246454B0846114698470346CF
S2144016604E4A19464E48474B9847424B4249B868FF
S2144016709847034619460A20454B9847454C4FF035
S2144016800002454BA04703460C4619462246374BB8
S2144016900846114698470346424A19464248394B3F
S2144016A098473748414B98470246414B1A6037485F
S2144016B03E4B984702463F4B1A6039483B4B98474B
S2144016C002463D4B1A603848384B984702463B4BDB
S2144016D01A603A4B1A68384B1968264B104698479A
S2144016E003461846364B98470246214B4FF07E51EC
S2144016F01046984703461C46304B1A682E4B1968CE
S2144017001C4B10469847034618462D4B98470246B2
S2144017102C4B11464FF07E50984703461A46154BC1
S21440172011462046984703461A46274B1A60264BD2
S2144017301A68264B2649104698470346002B49D040
S214401740214B1B6847E000BFB6847CD0B359A53F09
S2144017503333333333D3544000800340D9354000CD
S2144017607D2D4000252E4000C12A4000C533400054
S21440177071344000E937400000002041082D002029
S214401780FC1C002075134000042D0020FC14002093
S214401790091440007930400000408F40FC2C002067
S2144017A0FC040020002D0020FC0C0020B513400057
S2144017B0E4040020E0040020D8040020DC040020DC
S2144017C0B91040006D344000EC040020D139400090
S2144017D0000048430A4B0B4A13600A4B1B680A4AF0
S2144017E019460A480A4B984708480A4B9847024603
S2144017F0094B1A60094B984700BF1C37BD4690BD41
S21440180000004843E80400200C2D0020FC24002063
S21440181075134000B5134000F0040020C511400089
S2144018202DE9F04FDFF8F0928DB006460F4614468D
S2144018301D4600F0C5F999F90080B8F1FF3FCDE9A3
S214401840000136D022462B462046294601F084FD2C
S214401850834670BB32463B463046394601F07CFDF7
S214401860002282460023002840F0A08030463946B9
S21440187001F040FD10B3002200232046294601F027
S21440188039FD834600286AD001229C4B02920021F3
S2144018900022CDF828A0CDE90467CDE90645CDE97C
S2144018A008120393B8F1000F45D0954C0023CDE9BC
S2144018B00034DDE900010DB0BDE8F08FDDE9000140
S2144018C000F0D8FF8046002800F08B804FF0000ADA
S2144018D04FF0000B52465B46DDE9000101F00AFD81
S2144018E00028E6D03046394600F0C4FF0028E0D055
S2144018F02046294600F0BEFF0028DAD099F900308D
S2144019007E4A039204210022022BCDE90467CDE9EA
S2144019100645CDE908AB02910A9203D002A800F032
S214401920AFFF68B902F0A8F82223036008E000235E
S2144019300024CDE9083402A800F0A2FF002830D0E9
S2144019400A9B1BB102F098F80A9B0360DDE9083455
S214401950CDE90034DDE900010DB0BDE8F08F20464A
S214401960294600F087FF0028A3D000220023204607
S214401970294601F0C9FC00289BD099F900305F4AFF
S214401980CDF828B00121CDE90467CDE9064502919E
S2144019900392002BCBD05B490020022BCDE90801F7
S2144019A0C9D102F069F821230360C9E720462946D9
S2144019B001F0A0FC00283FF47CAF514B4F49CDF8D6
S2144019C028B001200022B8F1020FCDE90467CDE926
S2144019D0064502900391CDE90823ACD1CDE900231A
S2144019E067E73046394600F045FF00283FF46EAFC3
S2144019F02046294600F03EFF00283FF467AFDDE969
S214401A0000231046194601F0A7FC002858D10323AE
S214401A1099F900800293394B0A900393CDE9046705
S214401A20CDE906450022002330463946B8F1000F7E
S214401A3026D1354F4FF06046CDE9086701F064FC8B
S214401A4000283FF46BAF0022304B2046294601F079
S214401A50E9F904460D4600F01BFF02460B462046B9
S214401A60294601F047FC40BB294B99F900804FF0CE
S214401A706042CDE90823B8F1020F7FF44FAF51E73B
S214401A80244F0026CDE9086701F03EFC0028F2D03E
S214401A9000221E4B2046294601F0C4F904460D4656
S214401AA000F0F6FE02460B462046294601F022FC90
S214401AB018B9144B0022CDE9082399F90080DAE7DB
S214401AC099F900900D4BCDF828800122CDE90467A6
S214401AD0CDE9064502920393B9F1000F3FF427AFD4
S214401AE0002200231046194601F0C6FAB9F1020F4B
S214401AF0CDE908013FF455AF1DE700BF903C4000DC
S214401B000000F03F0000F0FFFFFFEF470000E03F1F
S214401B10FFFFEFC70000F07F0A000020F0B58BB053
S214401B20044600F04FFE234B93F900506B1C0646CC
S214401B300AD02146204601F069FF074620B9002119
S214401B40204601F03BFF10B930460BB0F0BD1A4BB3
S214401B500897012220468DE80C0001F00FF900227C
S214401B60CDE90401CDE902010023ADB11046194686
S214401B7001F082FA022DCDE906010FD101F07CFF7B
S214401B8021230360089B7BB9DDE9060101F01AFCBE
S214401B90064630460BB0F0BDCDE90623684600F059
S214401BA06FFE0028EED1E9E701F066FF089B036070
S214401BB0EAE700BF0A000020943C40000000000016
S214401BC02DE9F04F23F0004757EA020493B037D090
S214401BD0674C21F00046A64283460D4629DC9A46CD
S214401BE0964625D0A74224DC614CA74279D0002DEA
S214401BF089468046CDE9002377DB0024BEF1000FFE
S214401C002CD15B4B9F4200F08B805A4B9F4261D059
S214401C10BAF1804F00F0BA83574B9A451ED1002D3B
S214401C201CDB4046494613B0BDE8F04F00F00EBD01
S214401C3058B106F1404606F5801656EA0B0306D123
S214401C404C49002013B0BDE8F08FB742CCDD4B487E
S214401C5013B0BDE8F04F00F015BE0024404649469C
S214401C6000F004FEBBF1000F19D126B1414B25F020
S214401C7040429A4213D1BAF1000FC0F2BC83002D05
S214401C80E0DA06F1404606F5801656EA040300F010
S214401C908F84012CD6D101F100431946D2E7ED0FCF
S214401CA0013D54EA05034ED0354B9F426EDD03F1AD
S214401CB004739F4240F3E883324B9E424EDDBAF1B6
S214401CC0000F4EDD28A3D3E900231046194601F045
S214401CD0A9F8B7E7BAF1000FC0F23C84404649463F
S214401CE0B0E7BEF1000F82D0A3E7274B9F4228DC27
S214401CF0A3F154739F4280DD3B15A3F2FF33142BB0
S214401D0040F33E84C3F134032EFA03F202FA03F39F
S214401D109E457FF472AF02F00102C2F102046DE705
S214401D2006F1404303F5801353EA0B0388D0154B66
S214401D309E4240F33283BAF1000F12DBDDE9000128
S214401D4080E702245AE742464B464046494600F062
S214401D50B5FE02460B4601F08FF973E7BAF1000F65
S214401D60B0DB002000216DE79C7500883CE4377EA0
S214401D700000F07F0000F03F0000E03F9C3C400049
S214401D800000E041FFFFEF3FFFFF3F43B6F5801FF7
S214401D904FF0000205DAD44B01F044F86FF03402FD
S214401DA00E463315D14FC6F31306A3F2FF33134442
S214401DB046F07F5ABE421A460D934AF4401A40F304
S214401DC02183CB4B9E4240F3FD83134601330D9354
S214401DD0C84B0022CDE9062300270026CDE9086738
S214401DE0CDE90E67AAF5801A0027024653465146AB
S214401DF0CDE90A23DDE9062300F060FEDDE906238F
S214401E0080468946DDE90A0100F05AFE02460B4646
S214401E100020B84901F030F90A460146CDE91012D3
S214401E20134649460246404600F0FCFF4FEA6A0326
S214401E3043F000538C46834603F50023CDE904BCAB
S214401E40DA468B46D9190023CDE902AB0293DDE989
S214401E5002AB002006460F4602460B465046594601
S214401E6000F0E0FF02460B464046494600F026FE9C
S214401E70DDE90623804689463046394600F01EFE98
S214401E8002460B46DDE90A0100F018FE52465B4664
S214401E9000F0C8FF02460B464046494600F00EFE9C
S214401EA0DDE9102300F0BEFFDDE90467CDE9060159
S214401EB032463B463046394600F0B4FF78A3D3E975
S214401EC0002306460F4600F0ADFF77A3D3E9002374
S214401ED000F0F6FD32463B4600F0A4FF74A3D3E97B
S214401EE0002300F0EDFD32463B4600F09BFF72A318
S214401EF0D3E9002300F0E4FD32463B4600F092FF73
S214401F006FA3D3E9002300F0DBFD32463B4600F0EA
S214401F1089FF6DA3D3E9002300F0D2FD3246804608
S214401F2089463B463046394600F07CFF02460B4623
S214401F304046494600F076FF524606460F465B4608
S214401F40DDE9040100F0BCFDDDE9062300F06AFF90
S214401F5032463B4600F0B4FD5246804689465B46D4
S214401F605046594600F05EFF0022634BCDE90A0119
S214401F7000F0A6FD42464B4600F0A2FD02980F46F2
S214401F80064632463B465046594600F04BFF002236
S214401F9082468B46584B3046394600F08FFDDDE989
S214401FA00A2300F08BFD02460B464046494600F0A9
S214401FB085FDDDE9042300F035FF3246804689463C
S214401FC03B46DDE9060100F02DFF02460B46404643
S214401FD0494600F075FD8046894602460B46504607
S214401FE05946CDE904AB00F06BFDDDE902AB38A302
S214401FF0D3E9002350460F4600F014FFDDE90423E2
S214402000CDE902013946504600F058FD02460B46DF
S2144020104046494600F052FD2FA3D3E9002300F086
S21440202001FF2FA3D3E90023804689465046394610
S21440203000F0F8FE02460B464046494600F040FD9A
S214402040DDE90E2300F03CFD80460D98894600F001
S21440205083FE424606460F464B46DDE9020100F047
S2144020602FFDDDE9082300F02BFD32463B4600F00D
S21440207027FD32463B4650468B4600F01FFDDDE9C5
S214402080082300F01BFDDDE9022300F017FD0246A1
S2144020900B464046494600F011FD80462EE000BF04
S2144020A0EF4E454A287ECA3F65DBC9934A86CD3FF8
S2144020B001411DA96074D13F4D268F515555D53FDE
S2144020C0FFAB6FDBB66DDB3F033333333333E33F76
S2144020D0000000E009C7EE3FFD033ADC09C7EE3FCB
S2144020E0F5015B14E02F3EBE000040438E9803008F
S2144020F079B60B000000F03F000008408946013CDE
S21440210054EA0503DDE9000114BFD94CD94C00233D
S214402110CDE9043403460C46CDE90234002302934D
S214402120DDE9024522462B4600F0C8FC52465B4697
S21440213000F078FEDDE9002306460F464046494655
S21440214000F070FE02460B463046394600F0B8FCBA
S2144021502246804689462B4650465946CDE9008958
S21440216000F060FE0B46024606460F46404649468D
S21440217000F0A6FCC04B994204460D468A4640F302
S214402180168101F13F4303F5E003034340F0EA8143
S214402190A3A3D3E90023DDE9000100F091FC324619
S2144021A0804689463B462046294600F087FC024644
S2144021B00B464046494601F0C5F8002840F0D2811B
S2144021C0A8464FEA28534FF48012A3F2FE3342FA51
S2144021D003F35344C3F30A52A84DA2F2FF3215410B
S2144021E0C3F3130423EA05010020C2F1140B44F4A0
S2144021F08014BAF1000F02460B4644FA0BFB3046F9
S2144022003946B8BFCBF1000B00F058FC02460B46EF
S21440221006460F46DDE9000100F052FC4FEA0B5A35
S2144022200D46002480A3D3E900232046294600F02B
S214402230F9FD3246804689463B462046294600F010
S2144022403DFC02460B46DDE9000100F037FC78A372
S214402250D3E9002300F0E6FD77A3D3E90023064642
S2144022600F462046294600F0DDFD02460B46304626
S214402270394600F025FC06460F4602460B464046C9
S214402280494600F01DFC42464B4604460D4600F0CB
S21440229015FC02460B463046394600F00FFC2246F7
S2144022A0804689462B462046294600F0BBFD64A35F
S2144022B0D3E9002306460F4600F0B4FD62A3D3E9F7
S2144022C0002300F0FBFB32463B4600F0ABFD60A32C
S2144022D0D3E9002300F0F4FB32463B4600F0A2FD73
S2144022E05DA3D3E9002300F0E9FB32463B4600F00D
S2144022F099FD5BA3D3E9002300F0E2FB32463B4660
S21440230000F090FD02460B462046294600F0D6FBDC
S21440231006460F4602460B462046294600F082FDFA
S2144023200022CDE900014FF080433046394600F0A8
S214402330C5FB02460B46DDE9000100F09DFE424625
S21440234006460F464B462046294600F06BFD424661
S2144023504B4600F0B5FB02460B463046394600F089
S214402360ADFB22462B4600F0A9FB02460B4600205A
S2144023703F4900F0A3FB8A44BAF5801FC0F2338180
S2144023805146DDE9042300F04DFD5BE442464046FD
S2144023904B46494600F046FD54E4BAF1000FBFF6FE
S2144023A0E0ACDDE90034184604F100414AE4344B21
S2144023B021F00048984540F3F280324B0B440343EB
S2144023C00CD132463B4600F079FB02460B46DDE92F
S2144023D0000100F0A3FF00283FF4F3AEDDE904015E
S2144023E021A3D3E9002300F01DFD1FA3D3E900235A
S2144023F000F018FD26E402460B4600201C4900F07B
S2144024003BFE3CE400220023CDE90823CDE90E2321
S214402410174B00220027CDE90623E6E4AFF3008001
S214402420FE822B654715973C00000000432EE63F92
S214402430EF39FAFE422EE63F396CA80C615C20BEAE
S214402440D0A4BE726937663EF16BD2C541BDBB3E75
S2144024502CDE25AF6A56113F93BDBE166CC1663F53
S2144024603E5555555555C53F59F3F8C21F6EA50103
S2144024700000F03F0000F0BFFFFF8F40FFFF0F005F
S214402480FFCB904000346F3F6B4B9E427FF766AC6D
S2144024906A4B9E423FF713AC0022684B00F00EFB9F
S2144024A057A3D3E9002306460F4600F0BBFC56A3CD
S2144024B0D3E90023804689463046394600F0B2FCD0
S2144024C0002282468B465E4B3046394600F0AAFCD8
S2144024D002460B464EA1D1E9000100F0EFFA324623
S2144024E03B4600F09FFC02460B460020554900F054
S2144024F0E5FA3246CDE902013B463046394600F021
S21440250091FC02460B46DDE9020100F08BFC42A33B
S214402510D3E9002300F086FC02460B465046594657
S21440252000F0CCFA02460B4606460F464046494661
S21440253000F0C6FA42464B46002082468B4600F0E4
S214402540BDFA02460B463046394600F0B7FA80469A
S2144025508946D4E542464B460020384900F08CFD7B
S214402560FFF770BBDDE904012DA3D3E9002300F09B
S21440257059FC2BA3D3E9002300F054FCFFF762BBC1
S214402580BEF1000F7FF469ABC3F1140347FA03F2C0
S21440259002FA03F39F422AD07446FFF736BB294B14
S2144025A098453FF70EAEDDE902239246934638E65D
S2144025B002460B4600F082FA02460B4600F05CFDEF
S2144025C0FFF740BB18A3D3E90023CDE9082318A39F
S2144025D0D3E90023CDE90E231B4B00224FF480277E
S2144025E0CDE9062301E45A4600F0DEF9C9E602F0DA
S2144025F00102C2F10204FFF708BB00BFAFF3008040
S214402600000000604715F73F44DF5DF80BAE543ED0
S214402610555555555555D53FFE822B654715F73FC1
S2144026209C7500883CE4377E0000004003B8E23FDB
S21440263006D0CF43EBFD4C3EFEFFEF3F0000F03FA1
S2144026400000D03F0000E03F0000F83F2DE9F8438F
S2144026505B4F8F4305460C4600F0928000290B46A0
S21440266002466FDD0F157BD0A7F2FF37C3F3130387
S214402670F80743F480135CD403EBD27100260B4476
S2144026807F105200B64616204FF400110EEB0104A0
S2144026909C424FEAD2754FEA420203DC1B1B04EB16
S2144026A0010E0E44013805EB43034FEA5101EDD1CC
S2144026B0844620244FF0004109E020D003EBD27539
S2144026C0013C4FEA51012B444FEA420220D0734569
S2144026D001EB0C05F1DD002D05EB010C09DBF046A6
S2144026E09542A3EB0E0300D9013B521B0844C64655
S2144026F0E4E7BCF1000FF2DB0EF10108F0E795428B
S214402700DCD8002D05EB010C44DB98460023ECE7B3
S214402710134313D14008731003F17F5303F500139E
S214402720F20703EB075948BF40F000404946BDE872
S214402730F8835B0003EBD27352009DE7411C2DD01B
S2144027400130E7E7064621F000473E43EFD069BB3D
S2144027500F46D30A153F5205002BFAD0DE0220D48E
S214402760002400E004465B00DD0204F10100F9D5D8
S214402770C0F1200122FA01F10B433F1B824073E770
S21440278002460B4600F04EFB2A46234600F098F9D8
S214402790BDE8F883BCF1000FAEDAB6E70136204656
S2144027A0B9E7002020214FF0FF34E3E702460B460E
S2144027B000F084F902460B4600F05EFCB7E700BF27
S2144027C00000F07F20F00042B2F1FF4FF8B504461B
S2144027D02ED262B3002803463DDBB2F5000F4FEA27
S2144027E0E0502CD37F38C3F3160343F40003C207EC
S2144027F048BF5B00002647105B00314619244FF067
S21440280080728D189D4202DC5B1BA9181644013C61
S2144028104FEA43034FEA5202F3D113B1013626F092
S2144028200106701000F17C5000EBC750F8BDF8BDB3
S214402830014600F025FF214600F01AFEF8BD14F4CC
S214402840000201D00EE00A465B001C0202F10101C4
S214402850F9D5801AC6E7014600F008FE014600F0AA
S214402860C3FFF8BD4FF0FF32F3E700BF21F0004151
S214402870704700BF41F0004101F58010C00F70471F
S2144028800020704700200149704700BF0000F87FD5
S214402890F0B5C1F30A5EAEF2FF36132E83B00246A1
S2144028A00B460C464FEAD17507462EDC002E49DB18
S2144028B03A49314103EA010010432BD049080B4006
S2144028C053EA02070CD04FF48023132E24EA01016A
S2144028D043FA06F444EA01040CBF4FF000470027D1
S2144028E02F4B03EBC5052146D5E900453846224621
S2144028F02B4600F0E5F8CDE9000122462B46DDE9FF
S214402900000100F0DBF803B0F0BD332E06DDB6F56F
S214402910806F40D01046194603B0F0BDAEF2134E5D
S2144029204FF0FF3121FA0EF10842F3D04908084231
S214402930D6D04FF0804320EA010143FA0EFE4EEA1D
S2144029400107CDE721F000410143E3D0C3F3130173
S214402950134E0143C1F1000C06EBC506D6E90067ED
S2144029604CEA010C4FEA1C3C5C0C64040CF400235B
S21440297043EA040132463B4600F0A2F8CDE90001A6
S21440298032463B46DDE9000100F098F821F000446D
S21440299044EAC571C0E700F093F8BDE7FFFF0F00BB
S2144029A0A03C400000000000F8B5C1F30A560446BB
S2144029B00D460B4617460EBB21F0004303438646A2
S2144029C025D00022344B00F02DFA344A9742044674
S2144029D00D460B462ADBC1F30A56363E3E4440F2CD
S2144029E0FE72964228DC002E12DD23F0FF4323F4CD
S2144029F0E00343EA065520462946F8BD40F2FF72FA
S214402A009642EBD102460B4600F05AF8F8BDF8BDA8
S214402A1016F1350F1DDA4CF250339F4222462B46B4
S214402A2025DC19A1D1E9000100F03CF816A3D3E952
S214402A30002300F0F7F9F8BD22462B4614A1D1E951
S214402A40000100F02FF812A3D3E9002300F0EAF9C2
S214402A50F8BD23F0FF4323F4E003363643EA065539
S214402A602046294600220E4B00F0DCF9F8BD08A1AE
S214402A70D1E9000100F016F805A3D3E9002300F0E1
S214402A80D1F9F8BDAFF3008059F3F8C21F6EA50127
S214402A909C7500883CE4377E00005043B03CFFFF06
S214402AA00000903C03F0004321F0004242EA03015C
S214402AB0704700BF81F0004102E000BF83F0004352
S214402AC030B54FEA41044FEA430594EA050F08BF84
S214402AD090EA020F1FBF54EA000C55EA020C7FEA48
S214402AE0645C7FEA655C00F0E2804FEA5454D4EBC5
S214402AF05555B8BF6D420CDD2C4480EA020281EA8F
S214402B00030382EA000083EA010180EA020281EAC6
S214402B100303362D88BF30BD11F0004F4FEA013118
S214402B204FF4801C4CEA113102D0404261EB410127
S214402B3013F0004F4FEA03334CEA133302D05242AD
S214402B4063EB430394EA050F00F0A780A4F1010469
S214402B50D5F1200E0DDB02FA0EFC22FA05F28018A3
S214402B6041F1000103FA0EF2801843FA05F3594189
S214402B700EE0A5F120050EF1200E012A03FA0EFC08
S214402B8028BF4CF0020C43FA05F3C01851EBE37132
S214402B9001F0004507D54FF0000EDCF1000C7EEB4F
S214402BA000006EEB0101B1F5801F1BD3B1F5001F8D
S214402BB00CD349085FEA30004FEA3C0C04F10104AC
S214402BC04FEA445212F5800F80F09A80BCF1004FD5
S214402BD008BF5FEA500C50F1000041EB045141EA57
S214402BE0050130BD5FEA4C0C404141EB010111F458
S214402BF0801FA4F10104E9D191F0000F04BF014603
S214402C000020B1FA81F308BF2033A3F10B03B3F1E0
S214402C1020020CDA0C3208DD02F1140CC2F10C0270
S214402C2001FA0CF021FA02F10CE002F11402D8BFCE
S214402C30C2F1200C01FA02F120FA0CFCDCBF41EA9A
S214402C400C019040E41AA2BF01EB0451294330BD69
S214402C506FEA04041F3C1CDA0C340EDC04F1140446
S214402C60C4F1200220FA04F001FA02F340EA03001D
S214402C7021FA04F345EA030130BDC4F10C04C4F163
S214402C80200220FA02F001FA04F340EA0300294643
S214402C9030BD21FA04F0294630BD94F0000F83F48D
S214402CA0801306BF81F480110134013D4EE77FEA70
S214402CB0645C18BF7FEA655C29D094EA050F08BFBC
S214402CC090EA020F05D054EA000C04BF194610469D
S214402CD030BD91EA030F1EBF0021002030BD5FEAE1
S214402CE0545C05D14000494128BF41F0004130BD09
S214402CF014F580043CBF01F5801130BD01F000455D
S214402D0045F0FE4141F470014FF0000030BD7FEACF
S214402D10645C1ABF194610467FEA655C1CBF0B46CA
S214402D20024650EA013406BF52EA033591EA030FE1
S214402D3041F4002130BD00BF90F0000F04BF0021D9
S214402D40704730B54FF4806404F132044FF000050C
S214402D504FF0000150E700BF90F0000F04BF002185
S214402D60704730B54FF4806404F1320410F00045EB
S214402D7048BF40424FF000013EE700BF42004FEAE6
S214402D80E2014FEA31014FEA02701FBF12F07F4363
S214402D9093F07F4F81F06051704792F0000F14BF60
S214402DA093F07F4F704730B54FF4607401F00045A4
S214402DB021F0004120E700BF50EA010208BF7047FB
S214402DC030B54FF000050AE050EA010208BF7047F0
S214402DD030B511F0004502D5404261EB41014FF459
S214402DE0806404F132045FEA915C3FF4DCAE4FF05D
S214402DF003025FEADC0C18BF03325FEADC0C18BF44
S214402E00033202EBDC02C2F1200300FA03FC20FA94
S214402E1002F001FA03FE40EA0E0021FA02F11444E1
S214402E20C1E600BF70B54FF0FF0C4CF4E06C1CEAF6
S214402E3011541DBF1CEA135594EA0C0F95EA0C0F6B
S214402E4000F0DEF82C4481EA030621EA4C5123EADE
S214402E504C5350EA013518BF52EA033541F480110D
S214402E6043F4801338D0A0FB02CE4FF00005E1FBC0
S214402E7002E506F00042E0FB03E54FF00006E1FB0A
S214402E8003569CF0000F18BF4EF0010EA4F1FF044D
S214402E90B6F5007F64F5407404D25FEA4E0E6D418D
S214402EA046EB060642EAC62141EA55514FEAC5209E
S214402EB040EA5E504FEACE2EB4F1FD0C88BFBCF51A
S214402EC0E06F1ED8BEF1004F08BF5FEA500E50F1CB
S214402ED0000041EB045170BD06F0004646EA010191
S214402EE040EA020081EA0301B4EB5C04C2BFD4EBC3
S214402EF00C0541EA045170BD41F480114FF0000EBC
S214402F00013C00F3AB8014F1360FDEBF002001F029
S214402F10004170BDC4F10004203C35DA0C341BDCA3
S214402F2004F11404C4F1200500FA05F320FA04F075
S214402F3001FA05F240EA020001F0004221F00041A9
S214402F4010EBD37021FA04F642EB06015EEA430E1C
S214402F5008BF20EAD37070BDC4F10C04C4F120054C
S214402F6000FA04F320FA05F001FA04F240EA0200FF
S214402F7001F0004110EBD37041F100015EEA430ED0
S214402F8008BF20EAD37070BDC4F1200500FA05F2F0
S214402F904EEA020E20FA04F301FA05F243EA02036F
S214402FA021FA04F001F0004121FA04F220EA02007E
S214402FB000EBD3705EEA430E08BF20EAD37070BDC4
S214402FC094F0000F0FD101F00046400041EB0101A4
S214402FD011F4801F08BF013CF7D041EA060195F086
S214402FE0000F18BF704703F00046520043EB030340
S214402FF013F4801F08BF013DF7D043EA060370472D
S21440300094EA0C0F0CEA135518BF95EA0C0F0CD037
S21440301050EA410618BF52EA4306D1D181EA03017D
S21440302001F000414FF0000070BD50EA410606BF77
S2144030301046194652EA430619D094EA0C0F02D1BC
S21440304050EA013613D195EA0C0F05D152EA033601
S2144030501CBF104619460AD181EA030101F000411F
S21440306041F0FE4141F470014FF0000070BD41F068
S214403070FE4141F4780170BD70B54FF0FF0C4CF442
S214403080E06C1CEA11541DBF1CEA135594EA0C0F61
S21440309095EA0C0F00F0A7F8A4EB050481EA030EAE
S2144030A052EA03354FEA013100F088804FEA033395
S2144030B04FF0805545EA131343EA12634FEA022263
S2144030C045EA111545EA10654FEA00260EF0004124
S2144030D09D4208BF964244F1FD0404F5407402D276
S2144030E05B084FEA3202B61A65EB03055B084FEA07
S2144030F032024FF480104FF4002CB6EB020E75EB04
S214403100030E22BFB61A754640EA0C005B084FEA2B
S2144031103202B6EB020E75EB030E22BFB61A7546A8
S21440312040EA5C005B084FEA3202B6EB020E75EBF3
S214403130030E22BFB61A754640EA9C005B084FEA6B
S2144031403202B6EB020E75EB030E22BFB61A754678
S21440315040EADC0055EA060E18D04FEA051545EA67
S21440316016754FEA06164FEAC30343EA52734FEA10
S214403170C2025FEA1C1CC0D111F4801F0BD141EA89
S21440318000014FF000004FF0004CB6E711F4801FEE
S21440319004BF01430020B4F1FD0C88BFBCF5E06FCE
S2144031A03FF6AFAEB5EB030C04BFB6EB020C5FEADE
S2144031B0500C50F1000041EB045170BD0EF0004E33
S2144031C04EEA113114EB5C04C2BFD4EB0C0541EA65
S2144031D0045170BD41F480114FF0000E013C90E662
S2144031E045EA060E8DE60CEA135594EA0C0F08BF26
S2144031F095EA0C0F3FF43BAF94EA0C0F0AD150EA25
S21440320001347FF434AF95EA0C0F7FF425AF1046B7
S21440321019462CE795EA0C0F06D152EA03353FF4DF
S214403220FDAE1046194622E750EA410618BF52EA5C
S21440323043067FF4C5AE50EA41047FF40DAF52EA30
S21440324043057FF4EBAE12E74FF0FF3C06E000BFCD
S2144032504FF0010C02E000BF4FF0010C4DF804CDDA
S2144032604FEA410C7FEA6C5C4FEA430C18BF7FEA9A
S2144032706C5C1BD001B050EA410C0CBF52EA430CC8
S21440328091EA030F02BF90EA020F0020704710F148
S214403290000F91EA030F58BF994208BF90422CBFD7
S2144032A0D8176FEAE37040F0010070474FEA410CD0
S2144032B07FEA6C5C02D150EA013C07D14FEA430CEE
S2144032C07FEA6C5CD6D152EA033CD3D05DF8040B5F
S2144032D0704700BF8446104662468C461946634691
S2144032E000E000BF01B5FFF7B7FF002848BF10F168
S2144032F0000F01BD4DF808EDFFF7F4FF0CBF0120AD
S21440330000205DF808FB00BF4DF808EDFFF7EAFF28
S21440331034BF012000205DF808FB00BF4DF808EDE3
S214403320FFF7E0FF94BF012000205DF808FB00BFD8
S2144033304DF808EDFFF7CEFF94BF012000205DF862
S21440334008FB00BF4DF808EDFFF7C4FF34BF01206F
S21440335000205DF808FB00BF4FEA410C7FEA6C5C3A
S21440336002D150EA013C0AD14FEA430C7FEA6C5C3A
S21440337002D152EA033C02D14FF0000070474FF0B2
S214403380010070474A0011D212F5001211D20DD535
S2144033906FF47873B3EB62520ED44FEAC12343F016
S2144033A0004343EA505323FA02F070474FF00000C0
S2144033B0704750EA013002D14FF0FF3070474FF06F
S2144033C0000070474FEA4102B2F1E04324BFB3F534
S2144033D0001CDCF1FE5C0DD901F0004C4FEAC00247
S2144033E04CEA5070B2F1004F40EB830008BF20F02B
S2144033F00100704711F0804F21D113F13872BCBFE5
S21440340001F00040704741F480114FEA5252C2F139
S2144034101802C2F1200C10FA0CF320FA02F018BF82
S21440342040F001004FEAC1234FEAD32303FA0CFCD5
S21440343040EA0C0023FA02F34FEA4303CCE77FEA64
S214403440625307D150EA01331EBF4FF0FE4040F4AE
S2144034504000704701F0004040F0FE4040F400005D
S214403460704700BF80F0004002E000BF81F000419E
S21440347042001FBF5FEA410392EA030F7FEA226CD5
S2144034807FEA236C6AD04FEA1262D2EB1363C1BF65
S214403490D218414048404140B8BF5B42192B88BFD4
S2144034A0704710F0004F40F4000020F07F4018BFF7
S2144034B0404211F0004F41F4000121F07F4118BF17
S2144034C0494292EA030F3FD0A2F1010241FA03FCBF
S2144034D010EB0C00C3F1200301FA03F100F00043A7
S2144034E002D5494260EB4000B0F5000F13D3B0F16F
S2144034F0807F06D340084FEA310102F10102FE2ADE
S21440350051D2B1F1004F40EBC25008BF20F001004D
S21440351040EA03007047490040EB000010F4000FFB
S214403520A2F10102EDD1B0FA80FCACF1080CB2EB8E
S2144035300C0200FA0CF0AABF00EBC25052421843ED
S214403540BCBFD0401843704792F0000F81F4000192
S21440355006BF80F400000132013BB5E74FEA410365
S2144035607FEA226C18BF7FEA236C21D092EA030FD1
S21440357004D092F0000F08BF0846704790EA010F4B
S2144035801CBF0020704712F07F4F04D1400028BF78
S21440359040F00040704712F100723CBF00F500005A
S2144035A0704700F0004343F0FE4040F40000704790
S2144035B07FEA226216BF08467FEA2363014642023C
S2144035C006BF5FEA412390EA010F40F4800070474F
S2144035D04FF0000304E000BF10F0004348BF4042F5
S2144035E05FEA000C08BF704743F0964301464FF031
S2144035F000001CE050EA010208BF70474FF000038D
S2144036000AE000BF50EA010208BF704711F00043CD
S21440361002D5404261EB41015FEA010C02BF84469D
S2144036200146002043F0B64308BFA3F18053A3F5FC
S2144036300003BCFA8CF2083AA3EBC25310DB01FA43
S21440364002FC634400FA02FCC2F12002BCF1004FC7
S21440365020FA02F243EB020008BF20F00100704758
S21440366002F1200201FA02FCC2F1200250EA4C00AC
S21440367021FA02F243EB020008BF20EADC707047F2
S2144036804FF0FF0C1CEAD0521EBF1CEAD15392EA00
S2144036900C0F93EA0C0F6FD01A4480EA010C4002DC
S2144036A018BF5FEA41211ED04FF0006343EA501036
S2144036B043EA5111A0FB01310CF00040B1F5000F78
S2144036C03EBF490041EAD3715B0040EA010062F127
S2144036D07F02FD2A1DD8B3F1004F40EBC25008BF11
S2144036E020F00100704790F0000F0CF0004C08BF2F
S2144036F049024CEA502040EA51207F3AC2BFD2F1FC
S214403700FF0340EAC250704740F400004FF0000309
S214403710013A5DDC12F1190FDCBF00F00040704743
S214403720C2F10002410021FA02F1C2F1200200FA81
S21440373002FC5FEA310040F1000053EA4C0308BF48
S21440374020EADC70704792F0000F00F0004C02BF99
S214403750400010F4000F013AF9D040EA0C0093F014
S214403760000F01F0004C02BF490011F4000F013B6E
S214403770F9D041EA0C018FE70CEAD15392EA0C0FDC
S21440378018BF93EA0C0F0AD030F0004C18BF31F047
S214403790004CD8D180EA010000F00040704790F01D
S2144037A0000F17BF90F0004F084691F0000F91F0C1
S2144037B0004F14D092EA0C0F01D142020FD193EA87
S2144037C00C0F03D14B0218BF084608D180EA01000F
S2144037D000F0004040F0FE4040F40000704740F0EB
S2144037E0FE4040F4400070474FF0FF0C1CEAD052B9
S2144037F01EBF1CEAD15392EA0C0F93EA0C0F69D015
S214403800A2EB030280EA010C49024FEA402037D07F
S2144038104FF0805343EA111143EA10130CF0004076
S2144038208B4238BF5B0042F17D024FF4000C8B4266
S21440383024BF5B1A40EA0C00B3EB510F24BFA3EB46
S214403840510340EA5C00B3EB910F24BFA3EB910316
S21440385040EA9C00B3EBD10F24BFA3EBD10340EA70
S214403860DC001B0118BF5FEA1C1CE0D1FD2A3FF6B6
S21440387050AF8B4240EBC25008BF20F0010070476B
S2144038800CF0004C4CEA50207F32C2BFD2F1FF030E
S21440389040EAC250704740F400004FF00003013A3F
S2144038A037E792F0000F00F0004C02BF400010F4E3
S2144038B0000F013AF9D040EA0C0093F0000F01F0F7
S2144038C0004C02BF490011F4000F013BF9D041EA19
S2144038D00C0195E70CEAD15392EA0C0F08D142024C
S2144038E07FF47DAF93EA0C0F7FF470AF084676E71F
S2144038F093EA0C0F04D14B023FF44CAF08466EE7F8
S21440390030F0004C18BF31F0004CCAD130F00042C5
S2144039107FF45CAF31F000437FF43CAF5FE700BF1D
S2144039204FF0FF3C06E000BF4FF0010C02E000BF46
S2144039304FF0010C4DF804CD4FEA40024FEA4103E8
S2144039407FEA226C18BF7FEA236C11D001B052EA9E
S214403950530C18BF90EA010F58BFB2EB030088BF64
S214403960C81738BF6FEAE17018BF40F001007047D3
S2144039707FEA226C02D15FEA402C05D17FEA236CB5
S214403980E4D15FEA412CE1D05DF8040B704700BFFC
S214403990844608466146FFE70FB5FFF7C9FF002893
S2144039A048BF10F1000F0FBD4DF808EDFFF7F4FFCC
S2144039B00CBF012000205DF808FB00BF4DF808ED65
S2144039C0FFF7EAFF34BF012000205DF808FB00BF88
S2144039D04DF808EDFFF7E0FF94BF012000205DF8AA
S2144039E008FB00BF4DF808EDFFF7D2FF94BF01205B
S2144039F000205DF808FB00BF4DF808EDFFF7C8FF54
S214403A0034BF012000205DF808FB00BF4FEA4002AB
S214403A104FEA41037FEA226C02D15FEA402C08D18C
S214403A207FEA236C02D15FEA412C02D14FF00000BE
S214403A3070474FF00100704742000ED2B2F1FE4F81
S214403A400BD34FF09E03B3EB126209D44FEA002328
S214403A5043F0004323FA02F070474FF000007047EF
S214403A6012F1610F01D1420202D14FF0FF30704790
S214403A704FF00000704700BF014B1868704700BF0A
S214403A800C00002070B50F4E0F4D761BB61018BFB9
S214403A90002405D0013455F8043B9847A642F9D196
S214403AA00A4E0B4D761B00F005F9B61018BF0024E1
S214403AB006D0013455F8043B9847A642F9D170BD6C
S214403AC070BD00BFC03C4000C03C4000C83C400009
S214403AD0C03C400070B4860746D0541E002A41D0F1
S214403AE0CAB2034602E014F1FF343BD303F8012B7D
S214403AF09D07F8D1032C2ED9CDB245EA05250F2CCB
S214403B0045EA054519D903F110022646103E0F2E08
S214403B1042F8105C42F80C5C42F8085C42F8045CE0
S214403B2002F11002F2D8A4F1100222F00F0204F0C3
S214403B300F041032032C13440DD91E462246043A75
S214403B40032A46F8045BFAD8221F22F00302043206
S214403B50134404F003042CB1C9B21C4403F8011BFF
S214403B609C42FBD170BC704714460346C2E700BF78
S214403B70024B13B1024800F005B870470000000041
S214403B80913B4000002301461A46184600F01EB8F6
S214403B9038B50A4C0A4D641BA4100AD004F1804381
S214403BA0013B05EB8305013C55F804399847002C4A
S214403BB0F9D1BDE8384000F087B800BFD83C400097
S214403BC0D43C4000704700BF704700BF2DE9F84323
S214403BD02C4D0646286898460F469146FFF7F2FF5A
S214403BE0294B1C68D4F84831002B3ED05A681F2A0F
S214403BF01CDC02F1010E76B103EB82010124C1F810
S214403C008890D3F8880194402043022EC3F8880158
S214403C10C1F8088123D00232C3F804E0286843F88C
S214403C202270FFF7D1FF0020BDE8F883174B0BB397
S214403C304FF4C870AFF300800346D8B1D4F848219B
S214403C400260002141600A46C4F848014FF0010E68
S214403C50C0F88811C0F88C11002EDCD0CCE7D3F821
S214403C608C110C43C3F88C41D5E704F5A673C4F811
S214403C704831BBE72868FFF7A7FF4FF0FF30BDE8A5
S214403C80F88300BF38040020B03C4000000000002D
S214403C90706F770073717274660000000000000059
S214403CA0000000000000304300000000000030C369
S214403CB010000020F8B500BFF8BC08BC9E46704710
S214403CC0713B4000F1004000F8B500BFF8BC08BCAE
S20C403CD09E467047CD004000FF
S214403CD800093D00FFFFFFFFFFFF01001000002026
S214403CE800000000FC02002064030020CC030020F3
S214403CF80000000000000000000000000000000077
S214403D080000000000000000000000000000000066
S214403D180000000000000000000000000000000056
S214403D280000000000000000000000000000000046
S214403D380000000000000000000000000000000036
S214403D480000000000000000000000000000000026
S214403D580000000000000000000000000000000016
S214403D680000000000000000000000000000000006
S214403D7800000000000000000000000000000000F6
S214403D8800000000000000000100000000000000E5
S214403D980E33CDAB34126DE6ECDE05000B000000AA
S214403DA800000000000000000000000000000000C6
S214403DB800000000000000000000000000000000B6
S214403DC800000000000000000000000000000000A6
S214403DD80000000000000000000000000000000096
S2104041080000000000000000102D002009
S804400000BB
